{
  "contractName": "Lottery",
  "abi": [
    {
      "inputs": [],
      "stateMutability": "nonpayable",
      "type": "constructor"
    },
    {
      "anonymous": false,
      "inputs": [
        {
          "indexed": true,
          "internalType": "address",
          "name": "user",
          "type": "address"
        },
        {
          "indexed": false,
          "internalType": "uint256",
          "name": "tokenId",
          "type": "uint256"
        }
      ],
      "name": "Buy",
      "type": "event"
    },
    {
      "anonymous": false,
      "inputs": [
        {
          "indexed": true,
          "internalType": "address",
          "name": "user",
          "type": "address"
        },
        {
          "indexed": false,
          "internalType": "uint256",
          "name": "tokenid",
          "type": "uint256"
        },
        {
          "indexed": false,
          "internalType": "uint256",
          "name": "amount",
          "type": "uint256"
        }
      ],
      "name": "Claim",
      "type": "event"
    },
    {
      "anonymous": false,
      "inputs": [
        {
          "indexed": true,
          "internalType": "address",
          "name": "user",
          "type": "address"
        },
        {
          "indexed": false,
          "internalType": "uint256",
          "name": "amount",
          "type": "uint256"
        }
      ],
      "name": "DevWithdraw",
      "type": "event"
    },
    {
      "anonymous": false,
      "inputs": [
        {
          "indexed": true,
          "internalType": "uint256",
          "name": "issueIndex",
          "type": "uint256"
        },
        {
          "indexed": false,
          "internalType": "uint8[4]",
          "name": "winningNumbers",
          "type": "uint8[4]"
        }
      ],
      "name": "Drawing",
      "type": "event"
    },
    {
      "anonymous": false,
      "inputs": [
        {
          "indexed": true,
          "internalType": "address",
          "name": "user",
          "type": "address"
        },
        {
          "indexed": false,
          "internalType": "uint256",
          "name": "amount",
          "type": "uint256"
        }
      ],
      "name": "MultiBuy",
      "type": "event"
    },
    {
      "anonymous": false,
      "inputs": [
        {
          "indexed": true,
          "internalType": "address",
          "name": "user",
          "type": "address"
        },
        {
          "indexed": false,
          "internalType": "uint256",
          "name": "amount",
          "type": "uint256"
        }
      ],
      "name": "MultiClaim",
      "type": "event"
    },
    {
      "anonymous": false,
      "inputs": [
        {
          "indexed": true,
          "internalType": "address",
          "name": "previousOwner",
          "type": "address"
        },
        {
          "indexed": true,
          "internalType": "address",
          "name": "newOwner",
          "type": "address"
        }
      ],
      "name": "OwnershipTransferred",
      "type": "event"
    },
    {
      "anonymous": false,
      "inputs": [
        {
          "indexed": true,
          "internalType": "uint256",
          "name": "issueIndex",
          "type": "uint256"
        }
      ],
      "name": "Reset",
      "type": "event"
    },
    {
      "inputs": [],
      "name": "adminAddress",
      "outputs": [
        {
          "internalType": "address",
          "name": "",
          "type": "address"
        }
      ],
      "stateMutability": "view",
      "type": "function",
      "constant": true
    },
    {
      "inputs": [
        {
          "internalType": "uint256",
          "name": "",
          "type": "uint256"
        }
      ],
      "name": "allocation",
      "outputs": [
        {
          "internalType": "uint8",
          "name": "",
          "type": "uint8"
        }
      ],
      "stateMutability": "view",
      "type": "function",
      "constant": true
    },
    {
      "inputs": [],
      "name": "busd",
      "outputs": [
        {
          "internalType": "contract IERC20",
          "name": "",
          "type": "address"
        }
      ],
      "stateMutability": "view",
      "type": "function",
      "constant": true
    },
    {
      "inputs": [],
      "name": "drawingPhase",
      "outputs": [
        {
          "internalType": "bool",
          "name": "",
          "type": "bool"
        }
      ],
      "stateMutability": "view",
      "type": "function",
      "constant": true
    },
    {
      "inputs": [
        {
          "internalType": "uint256",
          "name": "",
          "type": "uint256"
        },
        {
          "internalType": "uint256",
          "name": "",
          "type": "uint256"
        }
      ],
      "name": "historyAmount",
      "outputs": [
        {
          "internalType": "uint256",
          "name": "",
          "type": "uint256"
        }
      ],
      "stateMutability": "view",
      "type": "function",
      "constant": true
    },
    {
      "inputs": [
        {
          "internalType": "uint256",
          "name": "",
          "type": "uint256"
        },
        {
          "internalType": "uint256",
          "name": "",
          "type": "uint256"
        }
      ],
      "name": "historyNumbers",
      "outputs": [
        {
          "internalType": "uint8",
          "name": "",
          "type": "uint8"
        }
      ],
      "stateMutability": "view",
      "type": "function",
      "constant": true
    },
    {
      "inputs": [],
      "name": "issueIndex",
      "outputs": [
        {
          "internalType": "uint256",
          "name": "",
          "type": "uint256"
        }
      ],
      "stateMutability": "view",
      "type": "function",
      "constant": true
    },
    {
      "inputs": [],
      "name": "lastTimestamp",
      "outputs": [
        {
          "internalType": "uint256",
          "name": "",
          "type": "uint256"
        }
      ],
      "stateMutability": "view",
      "type": "function",
      "constant": true
    },
    {
      "inputs": [
        {
          "internalType": "uint256",
          "name": "",
          "type": "uint256"
        },
        {
          "internalType": "uint256",
          "name": "",
          "type": "uint256"
        }
      ],
      "name": "lotteryInfo",
      "outputs": [
        {
          "internalType": "uint256",
          "name": "",
          "type": "uint256"
        }
      ],
      "stateMutability": "view",
      "type": "function",
      "constant": true
    },
    {
      "inputs": [],
      "name": "lotteryNFT",
      "outputs": [
        {
          "internalType": "contract LotteryNFT",
          "name": "",
          "type": "address"
        }
      ],
      "stateMutability": "view",
      "type": "function",
      "constant": true
    },
    {
      "inputs": [],
      "name": "maxNumber",
      "outputs": [
        {
          "internalType": "uint8",
          "name": "",
          "type": "uint8"
        }
      ],
      "stateMutability": "view",
      "type": "function",
      "constant": true
    },
    {
      "inputs": [],
      "name": "minPrice",
      "outputs": [
        {
          "internalType": "uint256",
          "name": "",
          "type": "uint256"
        }
      ],
      "stateMutability": "view",
      "type": "function",
      "constant": true
    },
    {
      "inputs": [],
      "name": "owner",
      "outputs": [
        {
          "internalType": "address",
          "name": "",
          "type": "address"
        }
      ],
      "stateMutability": "view",
      "type": "function",
      "constant": true
    },
    {
      "inputs": [],
      "name": "renounceOwnership",
      "outputs": [],
      "stateMutability": "nonpayable",
      "type": "function"
    },
    {
      "inputs": [],
      "name": "totalAddresses",
      "outputs": [
        {
          "internalType": "uint256",
          "name": "",
          "type": "uint256"
        }
      ],
      "stateMutability": "view",
      "type": "function",
      "constant": true
    },
    {
      "inputs": [],
      "name": "totalAmount",
      "outputs": [
        {
          "internalType": "uint256",
          "name": "",
          "type": "uint256"
        }
      ],
      "stateMutability": "view",
      "type": "function",
      "constant": true
    },
    {
      "inputs": [
        {
          "internalType": "address",
          "name": "newOwner",
          "type": "address"
        }
      ],
      "name": "transferOwnership",
      "outputs": [],
      "stateMutability": "nonpayable",
      "type": "function"
    },
    {
      "inputs": [
        {
          "internalType": "uint256",
          "name": "",
          "type": "uint256"
        },
        {
          "internalType": "uint64",
          "name": "",
          "type": "uint64"
        }
      ],
      "name": "userBuyAmountSum",
      "outputs": [
        {
          "internalType": "uint256",
          "name": "",
          "type": "uint256"
        }
      ],
      "stateMutability": "view",
      "type": "function",
      "constant": true
    },
    {
      "inputs": [
        {
          "internalType": "address",
          "name": "",
          "type": "address"
        },
        {
          "internalType": "uint256",
          "name": "",
          "type": "uint256"
        }
      ],
      "name": "userInfo",
      "outputs": [
        {
          "internalType": "uint256",
          "name": "",
          "type": "uint256"
        }
      ],
      "stateMutability": "view",
      "type": "function",
      "constant": true
    },
    {
      "inputs": [
        {
          "internalType": "uint256",
          "name": "",
          "type": "uint256"
        }
      ],
      "name": "winningNumbers",
      "outputs": [
        {
          "internalType": "uint8",
          "name": "",
          "type": "uint8"
        }
      ],
      "stateMutability": "view",
      "type": "function",
      "constant": true
    },
    {
      "inputs": [
        {
          "internalType": "contract IERC20",
          "name": "_busd",
          "type": "address"
        },
        {
          "internalType": "contract LotteryNFT",
          "name": "_lottery",
          "type": "address"
        },
        {
          "internalType": "uint256",
          "name": "_minPrice",
          "type": "uint256"
        },
        {
          "internalType": "uint8",
          "name": "_maxNumber",
          "type": "uint8"
        },
        {
          "internalType": "address",
          "name": "_owner",
          "type": "address"
        },
        {
          "internalType": "address",
          "name": "_adminAddress",
          "type": "address"
        }
      ],
      "name": "initialize",
      "outputs": [],
      "stateMutability": "nonpayable",
      "type": "function"
    },
    {
      "inputs": [],
      "name": "drawed",
      "outputs": [
        {
          "internalType": "bool",
          "name": "",
          "type": "bool"
        }
      ],
      "stateMutability": "view",
      "type": "function",
      "constant": true
    },
    {
      "inputs": [],
      "name": "reset",
      "outputs": [],
      "stateMutability": "nonpayable",
      "type": "function"
    },
    {
      "inputs": [],
      "name": "enterDrawingPhase",
      "outputs": [],
      "stateMutability": "nonpayable",
      "type": "function"
    },
    {
      "inputs": [
        {
          "internalType": "uint256",
          "name": "_externalRandomNumber",
          "type": "uint256"
        }
      ],
      "name": "drawing",
      "outputs": [],
      "stateMutability": "nonpayable",
      "type": "function"
    },
    {
      "inputs": [
        {
          "internalType": "uint256",
          "name": "_price",
          "type": "uint256"
        },
        {
          "internalType": "uint8[4]",
          "name": "_numbers",
          "type": "uint8[4]"
        }
      ],
      "name": "injectReward",
      "outputs": [],
      "stateMutability": "nonpayable",
      "type": "function"
    },
    {
      "inputs": [
        {
          "internalType": "uint256",
          "name": "_price",
          "type": "uint256"
        },
        {
          "internalType": "uint8[4]",
          "name": "_numbers",
          "type": "uint8[4]"
        }
      ],
      "name": "buy",
      "outputs": [],
      "stateMutability": "nonpayable",
      "type": "function"
    },
    {
      "inputs": [
        {
          "internalType": "uint256",
          "name": "_price",
          "type": "uint256"
        },
        {
          "internalType": "uint8[4][]",
          "name": "_numbers",
          "type": "uint8[4][]"
        }
      ],
      "name": "multiBuy",
      "outputs": [],
      "stateMutability": "nonpayable",
      "type": "function"
    },
    {
      "inputs": [
        {
          "internalType": "uint256",
          "name": "_tokenId",
          "type": "uint256"
        }
      ],
      "name": "claimReward",
      "outputs": [],
      "stateMutability": "nonpayable",
      "type": "function"
    },
    {
      "inputs": [
        {
          "internalType": "uint256[]",
          "name": "_tickets",
          "type": "uint256[]"
        }
      ],
      "name": "multiClaim",
      "outputs": [],
      "stateMutability": "nonpayable",
      "type": "function"
    },
    {
      "inputs": [
        {
          "internalType": "uint8[4]",
          "name": "number",
          "type": "uint8[4]"
        }
      ],
      "name": "generateNumberIndexKey",
      "outputs": [
        {
          "internalType": "uint64[11]",
          "name": "",
          "type": "uint64[11]"
        }
      ],
      "stateMutability": "pure",
      "type": "function",
      "constant": true
    },
    {
      "inputs": [
        {
          "internalType": "uint256",
          "name": "_issueIndex",
          "type": "uint256"
        },
        {
          "internalType": "uint256",
          "name": "_matchingNumber",
          "type": "uint256"
        }
      ],
      "name": "getMatchingRewardAmount",
      "outputs": [
        {
          "internalType": "uint256",
          "name": "",
          "type": "uint256"
        }
      ],
      "stateMutability": "view",
      "type": "function",
      "constant": true
    },
    {
      "inputs": [
        {
          "internalType": "uint256",
          "name": "_issueIndex",
          "type": "uint256"
        }
      ],
      "name": "getTotalRewards",
      "outputs": [
        {
          "internalType": "uint256",
          "name": "",
          "type": "uint256"
        }
      ],
      "stateMutability": "view",
      "type": "function",
      "constant": true
    },
    {
      "inputs": [
        {
          "internalType": "uint256",
          "name": "_tokenId",
          "type": "uint256"
        }
      ],
      "name": "getRewardView",
      "outputs": [
        {
          "internalType": "uint256",
          "name": "",
          "type": "uint256"
        }
      ],
      "stateMutability": "view",
      "type": "function",
      "constant": true
    },
    {
      "inputs": [
        {
          "internalType": "address",
          "name": "_adminAddress",
          "type": "address"
        }
      ],
      "name": "setAdmin",
      "outputs": [],
      "stateMutability": "nonpayable",
      "type": "function"
    },
    {
      "inputs": [
        {
          "internalType": "uint256",
          "name": "_amount",
          "type": "uint256"
        }
      ],
      "name": "adminWithdraw",
      "outputs": [],
      "stateMutability": "nonpayable",
      "type": "function"
    },
    {
      "inputs": [
        {
          "internalType": "uint256",
          "name": "_price",
          "type": "uint256"
        }
      ],
      "name": "setMinPrice",
      "outputs": [],
      "stateMutability": "nonpayable",
      "type": "function"
    },
    {
      "inputs": [
        {
          "internalType": "uint8",
          "name": "_maxNumber",
          "type": "uint8"
        }
      ],
      "name": "setMaxNumber",
      "outputs": [],
      "stateMutability": "nonpayable",
      "type": "function"
    },
    {
      "inputs": [
        {
          "internalType": "uint8",
          "name": "_allcation1",
          "type": "uint8"
        },
        {
          "internalType": "uint8",
          "name": "_allcation2",
          "type": "uint8"
        },
        {
          "internalType": "uint8",
          "name": "_allcation3",
          "type": "uint8"
        }
      ],
      "name": "setAllocation",
      "outputs": [],
      "stateMutability": "nonpayable",
      "type": "function"
    }
  ],
  "bytecode": "0x6000600b819055600c819055600d819055610100604052608081815260a082905260c082905260e0919091526200003b90601190600462000050565b503480156200004957600080fd5b5062000105565b600183019183908215620000d85791602002820160005b83821115620000a757835183826101000a81548160ff021916908360ff160217905550926020019260010160208160000104928301926001030262000067565b8015620000d65782816101000a81549060ff0219169055600101602081600001049283019260010302620000a7565b505b50620000e6929150620000ea565b5090565b5b80821115620000e657805460ff19168155600101620000eb565b61356580620001156000396000f3fe608060405234801561001057600080fd5b506004361061023d5760003560e01c80636575243f1161013b578063c39f49c0116100b8578063e13454161161007c578063e13454161461049b578063e45be8eb146104a3578063e8adfbc7146104ab578063f2fde38b146104b3578063fc6f9468146104c65761023d565b8063c39f49c014610452578063cfad527714610465578063d1f7dbcf1461046d578063d411b0fa14610480578063d826f88f146104935761023d565b8063850bad94116100ff578063850bad94146103f157806385dcdf1b146104045780638da5cb5b14610424578063a42206c91461042c578063ae169a501461043f5761023d565b80636575243f146103a85780636a28f828146103bb578063704b6c02146103c3578063715018a6146103d65780637c5b4a37146103de5761023d565b8063324a5562116101c95780634ed73d281161018d5780634ed73d2814610349578063552164ee1461035c57806359bcbd681461036f5780635c17623a146103825780635ea8cd12146103955761023d565b8063324a5562146102e45780633a4f6999146102f75780633ca5b2341461030c578063438209f5146103215780634e45f095146103365761023d565b80631ff68866116102105780631ff688661461029057806321ce919d146102985780632bdff851146102ab5780632c500414146102be5780632f506b20146102d15761023d565b806311e420651461024257806314c20d571461025757806319d8ac611461026a5780631a39d8ef14610288575b600080fd5b610255610250366004612bc8565b6104ce565b005b610255610265366004612d17565b610605565b6102726108e9565b60405161027f9190613472565b60405180910390f35b6102726108ef565b6102556108f5565b6102726102a6366004612a5e565b610953565b6102556102b9366004612c70565b610981565b6102556102cc366004612d17565b610cca565b6102726102df366004612d64565b610e6d565b6102556102f2366004612d9e565b610e8a565b6102ff610ed4565b60405161027f9190613489565b610314610ee4565b60405161027f9190612e46565b610329610ef3565b60405161027f9190612f6f565b6102ff610344366004612c40565b610efc565b610255610357366004612a89565b610f23565b61027261036a366004612c40565b6111af565b6102ff61037d366004612d43565b611223565b610255610390366004612dba565b611259565b6102556103a3366004612c40565b6112e0565b6102726103b6366004612d43565b61130f565b610272611328565b6102556103d1366004612a26565b61132e565b61025561137a565b6102556103ec366004612c40565b6113ee565b6102ff6103ff366004612c40565b611473565b610417610412366004612b1d565b611480565b60405161027f9190612f0a565b610314611607565b61025561043a366004612c40565b611616565b61025561044d366004612c40565b61189e565b610272610460366004612d43565b611ab4565b610272611acd565b61027261047b366004612d43565b611ad3565b61027261048e366004612c40565b611b05565b610255611e06565b610329612017565b610272612022565b610314612028565b6102556104c1366004612a26565b612037565b6103146120e2565b600054600160a81b900460ff16806104e957506104e96120f1565b806104fe5750600054600160a01b900460ff16155b6105235760405162461bcd60e51b815260040161051a906131e6565b60405180910390fd5b600054600160a81b900460ff1615801561055a576000805460ff60a01b1960ff60a81b19909116600160a81b1716600160a01b1790555b600280546001600160a01b03199081166001600160a01b038a81169190911790925560038054821689841617815560058890556004805460ff60a01b1916600160a01b60ff8a16021790921692851692909217905542600e5560408051606081018252603c815260146020820152600a918101919091526105de916001919061284b565b506105e8836120f7565b80156105fc576000805460ff60a81b191690555b50505050505050565b61060d612017565b1561062a5760405162461bcd60e51b815260040161051a906132ac565b60105460ff161561064d5760405162461bcd60e51b815260040161051a906131af565b60055482101561066f5760405162461bcd60e51b815260040161051a90613234565b60005b60048110156106c45760048054600160a01b900460ff169083908390811061069657fe5b602002015160ff1611156106bc5760405162461bcd60e51b815260040161051a90613022565b600101610672565b50600354600b54604051620dce4760ea1b81526000926001600160a01b0316916337391c00916106fc91339187918991600401612e5a565b602060405180830381600087803b15801561071657600080fd5b505af115801561072a573d6000803e3d6000fd5b505050506040513d601f19601f8201168201806040525081019061074e9190612c58565b600b546000908152600760209081526040808320805460018101825590845282842001849055338352600a90915290205490915061079057600c805460010190555b336000908152600a6020908152604082208054600181018255908352912001819055600d546107bf9084612142565b600d5542600e556107ce6128de565b6107d783611480565b905060005b600b811015610889576108408560096000600b54815260200190815260200160002060008585600b811061080c57fe5b60200201516001600160401b03166001600160401b031681526020019081526020016000205461214290919063ffffffff16565b600b805460009081526009602052604081209185908590811061085f57fe5b602090810291909101516001600160401b03168252810191909152604001600020556001016107dc565b506002546108a2906001600160a01b031633308761216e565b336001600160a01b03167fe3d4187f6ca4248660cc0ac8b8056515bac4a8132be2eca31d6d0cc170722a7e836040516108db9190613472565b60405180910390a250505050565b600e5481565b600d5481565b6004546001600160a01b0316331461091f5760405162461bcd60e51b815260040161051a90613318565b610927612017565b156109445760405162461bcd60e51b815260040161051a90613452565b6010805460ff19166001179055565b600a602052816000526040600020818154811061096c57fe5b90600052602060002001600091509150505481565b610989612017565b156109a65760405162461bcd60e51b815260040161051a906132ac565b60105460ff16156109c95760405162461bcd60e51b815260040161051a906131af565b6005548210156109eb5760405162461bcd60e51b815260040161051a90613234565b6000805b8251811015610c6b5760005b6004811015610a9657600460149054906101000a900460ff1660ff16848381518110610a2357fe5b60200260200101518260048110610a3657fe5b602002015160ff1611158015610a7257506000848381518110610a5557fe5b60200260200101518260048110610a6857fe5b602002015160ff16115b610a8e5760405162461bcd60e51b815260040161051a90613022565b6001016109fb565b5060035483516000916001600160a01b0316906337391c00903390879086908110610abd57fe5b602002602001015188600b546040518563ffffffff1660e01b8152600401610ae89493929190612e5a565b602060405180830381600087803b158015610b0257600080fd5b505af1158015610b16573d6000803e3d6000fd5b505050506040513d601f19601f82011682018060405250810190610b3a9190612c58565b600b546000908152600760209081526040808320805460018101825590845282842001849055338352600a909152902054909150610b7c57600c805460010190555b336000908152600a6020908152604082208054600181018255908352912001819055600d54610bab9086612142565b600d5542600e55610bbc8386612142565b9250610bc66128de565b610be2858481518110610bd557fe5b6020026020010151611480565b905060005b600b811015610c6057610c178760096000600b54815260200190815260200160002060008585600b811061080c57fe5b600b8054600090815260096020526040812091859085908110610c3657fe5b602090810291909101516001600160401b0316825281019190915260400160002055600101610be7565b5050506001016109ef565b50600254610c84906001600160a01b031633308461216e565b336001600160a01b03167f96c35ad1cc1743f26cb87980c38042de8082358ec6d171a7986d6e11dddfe85782604051610cbd9190613472565b60405180910390a2505050565b6004546001600160a01b03163314610cf45760405162461bcd60e51b815260040161051a90613318565b610cfc612017565b15610d195760405162461bcd60e51b815260040161051a906132ac565b60005b6004811015610d5e57818160048110610d3157fe5b602002015160ff1615610d565760405162461bcd60e51b815260040161051a9061333d565b600101610d1c565b50600354600b54604051620dce4760ea1b81526000926001600160a01b0316916337391c0091610d9691309187918991600401612e5a565b602060405180830381600087803b158015610db057600080fd5b505af1158015610dc4573d6000803e3d6000fd5b505050506040513d601f19601f82011682018060405250810190610de89190612c58565b600254909150610e03906001600160a01b031633308661216e565b600b54600090815260076020908152604082208054600181018255908352912001819055600d54610e349084612142565b600d5542600e5560405130907fe3d4187f6ca4248660cc0ac8b8056515bac4a8132be2eca31d6d0cc170722a7e90610cbd908490613472565b600960209081526000928352604080842090915290825290205481565b6004546001600160a01b03163314610eb45760405162461bcd60e51b815260040161051a90613318565b6004805460ff909216600160a01b0260ff60a01b19909216919091179055565b600454600160a01b900460ff1681565b6002546001600160a01b031681565b60105460ff1681565b600f8160048110610f0957fe5b60209182820401919006915054906101000a900460ff1681565b6000805b82518110156110e75760035483516001600160a01b0390911690636352211e90859084908110610f5357fe5b60200260200101516040518263ffffffff1660e01b8152600401610f779190613472565b60206040518083038186803b158015610f8f57600080fd5b505afa158015610fa3573d6000803e3d6000fd5b505050506040513d601f19601f82011682018060405250810190610fc79190612a42565b6001600160a01b0316336001600160a01b031614610ff75760405162461bcd60e51b815260040161051a9061312f565b60035483516001600160a01b03909116906336dbd2f99085908490811061101a57fe5b60200260200101516040518263ffffffff1660e01b815260040161103e9190613472565b60206040518083038186803b15801561105657600080fd5b505afa15801561106a573d6000803e3d6000fd5b505050506040513d601f19601f8201168201806040525081019061108e9190612ba8565b156110ab5760405162461bcd60e51b815260040161051a9061318e565b60006110c98483815181106110bc57fe5b6020026020010151611b05565b905080156110de576110db8184612142565b92505b50600101610f27565b50600354604051637431035560e01b81526001600160a01b0390911690637431035590611118908590600401612ec6565b600060405180830381600087803b15801561113257600080fd5b505af1158015611146573d6000803e3d6000fd5b50505050600081111561116a5760025461116a906001600160a01b031633836121c6565b336001600160a01b03167f6606374655494f5c0e2d6f392656e9777afd9ac5f61527d1bcad50b7e918a03e826040516111a39190613472565b60405180910390a25050565b6000600b548211156111d35760405162461bcd60e51b815260040161051a9061304f565b6111db612017565b1580156111e95750600b5482145b156111f75750600d5461121e565b6000828152600860205260408120805490919061121057fe5b906000526020600020015490505b919050565b6006602052816000526040600020816004811061123c57fe5b602081049091015460ff601f9092166101000a9004169150829050565b6004546001600160a01b031633146112835760405162461bcd60e51b815260040161051a90613318565b6064818385010160ff16106112aa5760405162461bcd60e51b815260040161051a9061338c565b6040805160608101825260ff808616825284811660208301528316918101919091526112da90600190600361284b565b50505050565b6004546001600160a01b0316331461130a5760405162461bcd60e51b815260040161051a90613318565b600555565b6007602052816000526040600020818154811061096c57fe5b600b5481565b6000546001600160a01b031633146113585760405162461bcd60e51b815260040161051a906132e3565b600480546001600160a01b0319166001600160a01b0392909216919091179055565b6000546001600160a01b031633146113a45760405162461bcd60e51b815260040161051a906132e3565b600080546040516001600160a01b03909116907f8be0079c531659141344cd1fd0a4f28419497f9722a3daafe3b4186f6b6457e0908390a3600080546001600160a01b0319169055565b6004546001600160a01b031633146114185760405162461bcd60e51b815260040161051a90613318565b60025461142f906001600160a01b031633836121c6565b336001600160a01b03167f050d1c64cc22ce461b9bc14f6b73852566da02b03c155242bc63169d1fec42aa826040516114689190613472565b60405180910390a250565b60018160038110610f0957fe5b6114886128de565b6114906128fd565b825160ff9081168252602080850151821690830152604080850151821690830152606080850151909116908201526114c66128de565b6060828101805160408086018051602080890180518a516201000094850264010000000092830266010000000000009092029190910101909601650100020003009081016001600160401b039081168b52855183518d51908702908a02010163010002009081018216948c0194909452885183518d51908702908a02010163010003009081018216978c0197909752885186518d51908702908a020101630200030090810182169a8c019a909a5288518651845190870299029890980190970101861660808a015280518a51840201610100908101871660a08b015284518b5185020161020001871660c08b015287519a518402909a0161030001861660e08a015283518151840201909101851698880198909852845197518102909701909101821661012086015291519151909402010190911661014082015292915050565b6000546001600160a01b031690565b6004546001600160a01b031633146116405760405162461bcd60e51b815260040161051a90613318565b611648612017565b156116655760405162461bcd60e51b815260040161051a90612fde565b60105460ff166116875760405162461bcd60e51b815260040161051a90613157565b6004546000908190600160a01b900460ff16436000190140825b600a8110156116be576116b5600b546111af565b506001016116a1565b5060005a905081600c5482886040516020016116dd9493929190612f90565b60408051601f19818403018152908290528051602091820120600f805460ff191687830660010160ff811691909117909155600d549198509650611729929091859185918b9101612f90565b60408051601f19818403018152908290528051602091820120600f805460ff8884066001019081166101000261ff001990921691909117909155600e54919850965061177b92859285918b9101612f90565b60408051808303601f19018152908290528051602091820120600f805460ff600189850601908116620100000262ff0000199092169190911790915590975095506117cc91849184918a9101612f7a565b60408051808303601f190181529181528151602092830120600f805460ff60018985060190811663010000000263ff00000019909216919091178255600b54600090815260069095529290932090975090955061182a91600461291b565b506118336121ea565b600b54600090815260086020526040902061184f91600461294e565b506010805460ff19169055600b546040517fa13e935b188993737b3009d62bd916dcbe9e82d8236d75981eeadf26a1460d3d9061188e90600f90612f3c565b60405180910390a2505050505050565b6003546040516331a9108f60e11b81526001600160a01b0390911690636352211e906118ce908490600401613472565b60206040518083038186803b1580156118e657600080fd5b505afa1580156118fa573d6000803e3d6000fd5b505050506040513d601f19601f8201168201806040525081019061191e9190612a42565b6001600160a01b0316336001600160a01b03161461194e5760405162461bcd60e51b815260040161051a9061312f565b6003546040516336dbd2f960e01b81526001600160a01b03909116906336dbd2f99061197e908490600401613472565b60206040518083038186803b15801561199657600080fd5b505afa1580156119aa573d6000803e3d6000fd5b505050506040513d601f19601f820116820180604052508101906119ce9190612ba8565b156119eb5760405162461bcd60e51b815260040161051a9061318e565b60006119f682611b05565b600354604051630ae169a560e41b81529192506001600160a01b03169063ae169a5090611a27908590600401613472565b600060405180830381600087803b158015611a4157600080fd5b505af1158015611a55573d6000803e3d6000fd5b505050506000811115611a7957600254611a79906001600160a01b031633836121c6565b336001600160a01b03167f34fcbac0073d7c3d388e51312faf357774904998eeb8fca628b9e6f65ee1cbf783836040516111a392919061347b565b6008602052816000526040600020818154811061096c57fe5b600c5481565b600082815260086020526040812080546005849003908110611af157fe5b906000526020600020015490505b92915050565b600354604051631bf1e00f60e01b815260009182916001600160a01b0390911690631bf1e00f90611b3a908690600401613472565b60206040518083038186803b158015611b5257600080fd5b505afa158015611b66573d6000803e3d6000fd5b505050506040513d601f19601f82011682018060405250810190611b8a9190612c58565b9050611b946128fd565b600354604051635f8e26a760e01b81526001600160a01b0390911690635f8e26a790611bc4908790600401613472565b60806040518083038186803b158015611bdc57600080fd5b505afa158015611bf0573d6000803e3d6000fd5b505050506040513d601f19601f82011682018060405250810190611c149190612b38565b9050611c1e6128fd565b600083815260066020526040808220815160808101928390529290916004918390855b825461010083900a900460ff16815260206001928301818104948501949093039092029101808411611c415790505050505050905080600060048110611c8357fe5b602002015160ff16611ca75760405162461bcd60e51b815260040161051a90612ffe565b6000805b6004811015611cf157838160048110611cc057fe5b602002015160ff16838260048110611cd457fe5b602002015160ff161415611ce9578160010191505b600101611cab565b5060006001821115611dec57600354604051637bd0606560e11b81526000916001600160a01b03169063f7a0c0ca90611d2e908b90600401613472565b60206040518083038186803b158015611d4657600080fd5b505afa158015611d5a573d6000803e3d6000fd5b505050506040513d601f19601f82011682018060405250810190611d7e9190612c58565b90506000611dc56064611dbf60018760040360038110611d9a57fe5b602081049091015460ff601f9092166101000a900416611db98b6111af565b9061244f565b90612489565b9050611de781611db9611dd88a88611ad3565b611dbf8664e8d4a5100061244f565b925050505b611dfb8164e8d4a51000612489565b979650505050505050565b6004546001600160a01b03163314611e305760405162461bcd60e51b815260040161051a90613318565b611e38612017565b611e545760405162461bcd60e51b815260040161051a906133e7565b42600e556000600c819055600d55600f805463ffffffff191690556010805460ff19169055600b805460018101909155611e8f906004611ad3565b611f22576000611ec86064611dbf6001845b602091828204019190069054906101000a900460ff1660ff16611db96001600b54036111af565b604080516080810191829052919250611f20918391601190600490826000855b825461010083900a900460ff16815260206001928301818104948501949093039092029101808411611ee857905050505050506124cb565b505b611f326001600b54036003611ad3565b611f85576000611f486064611dbf600180611ea1565b6040805160808101918290526011805460ff168252929350611f8392849260049082600160208601808411611ee857905050505050506124cb565b505b611f956001600b54036002611ad3565b611fe9576000611fac6064611dbf60016002611ea1565b6040805160808101918290526011805460ff168252929350611fe792849260049082600160208601808411611ee857905050505050506124cb565b505b600b546040517f01c3cbb0d62726ab09d163873ebf9aed99dd8dc08e57bc938f458132fd178cf690600090a2565b600f5460ff16151590565b60055481565b6003546001600160a01b031681565b6000546001600160a01b031633146120615760405162461bcd60e51b815260040161051a906132e3565b6001600160a01b0381166120875760405162461bcd60e51b815260040161051a90613086565b600080546040516001600160a01b03808516939216917f8be0079c531659141344cd1fd0a4f28419497f9722a3daafe3b4186f6b6457e091a3600080546001600160a01b0319166001600160a01b0392909216919091179055565b6004546001600160a01b031681565b303b1590565b600080546001600160a01b0319166001600160a01b03831690811782556040519091907f8be0079c531659141344cd1fd0a4f28419497f9722a3daafe3b4186f6b6457e0908290a350565b6000828201838110156121675760405162461bcd60e51b815260040161051a906130cc565b9392505050565b6112da846323b872dd60e01b85858560405160240161218f93929190612e89565b60408051601f198184030181529190526020810180516001600160e01b03166001600160e01b031990931692909217909152612603565b6121e58363a9059cbb60e01b848460405160240161218f929190612ead565b505050565b6121f26128fd565b6121fa6128de565b60408051608081019182905261224d91600f90600490826000855b825461010083900a900460ff168152602060019283018181049485019490930390920291018084116122155790505050505050611480565b600b54600081815260096020818152604080842086516001600160401b0390811686528184528286205487875285855288850151909116865281845291852054958552929091529394506122d4918560025b60200201516001600160401b03166001600160401b03168152602001908152602001600020548261214290919063ffffffff16565b600b5460009081526009602052604081209192506122f5919085600361229f565b600b546000908152600960205260408120919250612316919085600461229f565b9050600061232f61232884600461244f565b8390612692565b600b54600081815260096020818152604080842060a08b01516001600160401b031685528083529084205494845291905292935090916123719187600661229f565b600b546000908152600960205260408120919250612392919087600761229f565b600b5460009081526009602052604081209192506123b3919087600861229f565b600b54600090815260096020819052604082209293506123d6929190889061229f565b600b5460009081526009602052604081209192506123f7919087600a61229f565b9050600061242461240985600361244f565b61241e61241788600661244f565b8590612142565b90612692565b60408051608081018252600d5481526020810197909752860193909352505060608301525091505090565b60008261245e57506000611aff565b8282028284828161246b57fe5b04146121675760405162461bcd60e51b815260040161051a9061326b565b600061216783836040518060400160405280601a81526020017f536166654d6174683a206469766973696f6e206279207a65726f0000000000008152506126d4565b6124d3612017565b156124f05760405162461bcd60e51b815260040161051a906132ac565b60005b60048110156125455760048054600160a01b900460ff169083908390811061251757fe5b602002015160ff16111561253d5760405162461bcd60e51b815260040161051a90613103565b6001016124f3565b50600354600b54604051620dce4760ea1b81526000926001600160a01b0316916337391c009161257d91309187918991600401612e5a565b602060405180830381600087803b15801561259757600080fd5b505af11580156125ab573d6000803e3d6000fd5b505050506040513d601f19601f820116820180604052508101906125cf9190612c58565b600b54600090815260076020908152604082208054600181018255908352912001819055600d54909150610e349084612142565b6060612658826040518060400160405280602081526020017f5361666545524332303a206c6f772d6c6576656c2063616c6c206661696c6564815250856001600160a01b031661270b9092919063ffffffff16565b8051909150156121e557808060200190518101906126769190612ba8565b6121e55760405162461bcd60e51b815260040161051a90613408565b600061216783836040518060400160405280601e81526020017f536166654d6174683a207375627472616374696f6e206f766572666c6f770000815250612722565b600081836126f55760405162461bcd60e51b815260040161051a9190612fab565b50600083858161270157fe5b0495945050505050565b606061271a848460008561274e565b949350505050565b600081848411156127465760405162461bcd60e51b815260040161051a9190612fab565b505050900390565b606061275985612812565b6127755760405162461bcd60e51b815260040161051a906133b0565b60006060866001600160a01b031685876040516127929190612e2a565b60006040518083038185875af1925050503d80600081146127cf576040519150601f19603f3d011682016040523d82523d6000602084013e6127d4565b606091505b509150915081156127e857915061271a9050565b8051156127f85780518082602001fd5b8360405162461bcd60e51b815260040161051a9190612fab565b6000813f7fc5d2460186f7233c927e7db2dcc703c0e500b653ca82273b7bfad8045d85a47081811480159061271a575050151592915050565b6001830191839082156128ce5791602002820160005b8382111561289f57835183826101000a81548160ff021916908360ff1602179055509260200192600101602081600001049283019260010302612861565b80156128cc5782816101000a81549060ff021916905560010160208160000104928301926001030261289f565b505b506128da929150612995565b5090565b604051806101600160405280600b906020820280368337509192915050565b60405180608001604052806004906020820280368337509192915050565b6001830191839082156128ce5791601f016020900482015b828111156128ce578254825591600101919060010190612933565b828054828255906000526020600020908101928215612989579160200282015b8281111561298957825182559160200191906001019061296e565b506128da9291506129ae565b5b808211156128da57805460ff19168155600101612996565b5b808211156128da57600081556001016129af565b600082601f8301126129d3578081fd5b6129dd6080613497565b90508082846080850111156129f157600080fd5b60005b6004811015612a1d578135612a0881613520565b835260209283019291909101906001016129f4565b50505092915050565b600060208284031215612a37578081fd5b813561216781613508565b600060208284031215612a53578081fd5b815161216781613508565b60008060408385031215612a70578081fd5b8235612a7b81613508565b946020939093013593505050565b60006020808385031215612a9b578182fd5b82356001600160401b03811115612ab0578283fd5b8301601f81018513612ac0578283fd5b8035612ad3612ace826134bd565b613497565b8181528381019083850185840285018601891015612aef578687fd5b8694505b83851015612b11578035835260019490940193918501918501612af3565b50979650505050505050565b600060808284031215612b2e578081fd5b61216783836129c3565b600060808284031215612b49578081fd5b82601f830112612b57578081fd5b612b616080613497565b808385608086011115612b72578384fd5b835b6004811015612b9d578151612b8881613520565b84526020938401939190910190600101612b74565b509095945050505050565b600060208284031215612bb9578081fd5b81518015158114612167578182fd5b60008060008060008060c08789031215612be0578182fd5b8635612beb81613508565b95506020870135612bfb81613508565b9450604087013593506060870135612c1281613520565b92506080870135612c2281613508565b915060a0870135612c3281613508565b809150509295509295509295565b600060208284031215612c51578081fd5b5035919050565b600060208284031215612c69578081fd5b5051919050565b60008060408385031215612c82578182fd5b823591506020808401356001600160401b03811115612c9f578283fd5b8401601f81018613612caf578283fd5b8035612cbd612ace826134bd565b818152838101908385016080808502860187018b1015612cdb578788fd5b8795505b84861015612d0757612cf18b836129c3565b8452600195909501949286019290810190612cdf565b5096999098509650505050505050565b60008060a08385031215612d29578182fd5b82359150612d3a84602085016129c3565b90509250929050565b60008060408385031215612d55578182fd5b50508035926020909101359150565b60008060408385031215612d76578182fd5b8235915060208301356001600160401b0381168114612d93578182fd5b809150509250929050565b600060208284031215612daf578081fd5b813561216781613520565b600080600060608486031215612dce578081fd5b8335612dd981613520565b92506020840135612de981613520565b91506040840135612df981613520565b809150509250925092565b8060005b60048110156112da57815160ff16845260209384019390910190600101612e08565b60008251612e3c8184602087016134dc565b9190910192915050565b6001600160a01b0391909116815260200190565b6001600160a01b038516815260e08101612e776020830186612e04565b60a082019390935260c0015292915050565b6001600160a01b039384168152919092166020820152604081019190915260600190565b6001600160a01b03929092168252602082015260400190565b6020808252825182820181905260009190848201906040850190845b81811015612efe57835183529284019291840191600101612ee2565b50909695505050505050565b6101608101818360005b600b811015612a1d5781516001600160401b0316835260209283019290910190600101612f14565b905460ff8082168352600882901c81166020840152601082901c8116604084015260189190911c16606082015260800190565b901515815260200190565b9283526020830191909152604082015260600190565b93845260208401929092526040830152606082015260800190565b6000602082528251806020840152612fca8160408501602087016134dc565b601f01601f19169190910160400192915050565b60208082526006908201526572657365743f60d01b604082015260600190565b6020808252600a90820152691b9bdd08191c985dd95960b21b604082015260600190565b602080825260139082015272657863656564206e756d6265722073636f706560681b604082015260600190565b60208082526019908201527f5f6973737565496e646578203c3d206973737565496e64657800000000000000604082015260600190565b60208082526026908201527f4f776e61626c653a206e6577206f776e657220697320746865207a65726f206160408201526564647265737360d01b606082015260800190565b6020808252601b908201527f536166654d6174683a206164646974696f6e206f766572666c6f770000000000604082015260600190565b60208082526012908201527165786365656420746865206d6178696d756d60701b604082015260600190565b6020808252600e908201526d3737ba10333937b69037bbb732b960911b604082015260600190565b60208082526019908201527f656e7465722064726177696e6720706861736520666972737400000000000000604082015260600190565b60208082526007908201526618db185a5b595960ca1b604082015260600190565b60208082526018908201527f64726177696e672c2063616e206e6f7420627579206e6f770000000000000000604082015260600190565b6020808252602e908201527f496e697469616c697a61626c653a20636f6e747261637420697320616c72656160408201526d191e481a5b9a5d1a585b1a5e995960921b606082015260800190565b60208082526019908201527f7072696365206d7573742061626f7665206d696e507269636500000000000000604082015260600190565b60208082526021908201527f536166654d6174683a206d756c7469706c69636174696f6e206f766572666c6f6040820152607760f81b606082015260800190565b60208082526017908201527f6472617765642c2063616e206e6f7420627579206e6f77000000000000000000604082015260600190565b6020808252818101527f4f776e61626c653a2063616c6c6572206973206e6f7420746865206f776e6572604082015260600190565b6020808252600b908201526a61646d696e3a207775743f60a81b604082015260600190565b6020808252602f908201527f4c6f74746572793a3a696e6a6563745265776172643a3a20616363657074206f60408201526e1b9b1e481b9d5b1b081d1a58dad95d608a1b606082015260800190565b6020808252600a90820152690657863656564203130360b41b604082015260600190565b6020808252601d908201527f416464726573733a2063616c6c20746f206e6f6e2d636f6e7472616374000000604082015260600190565b6020808252600790820152666472617765643f60c81b604082015260600190565b6020808252602a908201527f5361666545524332303a204552433230206f7065726174696f6e20646964206e6040820152691bdd081cdd58d8d9595960b21b606082015260800190565b602080825260069082015265191c985dd95960d21b604082015260600190565b90815260200190565b918252602082015260400190565b60ff91909116815260200190565b6040518181016001600160401b03811182821017156134b557600080fd5b604052919050565b60006001600160401b038211156134d2578081fd5b5060209081020190565b60005b838110156134f75781810151838201526020016134df565b838111156112da5750506000910152565b6001600160a01b038116811461351d57600080fd5b50565b60ff8116811461351d57600080fdfea264697066735822122093958947c011f3ee4e09884c5d1a691b33c5542b6de8a167f79b4404a128ffcb64736f6c634300060c0033",
  "immutableReferences": {},
  "source": "// SPDX-License-Identifier: MIT\n\npragma solidity 0.6.12;\npragma experimental ABIEncoderV2;\n\nimport \"./LotteryNFT.sol\";\nimport \"./token/ERC20/IERC20.sol\";\nimport \"./token/ERC20/SafeERC20.sol\";\nimport \"./LotteryOwnable.sol\";\nimport \"./math/SafeMath.sol\";\nimport \"./proxy/Initializable.sol\";\n\n// 4 numbers\ncontract Lottery is LotteryOwnable, Initializable {\n    using SafeMath for uint256;\n    using SafeMath for uint8;\n    using SafeERC20 for IERC20;\n\n    uint8 constant keyLengthForEachBuy = 11;\n    // Allocation for first/sencond/third reward\n    uint8[3] public allocation;\n    // The TOKEN to buy lottery\n    IERC20 public busd;\n    // The Lottery NFT for tickets\n    LotteryNFT public lotteryNFT;\n    // adminAddress\n    address public adminAddress;\n    // maxNumber\n    uint8 public maxNumber;\n    // minPrice, if decimal is not 18, please reset it\n    uint256 public minPrice;\n\n    // =================================\n\n    // issueId => winningNumbers[numbers]\n    mapping(uint256 => uint8[4]) public historyNumbers;\n    // issueId => [tokenId]\n    mapping(uint256 => uint256[]) public lotteryInfo;\n    // issueId => [totalAmount, firstMatchAmount, secondMatchingAmount, thirdMatchingAmount]\n    mapping(uint256 => uint256[]) public historyAmount;\n    // issueId => trickyNumber => buyAmountSum\n    mapping(uint256 => mapping(uint64 => uint256)) public userBuyAmountSum;\n    // address => [tokenId]\n    mapping(address => uint256[]) public userInfo;\n\n    uint256 public issueIndex = 0;\n    uint256 public totalAddresses = 0;\n    uint256 public totalAmount = 0;\n    uint256 public lastTimestamp;\n\n    uint8[4] public winningNumbers;\n\n    // default false\n    bool public drawingPhase;\n\n    // =================================\n\n    event Buy(address indexed user, uint256 tokenId);\n    event Drawing(uint256 indexed issueIndex, uint8[4] winningNumbers);\n    event Claim(address indexed user, uint256 tokenid, uint256 amount);\n    event DevWithdraw(address indexed user, uint256 amount);\n    event Reset(uint256 indexed issueIndex);\n    event MultiClaim(address indexed user, uint256 amount);\n    event MultiBuy(address indexed user, uint256 amount);\n\n    constructor() public {}\n\n    function initialize(\n        IERC20 _busd,\n        LotteryNFT _lottery,\n        uint256 _minPrice,\n        uint8 _maxNumber,\n        address _owner,\n        address _adminAddress\n    ) public initializer {\n        busd = _busd;\n        lotteryNFT = _lottery;\n        minPrice = _minPrice;\n        maxNumber = _maxNumber;\n        adminAddress = _adminAddress;\n        lastTimestamp = block.timestamp;\n        allocation = [60, 20, 10];\n        initOwner(_owner);\n    }\n\n    uint8[4] private nullTicket = [0, 0, 0, 0];\n\n    modifier onlyAdmin() {\n        require(msg.sender == adminAddress, \"admin: wut?\");\n        _;\n    }\n\n    modifier inDrawingPhase() {\n        require(!drawed(), \"drawed, can not buy now\");\n        require(!drawingPhase, \"drawing, can not buy now\");\n        _;\n    }\n\n    function drawed() public view returns (bool) {\n        return winningNumbers[0] != 0;\n    }\n\n    function reset() external onlyAdmin {\n        require(drawed(), \"drawed?\");\n        lastTimestamp = block.timestamp;\n        totalAddresses = 0;\n        totalAmount = 0;\n        winningNumbers[0] = 0;\n        winningNumbers[1] = 0;\n        winningNumbers[2] = 0;\n        winningNumbers[3] = 0;\n        drawingPhase = false;\n        issueIndex = issueIndex + 1;\n        if (getMatchingRewardAmount(issueIndex - 1, 4) == 0) {\n            uint256 amount =\n                getTotalRewards(issueIndex - 1).mul(allocation[0]).div(100);\n            internalBuy(amount, nullTicket);\n        }\n        if (getMatchingRewardAmount(issueIndex - 1, 3) == 0) {\n            uint256 amount =\n                getTotalRewards(issueIndex - 1).mul(allocation[1]).div(100);\n            internalBuy(amount, nullTicket);\n        }\n        if (getMatchingRewardAmount(issueIndex - 1, 2) == 0) {\n            uint256 amount =\n                getTotalRewards(issueIndex - 1).mul(allocation[2]).div(100);\n            internalBuy(amount, nullTicket);\n        }\n        emit Reset(issueIndex);\n    }\n\n    function enterDrawingPhase() external onlyAdmin {\n        require(!drawed(), \"drawed\");\n        drawingPhase = true;\n    }\n\n    // add externalRandomNumber to prevent node validators exploiting\n    function drawing(uint256 _externalRandomNumber) external onlyAdmin {\n        require(!drawed(), \"reset?\");\n        require(drawingPhase, \"enter drawing phase first\");\n        bytes32 _structHash;\n        uint256 _randomNumber;\n        uint8 _maxNumber = maxNumber;\n        bytes32 _blockhash = blockhash(block.number - 1);\n\n        // waste some gas fee here\n        for (uint256 i = 0; i < 10; i++) {\n            getTotalRewards(issueIndex);\n        }\n        uint256 gasLeft = gasleft();\n\n        // 1\n        _structHash = keccak256(\n            abi.encode(\n                _blockhash,\n                totalAddresses,\n                gasLeft,\n                _externalRandomNumber\n            )\n        );\n        _randomNumber = uint256(_structHash);\n        assembly {\n            _randomNumber := add(mod(_randomNumber, _maxNumber), 1)\n        }\n        winningNumbers[0] = uint8(_randomNumber);\n\n        // 2\n        _structHash = keccak256(\n            abi.encode(totalAmount, _blockhash, gasLeft, _externalRandomNumber)\n        );\n        _randomNumber = uint256(_structHash);\n        assembly {\n            _randomNumber := add(mod(_randomNumber, _maxNumber), 1)\n        }\n        winningNumbers[1] = uint8(_randomNumber);\n\n        // 3\n        _structHash = keccak256(\n            abi.encode(\n                _blockhash,\n                lastTimestamp,\n                gasLeft,\n                _externalRandomNumber\n            )\n        );\n        _randomNumber = uint256(_structHash);\n        assembly {\n            _randomNumber := add(mod(_randomNumber, _maxNumber), 1)\n        }\n        winningNumbers[2] = uint8(_randomNumber);\n\n        // 4\n        _structHash = keccak256(\n            abi.encode(_blockhash, gasLeft, _externalRandomNumber)\n        );\n        _randomNumber = uint256(_structHash);\n        assembly {\n            _randomNumber := add(mod(_randomNumber, _maxNumber), 1)\n        }\n        winningNumbers[3] = uint8(_randomNumber);\n\n        historyNumbers[issueIndex] = winningNumbers;\n        historyAmount[issueIndex] = calculateMatchingRewardAmount();\n        drawingPhase = false;\n        emit Drawing(issueIndex, winningNumbers);\n    }\n\n    function internalBuy(uint256 _price, uint8[4] memory _numbers) internal {\n        require(!drawed(), \"drawed, can not buy now\");\n        for (uint256 i = 0; i < 4; i++) {\n            require(_numbers[i] <= maxNumber, \"exceed the maximum\");\n        }\n        uint256 tokenId =\n            lotteryNFT.newLotteryItem(\n                address(this),\n                _numbers,\n                _price,\n                issueIndex\n            );\n        lotteryInfo[issueIndex].push(tokenId);\n        totalAmount = totalAmount.add(_price);\n        lastTimestamp = block.timestamp;\n        emit Buy(address(this), tokenId);\n    }\n\n    function injectReward(uint256 _price, uint8[4] memory _numbers)\n        external\n        onlyAdmin\n    {\n        require(!drawed(), \"drawed, can not buy now\");\n        for (uint256 i = 0; i < 4; i++) {\n            require(\n                _numbers[i] == 0,\n                \"Lottery::injectReward:: accept only null ticket\"\n            );\n        }\n        uint256 tokenId =\n            lotteryNFT.newLotteryItem(\n                address(this),\n                _numbers,\n                _price,\n                issueIndex\n            );\n        busd.safeTransferFrom(address(msg.sender), address(this), _price);\n        lotteryInfo[issueIndex].push(tokenId);\n        totalAmount = totalAmount.add(_price);\n        lastTimestamp = block.timestamp;\n        emit Buy(address(this), tokenId);\n    }\n\n    function buy(uint256 _price, uint8[4] memory _numbers)\n        external\n        inDrawingPhase\n    {\n        require(_price >= minPrice, \"price must above minPrice\");\n        for (uint256 i = 0; i < 4; i++) {\n            require(_numbers[i] <= maxNumber, \"exceed number scope\");\n        }\n        uint256 tokenId =\n            lotteryNFT.newLotteryItem(msg.sender, _numbers, _price, issueIndex);\n        lotteryInfo[issueIndex].push(tokenId);\n        if (userInfo[msg.sender].length == 0) {\n            totalAddresses = totalAddresses + 1;\n        }\n        userInfo[msg.sender].push(tokenId);\n        totalAmount = totalAmount.add(_price);\n        lastTimestamp = block.timestamp;\n        uint64[keyLengthForEachBuy] memory userNumberIndex =\n            generateNumberIndexKey(_numbers);\n        for (uint256 i = 0; i < keyLengthForEachBuy; i++) {\n            userBuyAmountSum[issueIndex][userNumberIndex[i]] = userBuyAmountSum[\n                issueIndex\n            ][userNumberIndex[i]]\n                .add(_price);\n        }\n        busd.safeTransferFrom(address(msg.sender), address(this), _price);\n        emit Buy(msg.sender, tokenId);\n    }\n\n    function multiBuy(uint256 _price, uint8[4][] memory _numbers)\n        external\n        inDrawingPhase\n    {\n        require(_price >= minPrice, \"price must above minPrice\");\n        uint256 totalPrice = 0;\n        for (uint256 i = 0; i < _numbers.length; i++) {\n            for (uint256 j = 0; j < 4; j++) {\n                require(\n                    _numbers[i][j] <= maxNumber && _numbers[i][j] > 0,\n                    \"exceed number scope\"\n                );\n            }\n            uint256 tokenId =\n                lotteryNFT.newLotteryItem(\n                    msg.sender,\n                    _numbers[i],\n                    _price,\n                    issueIndex\n                );\n            lotteryInfo[issueIndex].push(tokenId);\n            if (userInfo[msg.sender].length == 0) {\n                totalAddresses = totalAddresses + 1;\n            }\n            userInfo[msg.sender].push(tokenId);\n            totalAmount = totalAmount.add(_price);\n            lastTimestamp = block.timestamp;\n            totalPrice = totalPrice.add(_price);\n            uint64[keyLengthForEachBuy] memory numberIndexKey =\n                generateNumberIndexKey(_numbers[i]);\n            for (uint256 k = 0; k < keyLengthForEachBuy; k++) {\n                userBuyAmountSum[issueIndex][\n                    numberIndexKey[k]\n                ] = userBuyAmountSum[issueIndex][numberIndexKey[k]].add(_price);\n            }\n        }\n        busd.safeTransferFrom(address(msg.sender), address(this), totalPrice);\n        emit MultiBuy(msg.sender, totalPrice);\n    }\n\n    function claimReward(uint256 _tokenId) external {\n        require(msg.sender == lotteryNFT.ownerOf(_tokenId), \"not from owner\");\n        require(!lotteryNFT.getClaimStatus(_tokenId), \"claimed\");\n        uint256 reward = getRewardView(_tokenId);\n        lotteryNFT.claimReward(_tokenId);\n        if (reward > 0) {\n            busd.safeTransfer(address(msg.sender), reward);\n        }\n        emit Claim(msg.sender, _tokenId, reward);\n    }\n\n    function multiClaim(uint256[] memory _tickets) external {\n        uint256 totalReward = 0;\n        for (uint256 i = 0; i < _tickets.length; i++) {\n            require(\n                msg.sender == lotteryNFT.ownerOf(_tickets[i]),\n                \"not from owner\"\n            );\n            require(!lotteryNFT.getClaimStatus(_tickets[i]), \"claimed\");\n            uint256 reward = getRewardView(_tickets[i]);\n            if (reward > 0) {\n                totalReward = reward.add(totalReward);\n            }\n        }\n        lotteryNFT.multiClaimReward(_tickets);\n        if (totalReward > 0) {\n            busd.safeTransfer(address(msg.sender), totalReward);\n        }\n        emit MultiClaim(msg.sender, totalReward);\n    }\n\n    function generateNumberIndexKey(uint8[4] memory number)\n        public\n        pure\n        returns (uint64[keyLengthForEachBuy] memory)\n    {\n        uint64[4] memory tempNumber;\n        tempNumber[0] = uint64(number[0]);\n        tempNumber[1] = uint64(number[1]);\n        tempNumber[2] = uint64(number[2]);\n        tempNumber[3] = uint64(number[3]);\n\n        uint64[keyLengthForEachBuy] memory result;\n        result[0] =\n            tempNumber[0] *\n            256 *\n            256 *\n            256 *\n            256 *\n            256 *\n            256 +\n            1 *\n            256 *\n            256 *\n            256 *\n            256 *\n            256 +\n            tempNumber[1] *\n            256 *\n            256 *\n            256 *\n            256 +\n            2 *\n            256 *\n            256 *\n            256 +\n            tempNumber[2] *\n            256 *\n            256 +\n            3 *\n            256 +\n            tempNumber[3];\n\n        result[1] =\n            tempNumber[0] *\n            256 *\n            256 *\n            256 *\n            256 +\n            1 *\n            256 *\n            256 *\n            256 +\n            tempNumber[1] *\n            256 *\n            256 +\n            2 *\n            256 +\n            tempNumber[2];\n        result[2] =\n            tempNumber[0] *\n            256 *\n            256 *\n            256 *\n            256 +\n            1 *\n            256 *\n            256 *\n            256 +\n            tempNumber[1] *\n            256 *\n            256 +\n            3 *\n            256 +\n            tempNumber[3];\n        result[3] =\n            tempNumber[0] *\n            256 *\n            256 *\n            256 *\n            256 +\n            2 *\n            256 *\n            256 *\n            256 +\n            tempNumber[2] *\n            256 *\n            256 +\n            3 *\n            256 +\n            tempNumber[3];\n        result[4] =\n            1 *\n            256 *\n            256 *\n            256 *\n            256 *\n            256 +\n            tempNumber[1] *\n            256 *\n            256 *\n            256 *\n            256 +\n            2 *\n            256 *\n            256 *\n            256 +\n            tempNumber[2] *\n            256 *\n            256 +\n            3 *\n            256 +\n            tempNumber[3];\n\n        result[5] = tempNumber[0] * 256 * 256 + 1 * 256 + tempNumber[1];\n        result[6] = tempNumber[0] * 256 * 256 + 2 * 256 + tempNumber[2];\n        result[7] = tempNumber[0] * 256 * 256 + 3 * 256 + tempNumber[3];\n        result[8] =\n            1 *\n            256 *\n            256 *\n            256 +\n            tempNumber[1] *\n            256 *\n            256 +\n            2 *\n            256 +\n            tempNumber[2];\n        result[9] =\n            1 *\n            256 *\n            256 *\n            256 +\n            tempNumber[1] *\n            256 *\n            256 +\n            3 *\n            256 +\n            tempNumber[3];\n        result[10] =\n            2 *\n            256 *\n            256 *\n            256 +\n            tempNumber[2] *\n            256 *\n            256 +\n            3 *\n            256 +\n            tempNumber[3];\n\n        return result;\n    }\n\n    function calculateMatchingRewardAmount()\n        internal\n        view\n        returns (uint256[4] memory)\n    {\n        uint64[keyLengthForEachBuy] memory numberIndexKey =\n            generateNumberIndexKey(winningNumbers);\n\n        uint256 totalAmout1 = userBuyAmountSum[issueIndex][numberIndexKey[0]];\n\n        uint256 sumForTotalAmout2 =\n            userBuyAmountSum[issueIndex][numberIndexKey[1]];\n        sumForTotalAmout2 = sumForTotalAmout2.add(\n            userBuyAmountSum[issueIndex][numberIndexKey[2]]\n        );\n        sumForTotalAmout2 = sumForTotalAmout2.add(\n            userBuyAmountSum[issueIndex][numberIndexKey[3]]\n        );\n        sumForTotalAmout2 = sumForTotalAmout2.add(\n            userBuyAmountSum[issueIndex][numberIndexKey[4]]\n        );\n\n        uint256 totalAmout2 = sumForTotalAmout2.sub(totalAmout1.mul(4));\n\n        uint256 sumForTotalAmout3 =\n            userBuyAmountSum[issueIndex][numberIndexKey[5]];\n        sumForTotalAmout3 = sumForTotalAmout3.add(\n            userBuyAmountSum[issueIndex][numberIndexKey[6]]\n        );\n        sumForTotalAmout3 = sumForTotalAmout3.add(\n            userBuyAmountSum[issueIndex][numberIndexKey[7]]\n        );\n        sumForTotalAmout3 = sumForTotalAmout3.add(\n            userBuyAmountSum[issueIndex][numberIndexKey[8]]\n        );\n        sumForTotalAmout3 = sumForTotalAmout3.add(\n            userBuyAmountSum[issueIndex][numberIndexKey[9]]\n        );\n        sumForTotalAmout3 = sumForTotalAmout3.add(\n            userBuyAmountSum[issueIndex][numberIndexKey[10]]\n        );\n\n        uint256 totalAmout3 =\n            sumForTotalAmout3.add(totalAmout1.mul(6)).sub(\n                sumForTotalAmout2.mul(3)\n            );\n\n        return [totalAmount, totalAmout1, totalAmout2, totalAmout3];\n    }\n\n    function getMatchingRewardAmount(\n        uint256 _issueIndex,\n        uint256 _matchingNumber\n    ) public view returns (uint256) {\n        return historyAmount[_issueIndex][5 - _matchingNumber];\n    }\n\n    function getTotalRewards(uint256 _issueIndex)\n        public\n        view\n        returns (uint256)\n    {\n        require(_issueIndex <= issueIndex, \"_issueIndex <= issueIndex\");\n\n        if (!drawed() && _issueIndex == issueIndex) {\n            return totalAmount;\n        }\n        return historyAmount[_issueIndex][0];\n    }\n\n    function getRewardView(uint256 _tokenId) public view returns (uint256) {\n        uint256 _issueIndex = lotteryNFT.getLotteryIssueIndex(_tokenId);\n        uint8[4] memory lotteryNumbers = lotteryNFT.getLotteryNumbers(_tokenId);\n        uint8[4] memory _winningNumbers = historyNumbers[_issueIndex];\n        require(_winningNumbers[0] != 0, \"not drawed\");\n\n        uint256 matchingNumber = 0;\n        for (uint256 i = 0; i < lotteryNumbers.length; i++) {\n            if (_winningNumbers[i] == lotteryNumbers[i]) {\n                matchingNumber = matchingNumber + 1;\n            }\n        }\n        uint256 reward = 0;\n        if (matchingNumber > 1) {\n            uint256 amount = lotteryNFT.getLotteryAmount(_tokenId);\n            uint256 poolAmount =\n                getTotalRewards(_issueIndex)\n                    .mul(allocation[4 - matchingNumber])\n                    .div(100);\n            reward = amount\n                .mul(1e12)\n                .div(getMatchingRewardAmount(_issueIndex, matchingNumber))\n                .mul(poolAmount);\n        }\n        return reward.div(1e12);\n    }\n\n    // Update admin address by the previous dev.\n    function setAdmin(address _adminAddress) public onlyOwner {\n        adminAddress = _adminAddress;\n    }\n\n    // Withdraw without caring about rewards. EMERGENCY ONLY.\n    function adminWithdraw(uint256 _amount) public onlyAdmin {\n        busd.safeTransfer(address(msg.sender), _amount);\n        emit DevWithdraw(msg.sender, _amount);\n    }\n\n    // Set the minimum price for one ticket\n    function setMinPrice(uint256 _price) external onlyAdmin {\n        minPrice = _price;\n    }\n\n    // Set the minimum price for one ticket\n    function setMaxNumber(uint8 _maxNumber) external onlyAdmin {\n        maxNumber = _maxNumber;\n    }\n\n    // Set the allocation for one reward\n    function setAllocation(\n        uint8 _allcation1,\n        uint8 _allcation2,\n        uint8 _allcation3\n    ) external onlyAdmin {\n        require(_allcation1 + _allcation2 + _allcation3 < 100, \"exceed 100\");\n        allocation = [_allcation1, _allcation2, _allcation3];\n    }\n}\n",
  "sourcePath": "/Users/thanwa/git/token-lottery/contracts/Lottery.sol",
  "compiler": {
    "name": "solc",
    "version": "0.6.12+commit.27d51765.Emscripten.clang"
  },
  "schemaVersion": "3.3.4",
  "updatedAt": "2021-04-11T16:06:40.151Z",
  "networkType": "ethereum",
  "devdoc": {
    "kind": "dev",
    "methods": {
      "owner()": {
        "details": "Returns the address of the current owner."
      },
      "renounceOwnership()": {
        "details": "Leaves the contract without owner. It will not be possible to call `onlyOwner` functions anymore. Can only be called by the current owner. NOTE: Renouncing ownership will leave the contract without an owner, thereby removing any functionality that is only available to the owner."
      },
      "transferOwnership(address)": {
        "details": "Transfers ownership of the contract to a new account (`newOwner`). Can only be called by the current owner."
      }
    },
    "version": 1
  },
  "userdoc": {
    "kind": "user",
    "methods": {},
    "version": 1
  }
}