{
  "contractName": "Lottery",
  "abi": [
    {
      "inputs": [],
      "stateMutability": "nonpayable",
      "type": "constructor"
    },
    {
      "anonymous": false,
      "inputs": [
        {
          "indexed": true,
          "internalType": "address",
          "name": "user",
          "type": "address"
        },
        {
          "indexed": false,
          "internalType": "uint256",
          "name": "tokenId",
          "type": "uint256"
        }
      ],
      "name": "Buy",
      "type": "event"
    },
    {
      "anonymous": false,
      "inputs": [
        {
          "indexed": true,
          "internalType": "address",
          "name": "user",
          "type": "address"
        },
        {
          "indexed": false,
          "internalType": "uint256",
          "name": "tokenid",
          "type": "uint256"
        },
        {
          "indexed": false,
          "internalType": "uint256",
          "name": "amount",
          "type": "uint256"
        }
      ],
      "name": "Claim",
      "type": "event"
    },
    {
      "anonymous": false,
      "inputs": [
        {
          "indexed": true,
          "internalType": "address",
          "name": "user",
          "type": "address"
        },
        {
          "indexed": false,
          "internalType": "uint256",
          "name": "amount",
          "type": "uint256"
        }
      ],
      "name": "DevWithdraw",
      "type": "event"
    },
    {
      "anonymous": false,
      "inputs": [
        {
          "indexed": true,
          "internalType": "uint256",
          "name": "issueIndex",
          "type": "uint256"
        },
        {
          "indexed": false,
          "internalType": "uint8[4]",
          "name": "winningNumbers",
          "type": "uint8[4]"
        }
      ],
      "name": "Drawing",
      "type": "event"
    },
    {
      "anonymous": false,
      "inputs": [
        {
          "indexed": true,
          "internalType": "address",
          "name": "user",
          "type": "address"
        },
        {
          "indexed": false,
          "internalType": "uint256",
          "name": "amount",
          "type": "uint256"
        }
      ],
      "name": "MultiBuy",
      "type": "event"
    },
    {
      "anonymous": false,
      "inputs": [
        {
          "indexed": true,
          "internalType": "address",
          "name": "user",
          "type": "address"
        },
        {
          "indexed": false,
          "internalType": "uint256",
          "name": "amount",
          "type": "uint256"
        }
      ],
      "name": "MultiClaim",
      "type": "event"
    },
    {
      "anonymous": false,
      "inputs": [
        {
          "indexed": true,
          "internalType": "address",
          "name": "previousOwner",
          "type": "address"
        },
        {
          "indexed": true,
          "internalType": "address",
          "name": "newOwner",
          "type": "address"
        }
      ],
      "name": "OwnershipTransferred",
      "type": "event"
    },
    {
      "anonymous": false,
      "inputs": [
        {
          "indexed": true,
          "internalType": "uint256",
          "name": "issueIndex",
          "type": "uint256"
        }
      ],
      "name": "Reset",
      "type": "event"
    },
    {
      "inputs": [],
      "name": "adminAddress",
      "outputs": [
        {
          "internalType": "address",
          "name": "",
          "type": "address"
        }
      ],
      "stateMutability": "view",
      "type": "function",
      "constant": true
    },
    {
      "inputs": [
        {
          "internalType": "uint256",
          "name": "",
          "type": "uint256"
        }
      ],
      "name": "allocation",
      "outputs": [
        {
          "internalType": "uint8",
          "name": "",
          "type": "uint8"
        }
      ],
      "stateMutability": "view",
      "type": "function",
      "constant": true
    },
    {
      "inputs": [],
      "name": "busd",
      "outputs": [
        {
          "internalType": "contract IERC20",
          "name": "",
          "type": "address"
        }
      ],
      "stateMutability": "view",
      "type": "function",
      "constant": true
    },
    {
      "inputs": [],
      "name": "devAddress",
      "outputs": [
        {
          "internalType": "address",
          "name": "",
          "type": "address"
        }
      ],
      "stateMutability": "view",
      "type": "function",
      "constant": true
    },
    {
      "inputs": [],
      "name": "drawingPhase",
      "outputs": [
        {
          "internalType": "bool",
          "name": "",
          "type": "bool"
        }
      ],
      "stateMutability": "view",
      "type": "function",
      "constant": true
    },
    {
      "inputs": [
        {
          "internalType": "uint256",
          "name": "",
          "type": "uint256"
        },
        {
          "internalType": "uint256",
          "name": "",
          "type": "uint256"
        }
      ],
      "name": "historyAmount",
      "outputs": [
        {
          "internalType": "uint256",
          "name": "",
          "type": "uint256"
        }
      ],
      "stateMutability": "view",
      "type": "function",
      "constant": true
    },
    {
      "inputs": [
        {
          "internalType": "uint256",
          "name": "",
          "type": "uint256"
        },
        {
          "internalType": "uint256",
          "name": "",
          "type": "uint256"
        }
      ],
      "name": "historyNumbers",
      "outputs": [
        {
          "internalType": "uint8",
          "name": "",
          "type": "uint8"
        }
      ],
      "stateMutability": "view",
      "type": "function",
      "constant": true
    },
    {
      "inputs": [],
      "name": "issueIndex",
      "outputs": [
        {
          "internalType": "uint256",
          "name": "",
          "type": "uint256"
        }
      ],
      "stateMutability": "view",
      "type": "function",
      "constant": true
    },
    {
      "inputs": [],
      "name": "lastTimestamp",
      "outputs": [
        {
          "internalType": "uint256",
          "name": "",
          "type": "uint256"
        }
      ],
      "stateMutability": "view",
      "type": "function",
      "constant": true
    },
    {
      "inputs": [
        {
          "internalType": "uint256",
          "name": "",
          "type": "uint256"
        },
        {
          "internalType": "uint256",
          "name": "",
          "type": "uint256"
        }
      ],
      "name": "lotteryInfo",
      "outputs": [
        {
          "internalType": "uint256",
          "name": "",
          "type": "uint256"
        }
      ],
      "stateMutability": "view",
      "type": "function",
      "constant": true
    },
    {
      "inputs": [],
      "name": "lotteryNFT",
      "outputs": [
        {
          "internalType": "contract LotteryNFT",
          "name": "",
          "type": "address"
        }
      ],
      "stateMutability": "view",
      "type": "function",
      "constant": true
    },
    {
      "inputs": [],
      "name": "maxNumber",
      "outputs": [
        {
          "internalType": "uint8",
          "name": "",
          "type": "uint8"
        }
      ],
      "stateMutability": "view",
      "type": "function",
      "constant": true
    },
    {
      "inputs": [],
      "name": "minPrice",
      "outputs": [
        {
          "internalType": "uint256",
          "name": "",
          "type": "uint256"
        }
      ],
      "stateMutability": "view",
      "type": "function",
      "constant": true
    },
    {
      "inputs": [],
      "name": "owner",
      "outputs": [
        {
          "internalType": "address",
          "name": "",
          "type": "address"
        }
      ],
      "stateMutability": "view",
      "type": "function",
      "constant": true
    },
    {
      "inputs": [],
      "name": "renounceOwnership",
      "outputs": [],
      "stateMutability": "nonpayable",
      "type": "function"
    },
    {
      "inputs": [],
      "name": "totalAddresses",
      "outputs": [
        {
          "internalType": "uint256",
          "name": "",
          "type": "uint256"
        }
      ],
      "stateMutability": "view",
      "type": "function",
      "constant": true
    },
    {
      "inputs": [],
      "name": "totalAmount",
      "outputs": [
        {
          "internalType": "uint256",
          "name": "",
          "type": "uint256"
        }
      ],
      "stateMutability": "view",
      "type": "function",
      "constant": true
    },
    {
      "inputs": [
        {
          "internalType": "address",
          "name": "newOwner",
          "type": "address"
        }
      ],
      "name": "transferOwnership",
      "outputs": [],
      "stateMutability": "nonpayable",
      "type": "function"
    },
    {
      "inputs": [
        {
          "internalType": "uint256",
          "name": "",
          "type": "uint256"
        },
        {
          "internalType": "uint64",
          "name": "",
          "type": "uint64"
        }
      ],
      "name": "userBuyAmountSum",
      "outputs": [
        {
          "internalType": "uint256",
          "name": "",
          "type": "uint256"
        }
      ],
      "stateMutability": "view",
      "type": "function",
      "constant": true
    },
    {
      "inputs": [
        {
          "internalType": "address",
          "name": "",
          "type": "address"
        },
        {
          "internalType": "uint256",
          "name": "",
          "type": "uint256"
        }
      ],
      "name": "userInfo",
      "outputs": [
        {
          "internalType": "uint256",
          "name": "",
          "type": "uint256"
        }
      ],
      "stateMutability": "view",
      "type": "function",
      "constant": true
    },
    {
      "inputs": [
        {
          "internalType": "uint256",
          "name": "",
          "type": "uint256"
        }
      ],
      "name": "winningNumbers",
      "outputs": [
        {
          "internalType": "uint8",
          "name": "",
          "type": "uint8"
        }
      ],
      "stateMutability": "view",
      "type": "function",
      "constant": true
    },
    {
      "inputs": [
        {
          "internalType": "contract IERC20",
          "name": "_busd",
          "type": "address"
        },
        {
          "internalType": "contract LotteryNFT",
          "name": "_lottery",
          "type": "address"
        },
        {
          "internalType": "uint256",
          "name": "_minPrice",
          "type": "uint256"
        },
        {
          "internalType": "uint8",
          "name": "_maxNumber",
          "type": "uint8"
        },
        {
          "internalType": "address",
          "name": "_owner",
          "type": "address"
        },
        {
          "internalType": "address",
          "name": "_adminAddress",
          "type": "address"
        }
      ],
      "name": "initialize",
      "outputs": [],
      "stateMutability": "nonpayable",
      "type": "function"
    },
    {
      "inputs": [],
      "name": "drawed",
      "outputs": [
        {
          "internalType": "bool",
          "name": "",
          "type": "bool"
        }
      ],
      "stateMutability": "view",
      "type": "function",
      "constant": true
    },
    {
      "inputs": [],
      "name": "reset",
      "outputs": [],
      "stateMutability": "nonpayable",
      "type": "function"
    },
    {
      "inputs": [],
      "name": "enterDrawingPhase",
      "outputs": [],
      "stateMutability": "nonpayable",
      "type": "function"
    },
    {
      "inputs": [
        {
          "internalType": "uint256",
          "name": "_externalRandomNumber",
          "type": "uint256"
        }
      ],
      "name": "drawing",
      "outputs": [],
      "stateMutability": "nonpayable",
      "type": "function"
    },
    {
      "inputs": [
        {
          "internalType": "uint256",
          "name": "_price",
          "type": "uint256"
        },
        {
          "internalType": "uint8[4]",
          "name": "_numbers",
          "type": "uint8[4]"
        }
      ],
      "name": "injectReward",
      "outputs": [],
      "stateMutability": "nonpayable",
      "type": "function"
    },
    {
      "inputs": [
        {
          "internalType": "uint256",
          "name": "_price",
          "type": "uint256"
        },
        {
          "internalType": "uint8[4]",
          "name": "_numbers",
          "type": "uint8[4]"
        }
      ],
      "name": "buy",
      "outputs": [],
      "stateMutability": "nonpayable",
      "type": "function"
    },
    {
      "inputs": [
        {
          "internalType": "uint256",
          "name": "_price",
          "type": "uint256"
        },
        {
          "internalType": "uint8[4][]",
          "name": "_numbers",
          "type": "uint8[4][]"
        }
      ],
      "name": "multiBuy",
      "outputs": [],
      "stateMutability": "nonpayable",
      "type": "function"
    },
    {
      "inputs": [
        {
          "internalType": "uint256",
          "name": "_tokenId",
          "type": "uint256"
        }
      ],
      "name": "claimReward",
      "outputs": [],
      "stateMutability": "nonpayable",
      "type": "function"
    },
    {
      "inputs": [
        {
          "internalType": "uint256[]",
          "name": "_tickets",
          "type": "uint256[]"
        }
      ],
      "name": "multiClaim",
      "outputs": [],
      "stateMutability": "nonpayable",
      "type": "function"
    },
    {
      "inputs": [
        {
          "internalType": "uint8[4]",
          "name": "number",
          "type": "uint8[4]"
        }
      ],
      "name": "generateNumberIndexKey",
      "outputs": [
        {
          "internalType": "uint64[11]",
          "name": "",
          "type": "uint64[11]"
        }
      ],
      "stateMutability": "pure",
      "type": "function",
      "constant": true
    },
    {
      "inputs": [
        {
          "internalType": "uint256",
          "name": "_issueIndex",
          "type": "uint256"
        },
        {
          "internalType": "uint256",
          "name": "_matchingNumber",
          "type": "uint256"
        }
      ],
      "name": "getMatchingRewardAmount",
      "outputs": [
        {
          "internalType": "uint256",
          "name": "",
          "type": "uint256"
        }
      ],
      "stateMutability": "view",
      "type": "function",
      "constant": true
    },
    {
      "inputs": [
        {
          "internalType": "uint256",
          "name": "_issueIndex",
          "type": "uint256"
        }
      ],
      "name": "getTotalRewards",
      "outputs": [
        {
          "internalType": "uint256",
          "name": "",
          "type": "uint256"
        }
      ],
      "stateMutability": "view",
      "type": "function",
      "constant": true
    },
    {
      "inputs": [
        {
          "internalType": "uint256",
          "name": "_tokenId",
          "type": "uint256"
        }
      ],
      "name": "getRewardView",
      "outputs": [
        {
          "internalType": "uint256",
          "name": "",
          "type": "uint256"
        }
      ],
      "stateMutability": "view",
      "type": "function",
      "constant": true
    },
    {
      "inputs": [
        {
          "internalType": "address",
          "name": "_adminAddress",
          "type": "address"
        }
      ],
      "name": "setAdmin",
      "outputs": [],
      "stateMutability": "nonpayable",
      "type": "function"
    },
    {
      "inputs": [
        {
          "internalType": "uint256",
          "name": "_amount",
          "type": "uint256"
        }
      ],
      "name": "adminWithdraw",
      "outputs": [],
      "stateMutability": "nonpayable",
      "type": "function"
    },
    {
      "inputs": [
        {
          "internalType": "uint256",
          "name": "_price",
          "type": "uint256"
        }
      ],
      "name": "setMinPrice",
      "outputs": [],
      "stateMutability": "nonpayable",
      "type": "function"
    },
    {
      "inputs": [
        {
          "internalType": "uint8",
          "name": "_maxNumber",
          "type": "uint8"
        }
      ],
      "name": "setMaxNumber",
      "outputs": [],
      "stateMutability": "nonpayable",
      "type": "function"
    },
    {
      "inputs": [
        {
          "internalType": "uint8",
          "name": "_allcation1",
          "type": "uint8"
        },
        {
          "internalType": "uint8",
          "name": "_allcation2",
          "type": "uint8"
        },
        {
          "internalType": "uint8",
          "name": "_allcation3",
          "type": "uint8"
        },
        {
          "internalType": "uint8",
          "name": "_allcation4",
          "type": "uint8"
        }
      ],
      "name": "setAllocation",
      "outputs": [],
      "stateMutability": "nonpayable",
      "type": "function"
    },
    {
      "inputs": [
        {
          "internalType": "address",
          "name": "_newAddress",
          "type": "address"
        }
      ],
      "name": "setDevAddress",
      "outputs": [],
      "stateMutability": "nonpayable",
      "type": "function"
    }
  ],
  "bytecode": "0x6000600b819055600c819055600d819055610100604052608081815260a082905260c082905260e0919091526200003b90601190600462000050565b503480156200004957600080fd5b5062000105565b600183019183908215620000d85791602002820160005b83821115620000a757835183826101000a81548160ff021916908360ff160217905550926020019260010160208160000104928301926001030262000067565b8015620000d65782816101000a81549060ff0219169055600101602081600001049283019260010302620000a7565b505b50620000e6929150620000ea565b5090565b5b80821115620000e657805460ff19168155600101620000eb565b613a2180620001156000396000f3fe608060405234801561001057600080fd5b50600436106102535760003560e01c80636a28f82811610146578063c39f49c0116100c3578063d826f88f11610087578063d826f88f146104c4578063e1345416146104cc578063e45be8eb146104d4578063e8adfbc7146104dc578063f2fde38b146104e4578063fc6f9468146104f757610253565b8063c39f49c014610470578063cfad527714610483578063d0d41fe11461048b578063d1f7dbcf1461049e578063d411b0fa146104b157610253565b8063850bad941161010a578063850bad941461040f57806385dcdf1b146104225780638da5cb5b14610442578063a42206c91461044a578063ae169a501461045d57610253565b80636a28f828146103c6578063704b6c02146103ce578063715018a6146103e15780637c5b4a37146103e957806383dd0ee4146103fc57610253565b80633a4f6999116101d45780634ed73d28116101985780634ed73d2814610367578063552164ee1461037a57806359bcbd681461038d5780635ea8cd12146103a05780636575243f146103b357610253565b80633a4f69991461030d5780633ad10ef6146103225780633ca5b23414610337578063438209f51461033f5780634e45f0951461035457610253565b806321ce919d1161021b57806321ce919d146102ae5780632bdff851146102c15780632c500414146102d45780632f506b20146102e7578063324a5562146102fa57610253565b806311e420651461025857806314c20d571461026d57806319d8ac61146102805780631a39d8ef1461029e5780631ff68866146102a6575b600080fd5b61026b610266366004612d28565b6104ff565b005b61026b61027b366004612e77565b610658565b61028861093c565b604051610295919061392e565b60405180910390f35b610288610942565b61026b610948565b6102886102bc366004612bbe565b6109a6565b61026b6102cf366004612dd0565b6109d4565b61026b6102e2366004612e77565b610d1d565b6102886102f5366004612ec4565b610ec0565b61026b610308366004612efe565b610edd565b610315610f27565b6040516102959190613945565b61032a610f37565b6040516102959190612fb7565b61032a610f46565b610347610f55565b60405161029591906130e0565b610315610362366004612da0565b610f5e565b61026b610375366004612be9565b610f85565b610288610388366004612da0565b611211565b61031561039b366004612ea3565b611285565b61026b6103ae366004612da0565b6112bb565b6102886103c1366004612ea3565b6112ea565b610288611303565b61026b6103dc366004612b86565b611309565b61026b611355565b61026b6103f7366004612da0565b6113c9565b61026b61040a366004612f1a565b61144e565b61031561041d366004612da0565b6114e2565b610435610430366004612c7d565b6114ef565b604051610295919061307b565b61032a611676565b61026b610458366004612da0565b611685565b61026b61046b366004612da0565b61190d565b61028861047e366004612ea3565b611b23565b610288611b3c565b61026b610499366004612b86565b611b42565b6102886104ac366004612ea3565b611b8e565b6102886104bf366004612da0565b611bc0565b61026b611ec1565b610347612171565b61028861217c565b61032a612182565b61026b6104f2366004612b86565b612191565b61032a61223c565b600054600160a81b900460ff168061051a575061051a61224b565b8061052f5750600054600160a01b900460ff16155b6105545760405162461bcd60e51b815260040161054b90613519565b60405180910390fd5b600054600160a81b900460ff1615801561058b576000805460ff60a01b1960ff60a81b19909116600160a81b1716600160a01b1790555b600280546001600160a01b03199081166001600160a01b038a81169190911790925560038054821689841617905560058790556004805460ff60a01b1916600160a01b60ff8916021790911691841691909117815542600e556040805160808101825260328152601e6020820152600a918101829052606081019190915261061691600191906129ab565b5061062083612251565b601280546001600160a01b0319166001600160a01b038416179055801561064f576000805460ff60a81b191690555b50505050505050565b610660612171565b1561067d5760405162461bcd60e51b815260040161054b9061389a565b60105460ff16156106a05760405162461bcd60e51b815260040161054b906132f2565b6005548210156106c25760405162461bcd60e51b815260040161054b90613274565b60005b60048110156107175760048054600160a01b900460ff16908390839081106106e957fe5b602002015160ff16111561070f5760405162461bcd60e51b815260040161054b90613344565b6001016106c5565b50600354600b54604051620dce4760ea1b81526000926001600160a01b0316916337391c009161074f91339187918991600401612fcb565b602060405180830381600087803b15801561076957600080fd5b505af115801561077d573d6000803e3d6000fd5b505050506040513d601f19601f820116820180604052508101906107a19190612db8565b600b546000908152600760209081526040808320805460018101825590845282842001849055338352600a9091529020549091506107e357600c805460010190555b336000908152600a6020908152604082208054600181018255908352912001819055600d54610812908461229c565b600d5542600e55610821612a3e565b61082a836114ef565b905060005b600b8110156108dc576108938560096000600b54815260200190815260200160002060008585600b811061085f57fe5b60200201516001600160401b03166001600160401b031681526020019081526020016000205461229c90919063ffffffff16565b600b80546000908152600960205260408120918590859081106108b257fe5b602090810291909101516001600160401b031682528101919091526040016000205560010161082f565b506002546108f5906001600160a01b03163330876122c8565b336001600160a01b03167fe3d4187f6ca4248660cc0ac8b8056515bac4a8132be2eca31d6d0cc170722a7e8360405161092e919061392e565b60405180910390a250505050565b600e5481565b600d5481565b6004546001600160a01b031633146109725760405162461bcd60e51b815260040161054b906131e6565b61097a612171565b156109975760405162461bcd60e51b815260040161054b9061314f565b6010805460ff19166001179055565b600a60205281600052604060002081815481106109bf57fe5b90600052602060002001600091509150505481565b6109dc612171565b156109f95760405162461bcd60e51b815260040161054b9061389a565b60105460ff1615610a1c5760405162461bcd60e51b815260040161054b906132f2565b600554821015610a3e5760405162461bcd60e51b815260040161054b906135aa565b6000805b8251811015610cbe5760005b6004811015610ae957600460149054906101000a900460ff1660ff16848381518110610a7657fe5b60200260200101518260048110610a8957fe5b602002015160ff1611158015610ac557506000848381518110610aa857fe5b60200260200101518260048110610abb57fe5b602002015160ff16115b610ae15760405162461bcd60e51b815260040161054b90613452565b600101610a4e565b5060035483516000916001600160a01b0316906337391c00903390879086908110610b1057fe5b602002602001015188600b546040518563ffffffff1660e01b8152600401610b3b9493929190612fcb565b602060405180830381600087803b158015610b5557600080fd5b505af1158015610b69573d6000803e3d6000fd5b505050506040513d601f19601f82011682018060405250810190610b8d9190612db8565b600b546000908152600760209081526040808320805460018101825590845282842001849055338352600a909152902054909150610bcf57600c805460010190555b336000908152600a6020908152604082208054600181018255908352912001819055600d54610bfe908661229c565b600d5542600e55610c0f838661229c565b9250610c19612a3e565b610c35858481518110610c2857fe5b60200260200101516114ef565b905060005b600b811015610cb357610c6a8760096000600b54815260200190815260200160002060008585600b811061085f57fe5b600b8054600090815260096020526040812091859085908110610c8957fe5b602090810291909101516001600160401b0316825281019190915260400160002055600101610c3a565b505050600101610a42565b50600254610cd7906001600160a01b03163330846122c8565b336001600160a01b03167f96c35ad1cc1743f26cb87980c38042de8082358ec6d171a7986d6e11dddfe85782604051610d10919061392e565b60405180910390a2505050565b6004546001600160a01b03163314610d475760405162461bcd60e51b815260040161054b906131e6565b610d4f612171565b15610d6c5760405162461bcd60e51b815260040161054b9061377c565b60005b6004811015610db157818160048110610d8457fe5b602002015160ff1615610da95760405162461bcd60e51b815260040161054b906136b2565b600101610d6f565b50600354600b54604051620dce4760ea1b81526000926001600160a01b0316916337391c0091610de991309187918991600401612fcb565b602060405180830381600087803b158015610e0357600080fd5b505af1158015610e17573d6000803e3d6000fd5b505050506040513d601f19601f82011682018060405250810190610e3b9190612db8565b600254909150610e56906001600160a01b03163330866122c8565b600b54600090815260076020908152604082208054600181018255908352912001819055600d54610e87908461229c565b600d5542600e5560405130907fe3d4187f6ca4248660cc0ac8b8056515bac4a8132be2eca31d6d0cc170722a7e90610d1090849061392e565b600960209081526000928352604080842090915290825290205481565b6004546001600160a01b03163314610f075760405162461bcd60e51b815260040161054b906131e6565b6004805460ff909216600160a01b0260ff60a01b19909216919091179055565b600454600160a01b900460ff1681565b6012546001600160a01b031681565b6002546001600160a01b031681565b60105460ff1681565b600f8160048110610f6b57fe5b60209182820401919006915054906101000a900460ff1681565b6000805b82518110156111495760035483516001600160a01b0390911690636352211e90859084908110610fb557fe5b60200260200101516040518263ffffffff1660e01b8152600401610fd9919061392e565b60206040518083038186803b158015610ff157600080fd5b505afa158015611005573d6000803e3d6000fd5b505050506040513d601f19601f820116820180604052508101906110299190612ba2565b6001600160a01b0316336001600160a01b0316146110595760405162461bcd60e51b815260040161054b90613701565b60035483516001600160a01b03909116906336dbd2f99085908490811061107c57fe5b60200260200101516040518263ffffffff1660e01b81526004016110a0919061392e565b60206040518083038186803b1580156110b857600080fd5b505afa1580156110cc573d6000803e3d6000fd5b505050506040513d601f19601f820116820180604052508101906110f09190612d08565b1561110d5760405162461bcd60e51b815260040161054b90613386565b600061112b84838151811061111e57fe5b6020026020010151611bc0565b905080156111405761113d818461229c565b92505b50600101610f89565b50600354604051637431035560e01b81526001600160a01b039091169063743103559061117a908590600401613037565b600060405180830381600087803b15801561119457600080fd5b505af11580156111a8573d6000803e3d6000fd5b5050505060008111156111cc576002546111cc906001600160a01b03163383612326565b336001600160a01b03167f6606374655494f5c0e2d6f392656e9777afd9ac5f61527d1bcad50b7e918a03e82604051611205919061392e565b60405180910390a25050565b6000600b548211156112355760405162461bcd60e51b815260040161054b906133bd565b61123d612171565b15801561124b5750600b5482145b156112595750600d54611280565b6000828152600860205260408120805490919061127257fe5b906000526020600020015490505b919050565b6006602052816000526040600020816004811061129e57fe5b602081049091015460ff601f9092166101000a9004169150829050565b6004546001600160a01b031633146112e55760405162461bcd60e51b815260040161054b906131e6565b600555565b600760205281600052604060002081815481106109bf57fe5b600b5481565b6000546001600160a01b031633146113335760405162461bcd60e51b815260040161054b90613638565b600480546001600160a01b0319166001600160a01b0392909216919091179055565b6000546001600160a01b0316331461137f5760405162461bcd60e51b815260040161054b90613638565b600080546040516001600160a01b03909116907f8be0079c531659141344cd1fd0a4f28419497f9722a3daafe3b4186f6b6457e0908390a3600080546001600160a01b0319169055565b6004546001600160a01b031633146113f35760405162461bcd60e51b815260040161054b906131e6565b60025461140a906001600160a01b03163383612326565b336001600160a01b03167f050d1c64cc22ce461b9bc14f6b73852566da02b03c155242bc63169d1fec42aa82604051611443919061392e565b60405180910390a250565b6004546001600160a01b031633146114785760405162461bcd60e51b815260040161054b906131e6565b60648183858701010160ff1611156114a25760405162461bcd60e51b815260040161054b906138eb565b6040805160808101825260ff808716825285811660208301528481169282019290925290821660608201526114db9060019060046129ab565b5050505050565b60018160048110610f6b57fe5b6114f7612a3e565b6114ff612a5d565b825160ff908116825260208085015182169083015260408085015182169083015260608085015190911690820152611535612a3e565b6060828101805160408086018051602080890180518a516201000094850264010000000092830266010000000000009092029190910101909601650100020003009081016001600160401b039081168b52855183518d51908702908a02010163010002009081018216948c0194909452885183518d51908702908a02010163010003009081018216978c0197909752885186518d51908702908a020101630200030090810182169a8c019a909a5288518651845190870299029890980190970101861660808a015280518a51840201610100908101871660a08b015284518b5185020161020001871660c08b015287519a518402909a0161030001861660e08a015283518151840201909101851698880198909852845197518102909701909101821661012086015291519151909402010190911661014082015292915050565b6000546001600160a01b031690565b6004546001600160a01b031633146116af5760405162461bcd60e51b815260040161054b906131e6565b6116b7612171565b156116d45760405162461bcd60e51b815260040161054b90613411565b60105460ff166116f65760405162461bcd60e51b815260040161054b9061319a565b6004546000908190600160a01b900460ff16436000190140825b600a81101561172d57611724600b54611211565b50600101611710565b5060005a905081600c54828860405160200161174c9493929190613101565b60408051601f19818403018152908290528051602091820120600f805460ff191687830660010160ff811691909117909155600d549198509650611798929091859185918b9101613101565b60408051601f19818403018152908290528051602091820120600f805460ff8884066001019081166101000261ff001990921691909117909155600e5491985096506117ea92859285918b9101613101565b60408051808303601f19018152908290528051602091820120600f805460ff600189850601908116620100000262ff00001990921691909117909155909750955061183b91849184918a91016130eb565b60408051808303601f190181529181528151602092830120600f805460ff60018985060190811663010000000263ff00000019909216919091178255600b546000908152600690955292909320909750909550611899916004612a7b565b506118a261234a565b600b5460009081526008602052604090206118be916004612aae565b506010805460ff19169055600b546040517fa13e935b188993737b3009d62bd916dcbe9e82d8236d75981eeadf26a1460d3d906118fd90600f906130ad565b60405180910390a2505050505050565b6003546040516331a9108f60e11b81526001600160a01b0390911690636352211e9061193d90849060040161392e565b60206040518083038186803b15801561195557600080fd5b505afa158015611969573d6000803e3d6000fd5b505050506040513d601f19601f8201168201806040525081019061198d9190612ba2565b6001600160a01b0316336001600160a01b0316146119bd5760405162461bcd60e51b815260040161054b9061366d565b6003546040516336dbd2f960e01b81526001600160a01b03909116906336dbd2f9906119ed90849060040161392e565b60206040518083038186803b158015611a0557600080fd5b505afa158015611a19573d6000803e3d6000fd5b505050506040513d601f19601f82011682018060405250810190611a3d9190612d08565b15611a5a5760405162461bcd60e51b815260040161054b906134e2565b6000611a6582611bc0565b600354604051630ae169a560e41b81529192506001600160a01b03169063ae169a5090611a9690859060040161392e565b600060405180830381600087803b158015611ab057600080fd5b505af1158015611ac4573d6000803e3d6000fd5b505050506000811115611ae857600254611ae8906001600160a01b03163383612326565b336001600160a01b03167f34fcbac0073d7c3d388e51312faf357774904998eeb8fca628b9e6f65ee1cbf78383604051611205929190613937565b600860205281600052604060002081815481106109bf57fe5b600c5481565b6004546001600160a01b03163314611b6c5760405162461bcd60e51b815260040161054b906131e6565b601280546001600160a01b0319166001600160a01b0392909216919091179055565b600082815260086020526040812080546005849003908110611bac57fe5b906000526020600020015490505b92915050565b600354604051631bf1e00f60e01b815260009182916001600160a01b0390911690631bf1e00f90611bf590869060040161392e565b60206040518083038186803b158015611c0d57600080fd5b505afa158015611c21573d6000803e3d6000fd5b505050506040513d601f19601f82011682018060405250810190611c459190612db8565b9050611c4f612a5d565b600354604051635f8e26a760e01b81526001600160a01b0390911690635f8e26a790611c7f90879060040161392e565b60806040518083038186803b158015611c9757600080fd5b505afa158015611cab573d6000803e3d6000fd5b505050506040513d601f19601f82011682018060405250810190611ccf9190612c98565b9050611cd9612a5d565b600083815260066020526040808220815160808101928390529290916004918390855b825461010083900a900460ff16815260206001928301818104948501949093039092029101808411611cfc5790505050505050905080600060048110611d3e57fe5b602002015160ff16611d625760405162461bcd60e51b815260040161054b90613567565b6000805b6004811015611dac57838160048110611d7b57fe5b602002015160ff16838260048110611d8f57fe5b602002015160ff161415611da4578160010191505b600101611d66565b5060006001821115611ea757600354604051637bd0606560e11b81526000916001600160a01b03169063f7a0c0ca90611de9908b9060040161392e565b60206040518083038186803b158015611e0157600080fd5b505afa158015611e15573d6000803e3d6000fd5b505050506040513d601f19601f82011682018060405250810190611e399190612db8565b90506000611e806064611e7a60018760030360048110611e5557fe5b602081049091015460ff601f9092166101000a900416611e748b611211565b906125af565b906125e9565b9050611ea281611e74611e938a88611b8e565b611e7a8664e8d4a510006125af565b925050505b611eb68164e8d4a510006125e9565b979650505050505050565b6004546001600160a01b03163314611eeb5760405162461bcd60e51b815260040161054b906131e6565b611ef3612171565b611f0f5760405162461bcd60e51b815260040161054b90613745565b42600e556000600c819055600d55600f805463ffffffff191690556010805460ff19169055600b805460018101909155611f4a906004611b8e565b611fdd576000611f836064611e7a6001845b602091828204019190069054906101000a900460ff1660ff16611e746001600b5403611211565b604080516080810191829052919250611fdb918391601190600490826000855b825461010083900a900460ff16815260206001928301818104948501949093039092029101808411611fa3579050505050505061262b565b505b611fed6001600b54036003611b8e565b6120405760006120036064611e7a600180611f5c565b6040805160808101918290526011805460ff16825292935061203e92849260049082600160208601808411611fa3579050505050505061262b565b505b6120506001600b54036002611b8e565b6120a45760006120676064611e7a60016002611f5c565b6040805160808101918290526011805460ff1682529293506120a292849260049082600160208601808411611fa3579050505050505061262b565b505b60006120b76064611e7a60016003611f5c565b60025460125460405163a9059cbb60e01b81529293506001600160a01b039182169263a9059cbb926120ef921690859060040161301e565b602060405180830381600087803b15801561210957600080fd5b505af115801561211d573d6000803e3d6000fd5b505050506040513d601f19601f820116820180604052508101906121419190612d08565b50600b546040517f01c3cbb0d62726ab09d163873ebf9aed99dd8dc08e57bc938f458132fd178cf690600090a250565b600f5460ff16151590565b60055481565b6003546001600160a01b031681565b6000546001600160a01b031633146121bb5760405162461bcd60e51b815260040161054b90613638565b6001600160a01b0381166121e15760405162461bcd60e51b815260040161054b9061322e565b600080546040516001600160a01b03808516939216917f8be0079c531659141344cd1fd0a4f28419497f9722a3daafe3b4186f6b6457e091a3600080546001600160a01b0319166001600160a01b0392909216919091179055565b6004546001600160a01b031681565b303b1590565b600080546001600160a01b0319166001600160a01b03831690811782556040519091907f8be0079c531659141344cd1fd0a4f28419497f9722a3daafe3b4186f6b6457e0908290a350565b6000828201838110156122c15760405162461bcd60e51b815260040161054b906132bb565b9392505050565b612320846323b872dd60e01b8585856040516024016122e993929190612ffa565b60408051601f198184030181529190526020810180516001600160e01b03166001600160e01b031990931692909217909152612763565b50505050565b6123458363a9059cbb60e01b84846040516024016122e992919061301e565b505050565b612352612a5d565b61235a612a3e565b6040805160808101918290526123ad91600f90600490826000855b825461010083900a900460ff1681526020600192830181810494850194909303909202910180841161237557905050505050506114ef565b600b54600081815260096020818152604080842086516001600160401b039081168652818452828620548787528585528885015190911686528184529185205495855292909152939450612434918560025b60200201516001600160401b03166001600160401b03168152602001908152602001600020548261229c90919063ffffffff16565b600b54600090815260096020526040812091925061245591908560036123ff565b600b54600090815260096020526040812091925061247691908560046123ff565b9050600061248f6124888460046125af565b83906127f2565b600b54600081815260096020818152604080842060a08b01516001600160401b031685528083529084205494845291905292935090916124d1918760066123ff565b600b5460009081526009602052604081209192506124f291908760076123ff565b600b54600090815260096020526040812091925061251391908760086123ff565b600b546000908152600960208190526040822092935061253692919088906123ff565b600b546000908152600960205260408120919250612557919087600a6123ff565b905060006125846125698560036125af565b61257e6125778860066125af565b859061229c565b906127f2565b60408051608081018252600d5481526020810197909752860193909352505060608301525091505090565b6000826125be57506000611bba565b828202828482816125cb57fe5b04146122c15760405162461bcd60e51b815260040161054b906135f7565b60006122c183836040518060400160405280601a81526020017f536166654d6174683a206469766973696f6e206279207a65726f000000000000815250612834565b612633612171565b156126505760405162461bcd60e51b815260040161054b906137cb565b60005b60048110156126a55760048054600160a01b900460ff169083908390811061267757fe5b602002015160ff16111561269d5760405162461bcd60e51b815260040161054b90613499565b600101612653565b50600354600b54604051620dce4760ea1b81526000926001600160a01b0316916337391c00916126dd91309187918991600401612fcb565b602060405180830381600087803b1580156126f757600080fd5b505af115801561270b573d6000803e3d6000fd5b505050506040513d601f19601f8201168201806040525081019061272f9190612db8565b600b54600090815260076020908152604082208054600181018255908352912001819055600d54909150610e87908461229c565b60606127b8826040518060400160405280602081526020017f5361666545524332303a206c6f772d6c6576656c2063616c6c206661696c6564815250856001600160a01b031661286b9092919063ffffffff16565b80519091501561234557808060200190518101906127d69190612d08565b6123455760405162461bcd60e51b815260040161054b90613850565b60006122c183836040518060400160405280601e81526020017f536166654d6174683a207375627472616374696f6e206f766572666c6f770000815250612882565b600081836128555760405162461bcd60e51b815260040161054b919061311c565b50600083858161286157fe5b0495945050505050565b606061287a84846000856128ae565b949350505050565b600081848411156128a65760405162461bcd60e51b815260040161054b919061311c565b505050900390565b60606128b985612972565b6128d55760405162461bcd60e51b815260040161054b90613819565b60006060866001600160a01b031685876040516128f29190612f9b565b60006040518083038185875af1925050503d806000811461292f576040519150601f19603f3d011682016040523d82523d6000602084013e612934565b606091505b5091509150811561294857915061287a9050565b8051156129585780518082602001fd5b8360405162461bcd60e51b815260040161054b919061311c565b6000813f7fc5d2460186f7233c927e7db2dcc703c0e500b653ca82273b7bfad8045d85a47081811480159061287a575050151592915050565b600183019183908215612a2e5791602002820160005b838211156129ff57835183826101000a81548160ff021916908360ff16021790555092602001926001016020816000010492830192600103026129c1565b8015612a2c5782816101000a81549060ff02191690556001016020816000010492830192600103026129ff565b505b50612a3a929150612af5565b5090565b604051806101600160405280600b906020820280368337509192915050565b60405180608001604052806004906020820280368337509192915050565b600183019183908215612a2e5791601f016020900482015b82811115612a2e578254825591600101919060010190612a93565b828054828255906000526020600020908101928215612ae9579160200282015b82811115612ae9578251825591602001919060010190612ace565b50612a3a929150612b0e565b5b80821115612a3a57805460ff19168155600101612af6565b5b80821115612a3a5760008155600101612b0f565b600082601f830112612b33578081fd5b612b3d6080613953565b9050808284608085011115612b5157600080fd5b60005b6004811015612b7d578135612b68816139dc565b83526020928301929190910190600101612b54565b50505092915050565b600060208284031215612b97578081fd5b81356122c1816139c4565b600060208284031215612bb3578081fd5b81516122c1816139c4565b60008060408385031215612bd0578081fd5b8235612bdb816139c4565b946020939093013593505050565b60006020808385031215612bfb578182fd5b82356001600160401b03811115612c10578283fd5b8301601f81018513612c20578283fd5b8035612c33612c2e82613979565b613953565b8181528381019083850185840285018601891015612c4f578687fd5b8694505b83851015612c71578035835260019490940193918501918501612c53565b50979650505050505050565b600060808284031215612c8e578081fd5b6122c18383612b23565b600060808284031215612ca9578081fd5b82601f830112612cb7578081fd5b612cc16080613953565b808385608086011115612cd2578384fd5b835b6004811015612cfd578151612ce8816139dc565b84526020938401939190910190600101612cd4565b509095945050505050565b600060208284031215612d19578081fd5b815180151581146122c1578182fd5b60008060008060008060c08789031215612d40578182fd5b8635612d4b816139c4565b95506020870135612d5b816139c4565b9450604087013593506060870135612d72816139dc565b92506080870135612d82816139c4565b915060a0870135612d92816139c4565b809150509295509295509295565b600060208284031215612db1578081fd5b5035919050565b600060208284031215612dc9578081fd5b5051919050565b60008060408385031215612de2578182fd5b823591506020808401356001600160401b03811115612dff578283fd5b8401601f81018613612e0f578283fd5b8035612e1d612c2e82613979565b818152838101908385016080808502860187018b1015612e3b578788fd5b8795505b84861015612e6757612e518b83612b23565b8452600195909501949286019290810190612e3f565b5096999098509650505050505050565b60008060a08385031215612e89578182fd5b82359150612e9a8460208501612b23565b90509250929050565b60008060408385031215612eb5578182fd5b50508035926020909101359150565b60008060408385031215612ed6578182fd5b8235915060208301356001600160401b0381168114612ef3578182fd5b809150509250929050565b600060208284031215612f0f578081fd5b81356122c1816139dc565b60008060008060808587031215612f2f578182fd5b8435612f3a816139dc565b93506020850135612f4a816139dc565b92506040850135612f5a816139dc565b91506060850135612f6a816139dc565b939692955090935050565b8060005b600481101561232057815160ff16845260209384019390910190600101612f79565b60008251612fad818460208701613998565b9190910192915050565b6001600160a01b0391909116815260200190565b6001600160a01b038516815260e08101612fe86020830186612f75565b60a082019390935260c0015292915050565b6001600160a01b039384168152919092166020820152604081019190915260600190565b6001600160a01b03929092168252602082015260400190565b6020808252825182820181905260009190848201906040850190845b8181101561306f57835183529284019291840191600101613053565b50909695505050505050565b6101608101818360005b600b811015612b7d5781516001600160401b0316835260209283019290910190600101613085565b905460ff8082168352600882901c81166020840152601082901c8116604084015260189190911c16606082015260800190565b901515815260200190565b9283526020830191909152604082015260600190565b93845260208401929092526040830152606082015260800190565b600060208252825180602084015261313b816040850160208701613998565b601f01601f19169190910160400192915050565b6020808252602b908201527f4c6f74746572793a3a656e74657244726177696e6750686173653a3a20616c7260408201526a1958591e48191c985dd95960aa1b606082015260800190565b6020808252602c908201527f4c6f74746572793a3a64726177696e673a3a20656e7465722064726177696e6760408201526b081c1a185cd948199a5c9cdd60a21b606082015260800190565b60208082526028908201527f4c6f74746572793a3a6f6e6c7941646d696e3a3a206f6e6c792061646d696e2060408201526718d85b8818d85b1b60c21b606082015260800190565b60208082526026908201527f4f776e61626c653a206e6577206f776e657220697320746865207a65726f206160408201526564647265737360d01b606082015260800190565b60208082526027908201527f4c6f74746572793a6275793a3a207072696365206d7573742061626f7665206d604082015266696e507269636560c81b606082015260800190565b6020808252601b908201527f536166654d6174683a206164646974696f6e206f766572666c6f770000000000604082015260600190565b60208082526032908201527f4c6f74746572793a3a696e44726177696e6750686173653a3a2064726177696e604082015271672c2063616e206e6f7420627579206e6f7760701b606082015260800190565b60208082526022908201527f4c6f74746572793a3a6275793a3a20657863656564206e756d6265722073636f604082015261706560f01b606082015260800190565b6020808252601d908201527f4c6f74746572793a3a6d756c7469436c61696d3a3a20636c61696d6564000000604082015260600190565b60208082526034908201527f4c6f74746572793a3a676574546f74616c526577617264733a3a205f697373756040820152730ca92dcc8caf040787a40d2e6e6eaca92dcc8caf60631b606082015260800190565b60208082526021908201527f4c6f74746572793a3a64726177696e673a3a20616c72656164792064726177656040820152601960fa1b606082015260800190565b60208082526027908201527f4c6f74746572793a3a6d756c74694275793a3a20657863656564206e756d6265604082015266722073636f706560c81b606082015260800190565b60208082526029908201527f4c6f74746572793a3a696e7465726e616c4275793a3a2065786365656420746860408201526865206d6178696d756d60b81b606082015260800190565b6020808252601e908201527f4c6f74746572793a3a636c61696d5265776172643a3a20636c61696d65640000604082015260600190565b6020808252602e908201527f496e697469616c697a61626c653a20636f6e747261637420697320616c72656160408201526d191e481a5b9a5d1a585b1a5e995960921b606082015260800190565b60208082526023908201527f4c6f74746572793a3a676574526577617264566965773a3a206e6f74206472616040820152621dd95960ea1b606082015260800190565b6020808252602d908201527f4c6f74746572793a3a6d756c74694275793a3a207072696365206d757374206160408201526c626f7665206d696e507269636560981b606082015260800190565b60208082526021908201527f536166654d6174683a206d756c7469706c69636174696f6e206f766572666c6f6040820152607760f81b606082015260800190565b6020808252818101527f4f776e61626c653a2063616c6c6572206973206e6f7420746865206f776e6572604082015260600190565b60208082526025908201527f4c6f74746572793a3a636c61696d5265776172643a3a206e6f742066726f6d2060408201526437bbb732b960d91b606082015260800190565b6020808252602f908201527f4c6f74746572793a3a696e6a6563745265776172643a3a20616363657074206f60408201526e1b9b1e481b9d5b1b081d1a58dad95d608a1b606082015260800190565b60208082526024908201527f4c6f74746572793a3a6d756c7469436c61696d3a3a206e6f742066726f6d206f6040820152633bb732b960e11b606082015260800190565b60208082526018908201527f4c6f74746572793a3a72657365743a3a206472617765643f0000000000000000604082015260600190565b6020808252602f908201527f4c6f74746572793a3a696e6a6563745265776172643a3a206472617765642c2060408201526e63616e206e6f7420627579206e6f7760881b606082015260800190565b6020808252602e908201527f4c6f74746572793a3a696e7465726e616c4275793a3a206472617765642c206360408201526d616e206e6f7420627579206e6f7760901b606082015260800190565b6020808252601d908201527f416464726573733a2063616c6c20746f206e6f6e2d636f6e7472616374000000604082015260600190565b6020808252602a908201527f5361666545524332303a204552433230206f7065726174696f6e20646964206e6040820152691bdd081cdd58d8d9595960b21b606082015260800190565b60208082526031908201527f4c6f74746572793a3a696e44726177696e6750686173653a3a206472617765646040820152702c2063616e206e6f7420627579206e6f7760781b606082015260800190565b60208082526023908201527f4c6f74746572793a3a736574416c6c6f636174696f6e3a3a206578636565642060408201526203130360ec1b606082015260800190565b90815260200190565b918252602082015260400190565b60ff91909116815260200190565b6040518181016001600160401b038111828210171561397157600080fd5b604052919050565b60006001600160401b0382111561398e578081fd5b5060209081020190565b60005b838110156139b357818101518382015260200161399b565b838111156123205750506000910152565b6001600160a01b03811681146139d957600080fd5b50565b60ff811681146139d957600080fdfea26469706673582212207e14667c69b2dc2b169ff18a49981fbd49b7e98b2d48582a88f01f2ad2c6f70c64736f6c634300060c0033",
  "immutableReferences": {},
  "source": "// SPDX-License-Identifier: MIT\n\npragma solidity 0.6.12;\npragma experimental ABIEncoderV2;\n\nimport \"./LotteryNFT.sol\";\nimport \"./token/ERC20/IERC20.sol\";\nimport \"./token/ERC20/SafeERC20.sol\";\nimport \"./LotteryOwnable.sol\";\nimport \"./math/SafeMath.sol\";\nimport \"./proxy/Initializable.sol\";\n\n// 4 numbers\ncontract Lottery is LotteryOwnable, Initializable {\n    using SafeMath for uint256;\n    using SafeMath for uint8;\n    using SafeERC20 for IERC20;\n\n    uint8 constant keyLengthForEachBuy = 11;\n    // Allocation for first/sencond/third reward\n    uint8[4] public allocation;\n    // The TOKEN to buy lottery\n    IERC20 public busd;\n    // The Lottery NFT for tickets\n    LotteryNFT public lotteryNFT;\n    // adminAddress\n    address public adminAddress;\n    // maxNumber\n    uint8 public maxNumber;\n    // minPrice, if decimal is not 18, please reset it\n    uint256 public minPrice;\n\n    // =================================\n\n    // issueId => winningNumbers[numbers]\n    mapping(uint256 => uint8[4]) public historyNumbers;\n    // issueId => [tokenId]\n    mapping(uint256 => uint256[]) public lotteryInfo;\n    // issueId => [totalAmount, firstMatchAmount, secondMatchingAmount, thirdMatchingAmount]\n    mapping(uint256 => uint256[]) public historyAmount;\n    // issueId => trickyNumber => buyAmountSum\n    mapping(uint256 => mapping(uint64 => uint256)) public userBuyAmountSum;\n    // address => [tokenId]\n    mapping(address => uint256[]) public userInfo;\n\n    uint256 public issueIndex = 0;\n    uint256 public totalAddresses = 0;\n    uint256 public totalAmount = 0;\n    uint256 public lastTimestamp;\n\n    uint8[4] public winningNumbers;\n\n    // default false\n    bool public drawingPhase;\n\n    // =================================\n\n    event Buy(address indexed user, uint256 tokenId);\n    event Drawing(uint256 indexed issueIndex, uint8[4] winningNumbers);\n    event Claim(address indexed user, uint256 tokenid, uint256 amount);\n    event DevWithdraw(address indexed user, uint256 amount);\n    event Reset(uint256 indexed issueIndex);\n    event MultiClaim(address indexed user, uint256 amount);\n    event MultiBuy(address indexed user, uint256 amount);\n\n    constructor() public {}\n\n    function initialize(\n        IERC20 _busd,\n        LotteryNFT _lottery,\n        uint256 _minPrice,\n        uint8 _maxNumber,\n        address _owner,\n        address _adminAddress\n    ) public initializer {\n        busd = _busd;\n        lotteryNFT = _lottery;\n        minPrice = _minPrice;\n        maxNumber = _maxNumber;\n        adminAddress = _adminAddress;\n        lastTimestamp = block.timestamp;\n        allocation = [50, 30, 10, 10];\n        initOwner(_owner);\n        devAddress = _adminAddress;\n    }\n\n    uint8[4] private nullTicket = [0, 0, 0, 0];\n    address public devAddress;\n\n    modifier onlyAdmin() {\n        require(\n            msg.sender == adminAddress,\n            \"Lottery::onlyAdmin:: only admin can call\"\n        );\n        _;\n    }\n\n    modifier inDrawingPhase() {\n        require(!drawed(), \"Lottery::inDrawingPhase:: drawed, can not buy now\");\n        require(\n            !drawingPhase,\n            \"Lottery::inDrawingPhase:: drawing, can not buy now\"\n        );\n        _;\n    }\n\n    function drawed() public view returns (bool) {\n        return winningNumbers[0] != 0;\n    }\n\n    function reset() external onlyAdmin {\n        require(drawed(), \"Lottery::reset:: drawed?\");\n        lastTimestamp = block.timestamp;\n        totalAddresses = 0;\n        totalAmount = 0;\n        winningNumbers[0] = 0;\n        winningNumbers[1] = 0;\n        winningNumbers[2] = 0;\n        winningNumbers[3] = 0;\n        drawingPhase = false;\n        issueIndex = issueIndex + 1;\n        // first prize\n        if (getMatchingRewardAmount(issueIndex - 1, 4) == 0) {\n            uint256 amount =\n                getTotalRewards(issueIndex - 1).mul(allocation[0]).div(100);\n            internalBuy(amount, nullTicket);\n        }\n        // second prize\n        if (getMatchingRewardAmount(issueIndex - 1, 3) == 0) {\n            uint256 amount =\n                getTotalRewards(issueIndex - 1).mul(allocation[1]).div(100);\n            internalBuy(amount, nullTicket);\n        }\n        // third prize\n        if (getMatchingRewardAmount(issueIndex - 1, 2) == 0) {\n            uint256 amount =\n                getTotalRewards(issueIndex - 1).mul(allocation[2]).div(100);\n            internalBuy(amount, nullTicket);\n        }\n        uint256 amount =\n            getTotalRewards(issueIndex - 1).mul(allocation[3]).div(100);\n        busd.transfer(devAddress, amount);\n        emit Reset(issueIndex);\n    }\n\n    function enterDrawingPhase() external onlyAdmin {\n        require(!drawed(), \"Lottery::enterDrawingPhase:: already drawed\");\n        drawingPhase = true;\n    }\n\n    // add externalRandomNumber to prevent node validators exploiting\n    function drawing(uint256 _externalRandomNumber) external onlyAdmin {\n        require(!drawed(), \"Lottery::drawing:: already drawed\");\n        require(drawingPhase, \"Lottery::drawing:: enter drawing phase first\");\n        bytes32 _structHash;\n        uint256 _randomNumber;\n        uint8 _maxNumber = maxNumber;\n        bytes32 _blockhash = blockhash(block.number - 1);\n\n        // waste some gas fee here\n        for (uint256 i = 0; i < 10; i++) {\n            getTotalRewards(issueIndex);\n        }\n        uint256 gasLeft = gasleft();\n\n        // 1\n        _structHash = keccak256(\n            abi.encode(\n                _blockhash,\n                totalAddresses,\n                gasLeft,\n                _externalRandomNumber\n            )\n        );\n        _randomNumber = uint256(_structHash);\n        assembly {\n            _randomNumber := add(mod(_randomNumber, _maxNumber), 1)\n        }\n        winningNumbers[0] = uint8(_randomNumber);\n\n        // 2\n        _structHash = keccak256(\n            abi.encode(totalAmount, _blockhash, gasLeft, _externalRandomNumber)\n        );\n        _randomNumber = uint256(_structHash);\n        assembly {\n            _randomNumber := add(mod(_randomNumber, _maxNumber), 1)\n        }\n        winningNumbers[1] = uint8(_randomNumber);\n\n        // 3\n        _structHash = keccak256(\n            abi.encode(\n                _blockhash,\n                lastTimestamp,\n                gasLeft,\n                _externalRandomNumber\n            )\n        );\n        _randomNumber = uint256(_structHash);\n        assembly {\n            _randomNumber := add(mod(_randomNumber, _maxNumber), 1)\n        }\n        winningNumbers[2] = uint8(_randomNumber);\n\n        // 4\n        _structHash = keccak256(\n            abi.encode(_blockhash, gasLeft, _externalRandomNumber)\n        );\n        _randomNumber = uint256(_structHash);\n        assembly {\n            _randomNumber := add(mod(_randomNumber, _maxNumber), 1)\n        }\n        winningNumbers[3] = uint8(_randomNumber);\n\n        historyNumbers[issueIndex] = winningNumbers;\n        historyAmount[issueIndex] = calculateMatchingRewardAmount();\n        drawingPhase = false;\n        emit Drawing(issueIndex, winningNumbers);\n    }\n\n    function internalBuy(uint256 _price, uint8[4] memory _numbers) internal {\n        require(!drawed(), \"Lottery::internalBuy:: drawed, can not buy now\");\n        for (uint256 i = 0; i < 4; i++) {\n            require(\n                _numbers[i] <= maxNumber,\n                \"Lottery::internalBuy:: exceed the maximum\"\n            );\n        }\n        uint256 tokenId =\n            lotteryNFT.newLotteryItem(\n                address(this),\n                _numbers,\n                _price,\n                issueIndex\n            );\n        lotteryInfo[issueIndex].push(tokenId);\n        totalAmount = totalAmount.add(_price);\n        lastTimestamp = block.timestamp;\n        emit Buy(address(this), tokenId);\n    }\n\n    function injectReward(uint256 _price, uint8[4] memory _numbers)\n        external\n        onlyAdmin\n    {\n        require(!drawed(), \"Lottery::injectReward:: drawed, can not buy now\");\n        for (uint256 i = 0; i < 4; i++) {\n            require(\n                _numbers[i] == 0,\n                \"Lottery::injectReward:: accept only null ticket\"\n            );\n        }\n        uint256 tokenId =\n            lotteryNFT.newLotteryItem(\n                address(this),\n                _numbers,\n                _price,\n                issueIndex\n            );\n        busd.safeTransferFrom(address(msg.sender), address(this), _price);\n        lotteryInfo[issueIndex].push(tokenId);\n        totalAmount = totalAmount.add(_price);\n        lastTimestamp = block.timestamp;\n        emit Buy(address(this), tokenId);\n    }\n\n    function buy(uint256 _price, uint8[4] memory _numbers)\n        external\n        inDrawingPhase\n    {\n        require(_price >= minPrice, \"Lottery:buy:: price must above minPrice\");\n        for (uint256 i = 0; i < 4; i++) {\n            require(\n                _numbers[i] <= maxNumber,\n                \"Lottery::buy:: exceed number scope\"\n            );\n        }\n        uint256 tokenId =\n            lotteryNFT.newLotteryItem(msg.sender, _numbers, _price, issueIndex);\n        lotteryInfo[issueIndex].push(tokenId);\n        if (userInfo[msg.sender].length == 0) {\n            totalAddresses = totalAddresses + 1;\n        }\n        userInfo[msg.sender].push(tokenId);\n        totalAmount = totalAmount.add(_price);\n        lastTimestamp = block.timestamp;\n        uint64[keyLengthForEachBuy] memory userNumberIndex =\n            generateNumberIndexKey(_numbers);\n        for (uint256 i = 0; i < keyLengthForEachBuy; i++) {\n            userBuyAmountSum[issueIndex][userNumberIndex[i]] = userBuyAmountSum[\n                issueIndex\n            ][userNumberIndex[i]]\n                .add(_price);\n        }\n        busd.safeTransferFrom(address(msg.sender), address(this), _price);\n        emit Buy(msg.sender, tokenId);\n    }\n\n    function multiBuy(uint256 _price, uint8[4][] memory _numbers)\n        external\n        inDrawingPhase\n    {\n        require(\n            _price >= minPrice,\n            \"Lottery::multiBuy:: price must above minPrice\"\n        );\n        uint256 totalPrice = 0;\n        for (uint256 i = 0; i < _numbers.length; i++) {\n            for (uint256 j = 0; j < 4; j++) {\n                require(\n                    _numbers[i][j] <= maxNumber && _numbers[i][j] > 0,\n                    \"Lottery::multiBuy:: exceed number scope\"\n                );\n            }\n            uint256 tokenId =\n                lotteryNFT.newLotteryItem(\n                    msg.sender,\n                    _numbers[i],\n                    _price,\n                    issueIndex\n                );\n            lotteryInfo[issueIndex].push(tokenId);\n            if (userInfo[msg.sender].length == 0) {\n                totalAddresses = totalAddresses + 1;\n            }\n            userInfo[msg.sender].push(tokenId);\n            totalAmount = totalAmount.add(_price);\n            lastTimestamp = block.timestamp;\n            totalPrice = totalPrice.add(_price);\n            uint64[keyLengthForEachBuy] memory numberIndexKey =\n                generateNumberIndexKey(_numbers[i]);\n            for (uint256 k = 0; k < keyLengthForEachBuy; k++) {\n                userBuyAmountSum[issueIndex][\n                    numberIndexKey[k]\n                ] = userBuyAmountSum[issueIndex][numberIndexKey[k]].add(_price);\n            }\n        }\n        busd.safeTransferFrom(address(msg.sender), address(this), totalPrice);\n        emit MultiBuy(msg.sender, totalPrice);\n    }\n\n    function claimReward(uint256 _tokenId) external {\n        require(\n            msg.sender == lotteryNFT.ownerOf(_tokenId),\n            \"Lottery::claimReward:: not from owner\"\n        );\n        require(\n            !lotteryNFT.getClaimStatus(_tokenId),\n            \"Lottery::claimReward:: claimed\"\n        );\n        uint256 reward = getRewardView(_tokenId);\n        lotteryNFT.claimReward(_tokenId);\n        if (reward > 0) {\n            busd.safeTransfer(address(msg.sender), reward);\n        }\n        emit Claim(msg.sender, _tokenId, reward);\n    }\n\n    function multiClaim(uint256[] memory _tickets) external {\n        uint256 totalReward = 0;\n        for (uint256 i = 0; i < _tickets.length; i++) {\n            require(\n                msg.sender == lotteryNFT.ownerOf(_tickets[i]),\n                \"Lottery::multiClaim:: not from owner\"\n            );\n            require(\n                !lotteryNFT.getClaimStatus(_tickets[i]),\n                \"Lottery::multiClaim:: claimed\"\n            );\n            uint256 reward = getRewardView(_tickets[i]);\n            if (reward > 0) {\n                totalReward = reward.add(totalReward);\n            }\n        }\n        lotteryNFT.multiClaimReward(_tickets);\n        if (totalReward > 0) {\n            busd.safeTransfer(address(msg.sender), totalReward);\n        }\n        emit MultiClaim(msg.sender, totalReward);\n    }\n\n    function generateNumberIndexKey(uint8[4] memory number)\n        public\n        pure\n        returns (uint64[keyLengthForEachBuy] memory)\n    {\n        uint64[4] memory tempNumber;\n        tempNumber[0] = uint64(number[0]);\n        tempNumber[1] = uint64(number[1]);\n        tempNumber[2] = uint64(number[2]);\n        tempNumber[3] = uint64(number[3]);\n\n        uint64[keyLengthForEachBuy] memory result;\n        result[0] =\n            tempNumber[0] *\n            256 *\n            256 *\n            256 *\n            256 *\n            256 *\n            256 +\n            1 *\n            256 *\n            256 *\n            256 *\n            256 *\n            256 +\n            tempNumber[1] *\n            256 *\n            256 *\n            256 *\n            256 +\n            2 *\n            256 *\n            256 *\n            256 +\n            tempNumber[2] *\n            256 *\n            256 +\n            3 *\n            256 +\n            tempNumber[3];\n\n        result[1] =\n            tempNumber[0] *\n            256 *\n            256 *\n            256 *\n            256 +\n            1 *\n            256 *\n            256 *\n            256 +\n            tempNumber[1] *\n            256 *\n            256 +\n            2 *\n            256 +\n            tempNumber[2];\n        result[2] =\n            tempNumber[0] *\n            256 *\n            256 *\n            256 *\n            256 +\n            1 *\n            256 *\n            256 *\n            256 +\n            tempNumber[1] *\n            256 *\n            256 +\n            3 *\n            256 +\n            tempNumber[3];\n        result[3] =\n            tempNumber[0] *\n            256 *\n            256 *\n            256 *\n            256 +\n            2 *\n            256 *\n            256 *\n            256 +\n            tempNumber[2] *\n            256 *\n            256 +\n            3 *\n            256 +\n            tempNumber[3];\n        result[4] =\n            1 *\n            256 *\n            256 *\n            256 *\n            256 *\n            256 +\n            tempNumber[1] *\n            256 *\n            256 *\n            256 *\n            256 +\n            2 *\n            256 *\n            256 *\n            256 +\n            tempNumber[2] *\n            256 *\n            256 +\n            3 *\n            256 +\n            tempNumber[3];\n\n        result[5] = tempNumber[0] * 256 * 256 + 1 * 256 + tempNumber[1];\n        result[6] = tempNumber[0] * 256 * 256 + 2 * 256 + tempNumber[2];\n        result[7] = tempNumber[0] * 256 * 256 + 3 * 256 + tempNumber[3];\n        result[8] =\n            1 *\n            256 *\n            256 *\n            256 +\n            tempNumber[1] *\n            256 *\n            256 +\n            2 *\n            256 +\n            tempNumber[2];\n        result[9] =\n            1 *\n            256 *\n            256 *\n            256 +\n            tempNumber[1] *\n            256 *\n            256 +\n            3 *\n            256 +\n            tempNumber[3];\n        result[10] =\n            2 *\n            256 *\n            256 *\n            256 +\n            tempNumber[2] *\n            256 *\n            256 +\n            3 *\n            256 +\n            tempNumber[3];\n\n        return result;\n    }\n\n    function calculateMatchingRewardAmount()\n        internal\n        view\n        returns (uint256[4] memory)\n    {\n        uint64[keyLengthForEachBuy] memory numberIndexKey =\n            generateNumberIndexKey(winningNumbers);\n\n        uint256 totalAmout1 = userBuyAmountSum[issueIndex][numberIndexKey[0]];\n\n        uint256 sumForTotalAmout2 =\n            userBuyAmountSum[issueIndex][numberIndexKey[1]];\n        sumForTotalAmout2 = sumForTotalAmout2.add(\n            userBuyAmountSum[issueIndex][numberIndexKey[2]]\n        );\n        sumForTotalAmout2 = sumForTotalAmout2.add(\n            userBuyAmountSum[issueIndex][numberIndexKey[3]]\n        );\n        sumForTotalAmout2 = sumForTotalAmout2.add(\n            userBuyAmountSum[issueIndex][numberIndexKey[4]]\n        );\n\n        uint256 totalAmout2 = sumForTotalAmout2.sub(totalAmout1.mul(4));\n\n        uint256 sumForTotalAmout3 =\n            userBuyAmountSum[issueIndex][numberIndexKey[5]];\n        sumForTotalAmout3 = sumForTotalAmout3.add(\n            userBuyAmountSum[issueIndex][numberIndexKey[6]]\n        );\n        sumForTotalAmout3 = sumForTotalAmout3.add(\n            userBuyAmountSum[issueIndex][numberIndexKey[7]]\n        );\n        sumForTotalAmout3 = sumForTotalAmout3.add(\n            userBuyAmountSum[issueIndex][numberIndexKey[8]]\n        );\n        sumForTotalAmout3 = sumForTotalAmout3.add(\n            userBuyAmountSum[issueIndex][numberIndexKey[9]]\n        );\n        sumForTotalAmout3 = sumForTotalAmout3.add(\n            userBuyAmountSum[issueIndex][numberIndexKey[10]]\n        );\n\n        uint256 totalAmout3 =\n            sumForTotalAmout3.add(totalAmout1.mul(6)).sub(\n                sumForTotalAmout2.mul(3)\n            );\n\n        return [totalAmount, totalAmout1, totalAmout2, totalAmout3];\n    }\n\n    function getMatchingRewardAmount(\n        uint256 _issueIndex,\n        uint256 _matchingNumber\n    ) public view returns (uint256) {\n        return historyAmount[_issueIndex][5 - _matchingNumber];\n    }\n\n    function getTotalRewards(uint256 _issueIndex)\n        public\n        view\n        returns (uint256)\n    {\n        require(\n            _issueIndex <= issueIndex,\n            \"Lottery::getTotalRewards:: _issueIndex <= issueIndex\"\n        );\n\n        if (!drawed() && _issueIndex == issueIndex) {\n            return totalAmount;\n        }\n        return historyAmount[_issueIndex][0];\n    }\n\n    function getRewardView(uint256 _tokenId) public view returns (uint256) {\n        uint256 _issueIndex = lotteryNFT.getLotteryIssueIndex(_tokenId);\n        uint8[4] memory lotteryNumbers = lotteryNFT.getLotteryNumbers(_tokenId);\n        uint8[4] memory _winningNumbers = historyNumbers[_issueIndex];\n        require(_winningNumbers[0] != 0, \"Lottery::getRewardView:: not drawed\");\n\n        uint256 matchingNumber = 0;\n        for (uint256 i = 0; i < lotteryNumbers.length; i++) {\n            if (_winningNumbers[i] == lotteryNumbers[i]) {\n                matchingNumber = matchingNumber + 1;\n            }\n        }\n        uint256 reward = 0;\n        if (matchingNumber > 1) {\n            uint256 amount = lotteryNFT.getLotteryAmount(_tokenId);\n            uint256 poolAmount =\n                getTotalRewards(_issueIndex)\n                    .mul(allocation[3 - matchingNumber])\n                    .div(100);\n            reward = amount\n                .mul(1e12)\n                .div(getMatchingRewardAmount(_issueIndex, matchingNumber))\n                .mul(poolAmount);\n        }\n        return reward.div(1e12);\n    }\n\n    // Update admin address by the previous dev.\n    function setAdmin(address _adminAddress) public onlyOwner {\n        adminAddress = _adminAddress;\n    }\n\n    // Withdraw without caring about rewards. EMERGENCY ONLY.\n    function adminWithdraw(uint256 _amount) public onlyAdmin {\n        busd.safeTransfer(address(msg.sender), _amount);\n        emit DevWithdraw(msg.sender, _amount);\n    }\n\n    // Set the minimum price for one ticket\n    function setMinPrice(uint256 _price) external onlyAdmin {\n        minPrice = _price;\n    }\n\n    // Set the minimum price for one ticket\n    function setMaxNumber(uint8 _maxNumber) external onlyAdmin {\n        maxNumber = _maxNumber;\n    }\n\n    // Set the allocation for one reward\n    function setAllocation(\n        uint8 _allcation1,\n        uint8 _allcation2,\n        uint8 _allcation3,\n        uint8 _allcation4\n    ) external onlyAdmin {\n        require(\n            _allcation1 + _allcation2 + _allcation3 + _allcation4 <= 100,\n            \"Lottery::setAllocation:: exceed 100\"\n        );\n        allocation = [_allcation1, _allcation2, _allcation3, _allcation4];\n    }\n\n    function setDevAddress(address _newAddress) external onlyAdmin {\n        devAddress = _newAddress;\n    }\n}\n",
  "sourcePath": "/Users/thanwa/git/token-lottery/contracts/Lottery.sol",
  "compiler": {
    "name": "solc",
    "version": "0.6.12+commit.27d51765.Emscripten.clang"
  },
  "schemaVersion": "3.3.4",
  "updatedAt": "2021-04-23T11:22:50.076Z",
  "networkType": "ethereum",
  "devdoc": {
    "kind": "dev",
    "methods": {
      "owner()": {
        "details": "Returns the address of the current owner."
      },
      "renounceOwnership()": {
        "details": "Leaves the contract without owner. It will not be possible to call `onlyOwner` functions anymore. Can only be called by the current owner. NOTE: Renouncing ownership will leave the contract without an owner, thereby removing any functionality that is only available to the owner."
      },
      "transferOwnership(address)": {
        "details": "Transfers ownership of the contract to a new account (`newOwner`). Can only be called by the current owner."
      }
    },
    "version": 1
  },
  "userdoc": {
    "kind": "user",
    "methods": {},
    "version": 1
  }
}