{
  "contractName": "Lottery",
  "abi": [
    {
      "inputs": [],
      "stateMutability": "nonpayable",
      "type": "constructor"
    },
    {
      "anonymous": false,
      "inputs": [
        {
          "indexed": true,
          "internalType": "address",
          "name": "user",
          "type": "address"
        },
        {
          "indexed": false,
          "internalType": "uint256",
          "name": "tokenId",
          "type": "uint256"
        }
      ],
      "name": "Buy",
      "type": "event"
    },
    {
      "anonymous": false,
      "inputs": [
        {
          "indexed": true,
          "internalType": "address",
          "name": "user",
          "type": "address"
        },
        {
          "indexed": false,
          "internalType": "uint256",
          "name": "tokenid",
          "type": "uint256"
        },
        {
          "indexed": false,
          "internalType": "uint256",
          "name": "amount",
          "type": "uint256"
        }
      ],
      "name": "Claim",
      "type": "event"
    },
    {
      "anonymous": false,
      "inputs": [
        {
          "indexed": true,
          "internalType": "address",
          "name": "user",
          "type": "address"
        },
        {
          "indexed": false,
          "internalType": "uint256",
          "name": "amount",
          "type": "uint256"
        }
      ],
      "name": "DevWithdraw",
      "type": "event"
    },
    {
      "anonymous": false,
      "inputs": [
        {
          "indexed": true,
          "internalType": "uint256",
          "name": "issueIndex",
          "type": "uint256"
        },
        {
          "indexed": false,
          "internalType": "uint8[4]",
          "name": "winningNumbers",
          "type": "uint8[4]"
        }
      ],
      "name": "Drawing",
      "type": "event"
    },
    {
      "anonymous": false,
      "inputs": [
        {
          "indexed": true,
          "internalType": "address",
          "name": "user",
          "type": "address"
        },
        {
          "indexed": false,
          "internalType": "uint256",
          "name": "amount",
          "type": "uint256"
        }
      ],
      "name": "MultiBuy",
      "type": "event"
    },
    {
      "anonymous": false,
      "inputs": [
        {
          "indexed": true,
          "internalType": "address",
          "name": "user",
          "type": "address"
        },
        {
          "indexed": false,
          "internalType": "uint256",
          "name": "amount",
          "type": "uint256"
        }
      ],
      "name": "MultiClaim",
      "type": "event"
    },
    {
      "anonymous": false,
      "inputs": [
        {
          "indexed": true,
          "internalType": "address",
          "name": "previousOwner",
          "type": "address"
        },
        {
          "indexed": true,
          "internalType": "address",
          "name": "newOwner",
          "type": "address"
        }
      ],
      "name": "OwnershipTransferred",
      "type": "event"
    },
    {
      "anonymous": false,
      "inputs": [
        {
          "indexed": true,
          "internalType": "address",
          "name": "user",
          "type": "address"
        },
        {
          "indexed": true,
          "internalType": "address",
          "name": "referrer",
          "type": "address"
        },
        {
          "indexed": false,
          "internalType": "uint256",
          "name": "commissionAmount",
          "type": "uint256"
        }
      ],
      "name": "ReferralCommissionPaid",
      "type": "event"
    },
    {
      "anonymous": false,
      "inputs": [
        {
          "indexed": true,
          "internalType": "uint256",
          "name": "issueIndex",
          "type": "uint256"
        }
      ],
      "name": "Reset",
      "type": "event"
    },
    {
      "inputs": [],
      "name": "MAXIMUM_REFERRAL_COMMISSION_RATE",
      "outputs": [
        {
          "internalType": "uint16",
          "name": "",
          "type": "uint16"
        }
      ],
      "stateMutability": "view",
      "type": "function",
      "constant": true
    },
    {
      "inputs": [],
      "name": "adminAddress",
      "outputs": [
        {
          "internalType": "address",
          "name": "",
          "type": "address"
        }
      ],
      "stateMutability": "view",
      "type": "function",
      "constant": true
    },
    {
      "inputs": [
        {
          "internalType": "uint256",
          "name": "",
          "type": "uint256"
        }
      ],
      "name": "allocation",
      "outputs": [
        {
          "internalType": "uint8",
          "name": "",
          "type": "uint8"
        }
      ],
      "stateMutability": "view",
      "type": "function",
      "constant": true
    },
    {
      "inputs": [],
      "name": "busd",
      "outputs": [
        {
          "internalType": "contract IERC20",
          "name": "",
          "type": "address"
        }
      ],
      "stateMutability": "view",
      "type": "function",
      "constant": true
    },
    {
      "inputs": [],
      "name": "devAddress",
      "outputs": [
        {
          "internalType": "address",
          "name": "",
          "type": "address"
        }
      ],
      "stateMutability": "view",
      "type": "function",
      "constant": true
    },
    {
      "inputs": [],
      "name": "drawingPhase",
      "outputs": [
        {
          "internalType": "bool",
          "name": "",
          "type": "bool"
        }
      ],
      "stateMutability": "view",
      "type": "function",
      "constant": true
    },
    {
      "inputs": [
        {
          "internalType": "uint256",
          "name": "",
          "type": "uint256"
        },
        {
          "internalType": "uint256",
          "name": "",
          "type": "uint256"
        }
      ],
      "name": "historyAmount",
      "outputs": [
        {
          "internalType": "uint256",
          "name": "",
          "type": "uint256"
        }
      ],
      "stateMutability": "view",
      "type": "function",
      "constant": true
    },
    {
      "inputs": [
        {
          "internalType": "uint256",
          "name": "",
          "type": "uint256"
        },
        {
          "internalType": "uint256",
          "name": "",
          "type": "uint256"
        }
      ],
      "name": "historyNumbers",
      "outputs": [
        {
          "internalType": "uint8",
          "name": "",
          "type": "uint8"
        }
      ],
      "stateMutability": "view",
      "type": "function",
      "constant": true
    },
    {
      "inputs": [],
      "name": "issueIndex",
      "outputs": [
        {
          "internalType": "uint256",
          "name": "",
          "type": "uint256"
        }
      ],
      "stateMutability": "view",
      "type": "function",
      "constant": true
    },
    {
      "inputs": [],
      "name": "lastTimestamp",
      "outputs": [
        {
          "internalType": "uint256",
          "name": "",
          "type": "uint256"
        }
      ],
      "stateMutability": "view",
      "type": "function",
      "constant": true
    },
    {
      "inputs": [
        {
          "internalType": "uint256",
          "name": "",
          "type": "uint256"
        },
        {
          "internalType": "uint256",
          "name": "",
          "type": "uint256"
        }
      ],
      "name": "lotteryInfo",
      "outputs": [
        {
          "internalType": "uint256",
          "name": "",
          "type": "uint256"
        }
      ],
      "stateMutability": "view",
      "type": "function",
      "constant": true
    },
    {
      "inputs": [],
      "name": "lotteryNFT",
      "outputs": [
        {
          "internalType": "contract LotteryNFT",
          "name": "",
          "type": "address"
        }
      ],
      "stateMutability": "view",
      "type": "function",
      "constant": true
    },
    {
      "inputs": [],
      "name": "lotteryReferral",
      "outputs": [
        {
          "internalType": "contract ILotteryReferral",
          "name": "",
          "type": "address"
        }
      ],
      "stateMutability": "view",
      "type": "function",
      "constant": true
    },
    {
      "inputs": [],
      "name": "maxNumber",
      "outputs": [
        {
          "internalType": "uint8",
          "name": "",
          "type": "uint8"
        }
      ],
      "stateMutability": "view",
      "type": "function",
      "constant": true
    },
    {
      "inputs": [],
      "name": "minPrice",
      "outputs": [
        {
          "internalType": "uint256",
          "name": "",
          "type": "uint256"
        }
      ],
      "stateMutability": "view",
      "type": "function",
      "constant": true
    },
    {
      "inputs": [],
      "name": "owner",
      "outputs": [
        {
          "internalType": "address",
          "name": "",
          "type": "address"
        }
      ],
      "stateMutability": "view",
      "type": "function",
      "constant": true
    },
    {
      "inputs": [],
      "name": "referralCommissionRate",
      "outputs": [
        {
          "internalType": "uint16",
          "name": "",
          "type": "uint16"
        }
      ],
      "stateMutability": "view",
      "type": "function",
      "constant": true
    },
    {
      "inputs": [],
      "name": "renounceOwnership",
      "outputs": [],
      "stateMutability": "nonpayable",
      "type": "function"
    },
    {
      "inputs": [],
      "name": "totalAddresses",
      "outputs": [
        {
          "internalType": "uint256",
          "name": "",
          "type": "uint256"
        }
      ],
      "stateMutability": "view",
      "type": "function",
      "constant": true
    },
    {
      "inputs": [],
      "name": "totalAmount",
      "outputs": [
        {
          "internalType": "uint256",
          "name": "",
          "type": "uint256"
        }
      ],
      "stateMutability": "view",
      "type": "function",
      "constant": true
    },
    {
      "inputs": [
        {
          "internalType": "address",
          "name": "newOwner",
          "type": "address"
        }
      ],
      "name": "transferOwnership",
      "outputs": [],
      "stateMutability": "nonpayable",
      "type": "function"
    },
    {
      "inputs": [
        {
          "internalType": "uint256",
          "name": "",
          "type": "uint256"
        },
        {
          "internalType": "uint64",
          "name": "",
          "type": "uint64"
        }
      ],
      "name": "userBuyAmountSum",
      "outputs": [
        {
          "internalType": "uint256",
          "name": "",
          "type": "uint256"
        }
      ],
      "stateMutability": "view",
      "type": "function",
      "constant": true
    },
    {
      "inputs": [
        {
          "internalType": "address",
          "name": "",
          "type": "address"
        },
        {
          "internalType": "uint256",
          "name": "",
          "type": "uint256"
        }
      ],
      "name": "userInfo",
      "outputs": [
        {
          "internalType": "uint256",
          "name": "",
          "type": "uint256"
        }
      ],
      "stateMutability": "view",
      "type": "function",
      "constant": true
    },
    {
      "inputs": [
        {
          "internalType": "uint256",
          "name": "",
          "type": "uint256"
        }
      ],
      "name": "winningNumbers",
      "outputs": [
        {
          "internalType": "uint8",
          "name": "",
          "type": "uint8"
        }
      ],
      "stateMutability": "view",
      "type": "function",
      "constant": true
    },
    {
      "inputs": [
        {
          "internalType": "contract IERC20",
          "name": "_busd",
          "type": "address"
        },
        {
          "internalType": "contract LotteryNFT",
          "name": "_lottery",
          "type": "address"
        },
        {
          "internalType": "uint256",
          "name": "_minPrice",
          "type": "uint256"
        },
        {
          "internalType": "uint8",
          "name": "_maxNumber",
          "type": "uint8"
        },
        {
          "internalType": "address",
          "name": "_owner",
          "type": "address"
        },
        {
          "internalType": "address",
          "name": "_adminAddress",
          "type": "address"
        }
      ],
      "name": "initialize",
      "outputs": [],
      "stateMutability": "nonpayable",
      "type": "function"
    },
    {
      "inputs": [],
      "name": "drawed",
      "outputs": [
        {
          "internalType": "bool",
          "name": "",
          "type": "bool"
        }
      ],
      "stateMutability": "view",
      "type": "function",
      "constant": true
    },
    {
      "inputs": [],
      "name": "reset",
      "outputs": [],
      "stateMutability": "nonpayable",
      "type": "function"
    },
    {
      "inputs": [],
      "name": "enterDrawingPhase",
      "outputs": [],
      "stateMutability": "nonpayable",
      "type": "function"
    },
    {
      "inputs": [
        {
          "internalType": "uint256",
          "name": "_externalRandomNumber",
          "type": "uint256"
        }
      ],
      "name": "drawing",
      "outputs": [],
      "stateMutability": "nonpayable",
      "type": "function"
    },
    {
      "inputs": [
        {
          "internalType": "uint256",
          "name": "_price",
          "type": "uint256"
        },
        {
          "internalType": "uint8[4]",
          "name": "_numbers",
          "type": "uint8[4]"
        }
      ],
      "name": "injectReward",
      "outputs": [],
      "stateMutability": "nonpayable",
      "type": "function"
    },
    {
      "inputs": [
        {
          "internalType": "uint256",
          "name": "_price",
          "type": "uint256"
        },
        {
          "internalType": "uint8[4]",
          "name": "_numbers",
          "type": "uint8[4]"
        },
        {
          "internalType": "address",
          "name": "_referrer",
          "type": "address"
        }
      ],
      "name": "buy",
      "outputs": [],
      "stateMutability": "nonpayable",
      "type": "function"
    },
    {
      "inputs": [
        {
          "internalType": "uint256",
          "name": "_price",
          "type": "uint256"
        },
        {
          "internalType": "uint8[4][]",
          "name": "_numbers",
          "type": "uint8[4][]"
        },
        {
          "internalType": "address",
          "name": "_referrer",
          "type": "address"
        }
      ],
      "name": "multiBuy",
      "outputs": [],
      "stateMutability": "nonpayable",
      "type": "function"
    },
    {
      "inputs": [
        {
          "internalType": "uint256",
          "name": "_tokenId",
          "type": "uint256"
        }
      ],
      "name": "claimReward",
      "outputs": [],
      "stateMutability": "nonpayable",
      "type": "function"
    },
    {
      "inputs": [
        {
          "internalType": "uint256[]",
          "name": "_tickets",
          "type": "uint256[]"
        }
      ],
      "name": "multiClaim",
      "outputs": [],
      "stateMutability": "nonpayable",
      "type": "function"
    },
    {
      "inputs": [
        {
          "internalType": "uint8[4]",
          "name": "number",
          "type": "uint8[4]"
        }
      ],
      "name": "generateNumberIndexKey",
      "outputs": [
        {
          "internalType": "uint64[11]",
          "name": "",
          "type": "uint64[11]"
        }
      ],
      "stateMutability": "pure",
      "type": "function",
      "constant": true
    },
    {
      "inputs": [
        {
          "internalType": "uint256",
          "name": "_issueIndex",
          "type": "uint256"
        },
        {
          "internalType": "uint256",
          "name": "_matchingNumber",
          "type": "uint256"
        }
      ],
      "name": "getMatchingRewardAmount",
      "outputs": [
        {
          "internalType": "uint256",
          "name": "",
          "type": "uint256"
        }
      ],
      "stateMutability": "view",
      "type": "function",
      "constant": true
    },
    {
      "inputs": [
        {
          "internalType": "uint256",
          "name": "_issueIndex",
          "type": "uint256"
        }
      ],
      "name": "getTotalRewards",
      "outputs": [
        {
          "internalType": "uint256",
          "name": "",
          "type": "uint256"
        }
      ],
      "stateMutability": "view",
      "type": "function",
      "constant": true
    },
    {
      "inputs": [
        {
          "internalType": "uint256",
          "name": "_tokenId",
          "type": "uint256"
        }
      ],
      "name": "getRewardView",
      "outputs": [
        {
          "internalType": "uint256",
          "name": "",
          "type": "uint256"
        }
      ],
      "stateMutability": "view",
      "type": "function",
      "constant": true
    },
    {
      "inputs": [
        {
          "internalType": "address",
          "name": "_adminAddress",
          "type": "address"
        }
      ],
      "name": "setAdmin",
      "outputs": [],
      "stateMutability": "nonpayable",
      "type": "function"
    },
    {
      "inputs": [
        {
          "internalType": "uint256",
          "name": "_amount",
          "type": "uint256"
        }
      ],
      "name": "adminWithdraw",
      "outputs": [],
      "stateMutability": "nonpayable",
      "type": "function"
    },
    {
      "inputs": [
        {
          "internalType": "uint256",
          "name": "_price",
          "type": "uint256"
        }
      ],
      "name": "setMinPrice",
      "outputs": [],
      "stateMutability": "nonpayable",
      "type": "function"
    },
    {
      "inputs": [
        {
          "internalType": "uint8",
          "name": "_maxNumber",
          "type": "uint8"
        }
      ],
      "name": "setMaxNumber",
      "outputs": [],
      "stateMutability": "nonpayable",
      "type": "function"
    },
    {
      "inputs": [
        {
          "internalType": "uint8",
          "name": "_allcation1",
          "type": "uint8"
        },
        {
          "internalType": "uint8",
          "name": "_allcation2",
          "type": "uint8"
        },
        {
          "internalType": "uint8",
          "name": "_allcation3",
          "type": "uint8"
        },
        {
          "internalType": "uint8",
          "name": "_allcation4",
          "type": "uint8"
        }
      ],
      "name": "setAllocation",
      "outputs": [],
      "stateMutability": "nonpayable",
      "type": "function"
    },
    {
      "inputs": [
        {
          "internalType": "address",
          "name": "_newAddress",
          "type": "address"
        }
      ],
      "name": "setDevAddress",
      "outputs": [],
      "stateMutability": "nonpayable",
      "type": "function"
    },
    {
      "inputs": [
        {
          "internalType": "contract ILotteryReferral",
          "name": "_lotteryReferral",
          "type": "address"
        }
      ],
      "name": "setLotteryReferral",
      "outputs": [],
      "stateMutability": "nonpayable",
      "type": "function"
    },
    {
      "inputs": [
        {
          "internalType": "uint16",
          "name": "_referralCommissionRate",
          "type": "uint16"
        }
      ],
      "name": "setReferralCommissionRate",
      "outputs": [],
      "stateMutability": "nonpayable",
      "type": "function"
    }
  ],
  "bytecode": "0x6000600b819055600c819055600d8190556010805461ffff60a81b1916601960aa1b179055610100604052608081815260a082905260c082905260e0919091526200004f90601190600462000064565b503480156200005d57600080fd5b5062000119565b600183019183908215620000ec5791602002820160005b83821115620000bb57835183826101000a81548160ff021916908360ff16021790555092602001926001016020816000010492830192600103026200007b565b8015620000ea5782816101000a81549060ff0219169055600101602081600001049283019260010302620000bb565b505b50620000fa929150620000fe565b5090565b5b80821115620000fa57805460ff19168155600101620000ff565b61400880620001296000396000f3fe608060405234801561001057600080fd5b506004361061028a5760003560e01c8063704b6c021161015c578063cfad5277116100ce578063e134541611610087578063e13454161461053b578063e45be8eb14610543578063e8adfbc71461054b578063f2111e4914610553578063f2fde38b14610566578063fc6f9468146105795761028a565b8063cfad5277146104ea578063d0d41fe1146104f2578063d1f7dbcf14610505578063d30ef61b14610518578063d411b0fa14610520578063d826f88f146105335761028a565b806385dcdf1b1161012057806385dcdf1b146104765780638da5cb5b14610496578063a42206c91461049e578063ae169a50146104b1578063c03cd0fb146104c4578063c39f49c0146104d75761028a565b8063704b6c0214610422578063715018a6146104355780637c5b4a371461043d57806383dd0ee414610450578063850bad94146104635761028a565b80633ca5b23411610200578063552164ee116101b9578063552164ee146103bb57806355dbc826146103ce57806359bcbd68146103e15780635ea8cd12146103f45780636575243f146104075780636a28f8281461041a5761028a565b80633ca5b234146103505780634144415a14610358578063438209f51461036b57806348b22bfb146103805780634e45f095146103955780634ed73d28146103a85761028a565b8063251b7e8911610252578063251b7e89146102e55780632c500414146102fa5780632f506b201461030d578063324a5562146103205780633a4f6999146103335780633ad10ef6146103485761028a565b806311e420651461028f57806319d8ac61146102a45780631a39d8ef146102c25780631ff68866146102ca57806321ce919d146102d2575b600080fd5b6102a261029d366004613204565b610581565b005b6102ac6106da565b6040516102b99190613f15565b60405180910390f35b6102ac6106e0565b6102a26106e6565b6102ac6102e036600461309a565b610744565b6102ed610772565b6040516102b99190613507565b6102a2610308366004613387565b610786565b6102ac61031b366004613414565b610936565b6102a261032e36600461344e565b610953565b61033b61099d565b6040516102b99190613f2c565b6102ed6109ad565b6102ed6109bc565b6102a26103663660046133b3565b6109cb565b610373610d66565b6040516102b9919061364a565b610388610d6f565b6040516102b99190613f06565b61033b6103a336600461329e565b610d75565b6102a26103b63660046130c5565b610d9c565b6102ac6103c936600461329e565b611034565b6102a26103dc36600461327c565b6110a8565b61033b6103ef3660046133f3565b61111a565b6102a261040236600461329e565b611150565b6102ac6104153660046133f3565b61117f565b6102ac611198565b6102a2610430366004613062565b61119e565b6102a26111ea565b6102a261044b36600461329e565b61125e565b6102a261045e36600461346a565b6112e3565b61033b61047136600461329e565b611377565b610489610484366004613159565b611384565b6040516102b991906135e5565b6102ed61150b565b6102a26104ac36600461329e565b61151a565b6102a26104bf36600461329e565b6117a2565b6102a26104d23660046132ce565b6119c4565b6102ac6104e53660046133f3565b611dc4565b6102ac611ddd565b6102a2610500366004613062565b611de3565b6102ac6105133660046133f3565b611e2f565b610388611e61565b6102ac61052e36600461329e565b611e72565b6102a2612173565b610373612423565b6102ac61242e565b6102ed612434565b6102a2610561366004613062565b612443565b6102a2610574366004613062565b612495565b6102ed612540565b600054600160a81b900460ff168061059c575061059c61254f565b806105b15750600054600160a01b900460ff16155b6105d65760405162461bcd60e51b81526004016105cd90613af1565b60405180910390fd5b600054600160a81b900460ff1615801561060d576000805460ff60a01b1960ff60a81b19909116600160a81b1716600160a01b1790555b600280546001600160a01b03199081166001600160a01b038a81169190911790925560038054821689841617905560058790556004805460ff60a01b1916600160a01b60ff8916021790911691841691909117815542600e556040805160808101825260328152601e6020820152600a91810182905260608101919091526106989160019190612e7c565b506106a283612555565b601280546001600160a01b0319166001600160a01b03841617905580156106d1576000805460ff60a81b191690555b50505050505050565b600e5481565b600d5481565b6004546001600160a01b031633146107105760405162461bcd60e51b81526004016105cd906137be565b610718612423565b156107355760405162461bcd60e51b81526004016105cd906136b9565b6010805460ff19166001179055565b600a602052816000526040600020818154811061075d57fe5b90600052602060002001600091509150505481565b60105461010090046001600160a01b031681565b6004546001600160a01b031633146107b05760405162461bcd60e51b81526004016105cd906137be565b6107b8612423565b156107d55760405162461bcd60e51b81526004016105cd90613d54565b60005b600481101561081a578181600481106107ed57fe5b602002015160ff16156108125760405162461bcd60e51b81526004016105cd90613c8a565b6001016107d8565b50600354600b54604051620dce4760ea1b81526000926001600160a01b0316916337391c009161085291309187918991600401613535565b602060405180830381600087803b15801561086c57600080fd5b505af1158015610880573d6000803e3d6000fd5b505050506040513d601f19601f820116820180604052508101906108a491906132b6565b6002549091506108bf906001600160a01b03163330866125a0565b600b54600090815260076020908152604082208054600181018255908352912001819055600d546108f090846125fe565b600d5542600e5560405130907fe3d4187f6ca4248660cc0ac8b8056515bac4a8132be2eca31d6d0cc170722a7e90610929908490613f15565b60405180910390a2505050565b600960209081526000928352604080842090915290825290205481565b6004546001600160a01b0316331461097d5760405162461bcd60e51b81526004016105cd906137be565b6004805460ff909216600160a01b0260ff60a01b19909216919091179055565b600454600160a01b900460ff1681565b6012546001600160a01b031681565b6002546001600160a01b031681565b6109d3612423565b156109f05760405162461bcd60e51b81526004016105cd90613e72565b60105460ff1615610a135760405162461bcd60e51b81526004016105cd906138ca565b600554831015610a355760405162461bcd60e51b81526004016105cd9061384c565b60005b6004811015610a8a5760048054600160a01b900460ff1690849083908110610a5c57fe5b602002015160ff161115610a825760405162461bcd60e51b81526004016105cd9061391c565b600101610a38565b50600354600b54604051620dce4760ea1b81526000926001600160a01b0316916337391c0091610ac291339188918a91600401613535565b602060405180830381600087803b158015610adc57600080fd5b505af1158015610af0573d6000803e3d6000fd5b505050506040513d601f19601f82011682018060405250810190610b1491906132b6565b600b546000908152600760209081526040808320805460018101825590845282842001849055338352600a909152902054909150610b5657600c805460010190555b336000908152600a6020908152604082208054600181018255908352912001819055600d54610b8590856125fe565b600d5542600e55610b94612f0f565b610b9d84611384565b905060005b600b811015610c4f57610c068660096000600b54815260200190815260200160002060008585600b8110610bd257fe5b60200201516001600160401b03166001600160401b03168152602001908152602001600020546125fe90919063ffffffff16565b600b8054600090815260096020526040812091859085908110610c2557fe5b602090810291909101516001600160401b0316825281019190915260400160002055600101610ba2565b50600254610c68906001600160a01b03163330886125a0565b600085118015610c87575060105461010090046001600160a01b031615155b8015610c9b57506001600160a01b03831615155b8015610cb057506001600160a01b0383163314155b15610d1e57601054604051630c7f7b6b60e01b81526101009091046001600160a01b031690630c7f7b6b90610ceb903390879060040161351b565b600060405180830381600087803b158015610d0557600080fd5b505af1158015610d19573d6000803e3d6000fd5b505050505b336001600160a01b03167fe3d4187f6ca4248660cc0ac8b8056515bac4a8132be2eca31d6d0cc170722a7e83604051610d579190613f15565b60405180910390a25050505050565b60105460ff1681565b6103e881565b600f8160048110610d8257fe5b60209182820401919006915054906101000a900460ff1681565b6000805b8251811015610f605760035483516001600160a01b0390911690636352211e90859084908110610dcc57fe5b60200260200101516040518263ffffffff1660e01b8152600401610df09190613f15565b60206040518083038186803b158015610e0857600080fd5b505afa158015610e1c573d6000803e3d6000fd5b505050506040513d601f19601f82011682018060405250810190610e40919061307e565b6001600160a01b0316336001600160a01b031614610e705760405162461bcd60e51b81526004016105cd90613cd9565b60035483516001600160a01b03909116906336dbd2f990859084908110610e9357fe5b60200260200101516040518263ffffffff1660e01b8152600401610eb79190613f15565b60206040518083038186803b158015610ecf57600080fd5b505afa158015610ee3573d6000803e3d6000fd5b505050506040513d601f19601f82011682018060405250810190610f0791906131e4565b15610f245760405162461bcd60e51b81526004016105cd9061395e565b6000610f42848381518110610f3557fe5b6020026020010151611e72565b90508015610f5757610f5481846125fe565b92505b50600101610da0565b50600354604051637431035560e01b81526001600160a01b0390911690637431035590610f919085906004016135a1565b600060405180830381600087803b158015610fab57600080fd5b505af1158015610fbf573d6000803e3d6000fd5b505050506000811115610fef57600254610fe3906001600160a01b0316338361262a565b610fef33600d5461264e565b336001600160a01b03167f6606374655494f5c0e2d6f392656e9777afd9ac5f61527d1bcad50b7e918a03e826040516110289190613f15565b60405180910390a25050565b6000600b548211156110585760405162461bcd60e51b81526004016105cd90613995565b611060612423565b15801561106e5750600b5482145b1561107c5750600d546110a3565b6000828152600860205260408120805490919061109557fe5b906000526020600020015490505b919050565b6000546001600160a01b031633146110d25760405162461bcd60e51b81526004016105cd90613c10565b6103e861ffff821611156110f85760405162461bcd60e51b81526004016105cd90613704565b6010805461ffff909216600160a81b0261ffff60a81b19909216919091179055565b6006602052816000526040600020816004811061113357fe5b602081049091015460ff601f9092166101000a9004169150829050565b6004546001600160a01b0316331461117a5760405162461bcd60e51b81526004016105cd906137be565b600555565b6007602052816000526040600020818154811061075d57fe5b600b5481565b6000546001600160a01b031633146111c85760405162461bcd60e51b81526004016105cd90613c10565b600480546001600160a01b0319166001600160a01b0392909216919091179055565b6000546001600160a01b031633146112145760405162461bcd60e51b81526004016105cd90613c10565b600080546040516001600160a01b03909116907f8be0079c531659141344cd1fd0a4f28419497f9722a3daafe3b4186f6b6457e0908390a3600080546001600160a01b0319169055565b6004546001600160a01b031633146112885760405162461bcd60e51b81526004016105cd906137be565b60025461129f906001600160a01b0316338361262a565b336001600160a01b03167f050d1c64cc22ce461b9bc14f6b73852566da02b03c155242bc63169d1fec42aa826040516112d89190613f15565b60405180910390a250565b6004546001600160a01b0316331461130d5760405162461bcd60e51b81526004016105cd906137be565b60648183858701010160ff1611156113375760405162461bcd60e51b81526004016105cd90613ec3565b6040805160808101825260ff80871682528581166020830152848116928201929092529082166060820152611370906001906004612e7c565b5050505050565b60018160048110610d8257fe5b61138c612f0f565b611394612f2e565b825160ff9081168252602080850151821690830152604080850151821690830152606080850151909116908201526113ca612f0f565b6060828101805160408086018051602080890180518a516201000094850264010000000092830266010000000000009092029190910101909601650100020003009081016001600160401b039081168b52855183518d51908702908a02010163010002009081018216948c0194909452885183518d51908702908a02010163010003009081018216978c0197909752885186518d51908702908a020101630200030090810182169a8c019a909a5288518651845190870299029890980190970101861660808a015280518a51840201610100908101871660a08b015284518b5185020161020001871660c08b015287519a518402909a0161030001861660e08a015283518151840201909101851698880198909852845197518102909701909101821661012086015291519151909402010190911661014082015292915050565b6000546001600160a01b031690565b6004546001600160a01b031633146115445760405162461bcd60e51b81526004016105cd906137be565b61154c612423565b156115695760405162461bcd60e51b81526004016105cd906139e9565b60105460ff1661158b5760405162461bcd60e51b81526004016105cd90613772565b6004546000908190600160a01b900460ff16436000190140825b600a8110156115c2576115b9600b54611034565b506001016115a5565b5060005a905081600c5482886040516020016115e1949392919061366b565b60408051601f19818403018152908290528051602091820120600f805460ff191687830660010160ff811691909117909155600d54919850965061162d929091859185918b910161366b565b60408051601f19818403018152908290528051602091820120600f805460ff8884066001019081166101000261ff001990921691909117909155600e54919850965061167f92859285918b910161366b565b60408051808303601f19018152908290528051602091820120600f805460ff600189850601908116620100000262ff0000199092169190911790915590975095506116d091849184918a9101613655565b60408051808303601f190181529181528151602092830120600f805460ff60018985060190811663010000000263ff00000019909216919091178255600b54600090815260069095529290932090975090955061172e916004612f4c565b5061173761281b565b600b546000908152600860205260409020611753916004612f7f565b506010805460ff19169055600b546040517fa13e935b188993737b3009d62bd916dcbe9e82d8236d75981eeadf26a1460d3d9061179290600f90613617565b60405180910390a2505050505050565b6003546040516331a9108f60e11b81526001600160a01b0390911690636352211e906117d2908490600401613f15565b60206040518083038186803b1580156117ea57600080fd5b505afa1580156117fe573d6000803e3d6000fd5b505050506040513d601f19601f82011682018060405250810190611822919061307e565b6001600160a01b0316336001600160a01b0316146118525760405162461bcd60e51b81526004016105cd90613c45565b6003546040516336dbd2f960e01b81526001600160a01b03909116906336dbd2f990611882908490600401613f15565b60206040518083038186803b15801561189a57600080fd5b505afa1580156118ae573d6000803e3d6000fd5b505050506040513d601f19601f820116820180604052508101906118d291906131e4565b156118ef5760405162461bcd60e51b81526004016105cd90613aba565b60006118fa82611e72565b600354604051630ae169a560e41b81529192506001600160a01b03169063ae169a509061192b908590600401613f15565b600060405180830381600087803b15801561194557600080fd5b505af1158015611959573d6000803e3d6000fd5b5050505060008111156119895760025461197d906001600160a01b0316338361262a565b61198933600d5461264e565b336001600160a01b03167f34fcbac0073d7c3d388e51312faf357774904998eeb8fca628b9e6f65ee1cbf78383604051611028929190613f1e565b6119cc612423565b156119e95760405162461bcd60e51b81526004016105cd90613e72565b60105460ff1615611a0c5760405162461bcd60e51b81526004016105cd906138ca565b600554831015611a2e5760405162461bcd60e51b81526004016105cd90613b82565b6000805b8351811015611cae5760005b6004811015611ad957600460149054906101000a900460ff1660ff16858381518110611a6657fe5b60200260200101518260048110611a7957fe5b602002015160ff1611158015611ab557506000858381518110611a9857fe5b60200260200101518260048110611aab57fe5b602002015160ff16115b611ad15760405162461bcd60e51b81526004016105cd90613a2a565b600101611a3e565b5060035484516000916001600160a01b0316906337391c00903390889086908110611b0057fe5b602002602001015189600b546040518563ffffffff1660e01b8152600401611b2b9493929190613535565b602060405180830381600087803b158015611b4557600080fd5b505af1158015611b59573d6000803e3d6000fd5b505050506040513d601f19601f82011682018060405250810190611b7d91906132b6565b600b546000908152600760209081526040808320805460018101825590845282842001849055338352600a909152902054909150611bbf57600c805460010190555b336000908152600a6020908152604082208054600181018255908352912001819055600d54611bee90876125fe565b600d5542600e55611bff83876125fe565b9250611c09612f0f565b611c25868481518110611c1857fe5b6020026020010151611384565b905060005b600b811015611ca357611c5a8860096000600b54815260200190815260200160002060008585600b8110610bd257fe5b600b8054600090815260096020526040812091859085908110611c7957fe5b602090810291909101516001600160401b0316825281019190915260400160002055600101611c2a565b505050600101611a32565b50600254611cc7906001600160a01b03163330846125a0565b600081118015611ce6575060105461010090046001600160a01b031615155b8015611cfa57506001600160a01b03821615155b8015611d0f57506001600160a01b0382163314155b15611d7d57601054604051630c7f7b6b60e01b81526101009091046001600160a01b031690630c7f7b6b90611d4a903390869060040161351b565b600060405180830381600087803b158015611d6457600080fd5b505af1158015611d78573d6000803e3d6000fd5b505050505b336001600160a01b03167f96c35ad1cc1743f26cb87980c38042de8082358ec6d171a7986d6e11dddfe85782604051611db69190613f15565b60405180910390a250505050565b6008602052816000526040600020818154811061075d57fe5b600c5481565b6004546001600160a01b03163314611e0d5760405162461bcd60e51b81526004016105cd906137be565b601280546001600160a01b0319166001600160a01b0392909216919091179055565b600082815260086020526040812080546005849003908110611e4d57fe5b906000526020600020015490505b92915050565b601054600160a81b900461ffff1681565b600354604051631bf1e00f60e01b815260009182916001600160a01b0390911690631bf1e00f90611ea7908690600401613f15565b60206040518083038186803b158015611ebf57600080fd5b505afa158015611ed3573d6000803e3d6000fd5b505050506040513d601f19601f82011682018060405250810190611ef791906132b6565b9050611f01612f2e565b600354604051635f8e26a760e01b81526001600160a01b0390911690635f8e26a790611f31908790600401613f15565b60806040518083038186803b158015611f4957600080fd5b505afa158015611f5d573d6000803e3d6000fd5b505050506040513d601f19601f82011682018060405250810190611f819190613174565b9050611f8b612f2e565b600083815260066020526040808220815160808101928390529290916004918390855b825461010083900a900460ff16815260206001928301818104948501949093039092029101808411611fae5790505050505050905080600060048110611ff057fe5b602002015160ff166120145760405162461bcd60e51b81526004016105cd90613b3f565b6000805b600481101561205e5783816004811061202d57fe5b602002015160ff1683826004811061204157fe5b602002015160ff161415612056578160010191505b600101612018565b506000600182111561215957600354604051637bd0606560e11b81526000916001600160a01b03169063f7a0c0ca9061209b908b90600401613f15565b60206040518083038186803b1580156120b357600080fd5b505afa1580156120c7573d6000803e3d6000fd5b505050506040513d601f19601f820116820180604052508101906120eb91906132b6565b90506000612132606461212c6001876003036004811061210757fe5b602081049091015460ff601f9092166101000a9004166121268b611034565b90612a80565b90612aba565b9050612154816121266121458a88611e2f565b61212c8664e8d4a51000612a80565b925050505b6121688164e8d4a51000612aba565b979650505050505050565b6004546001600160a01b0316331461219d5760405162461bcd60e51b81526004016105cd906137be565b6121a5612423565b6121c15760405162461bcd60e51b81526004016105cd90613d1d565b42600e556000600c819055600d55600f805463ffffffff191690556010805460ff19169055600b8054600181019091556121fc906004611e2f565b61228f576000612235606461212c6001845b602091828204019190069054906101000a900460ff1660ff166121266001600b5403611034565b60408051608081019182905291925061228d918391601190600490826000855b825461010083900a900460ff168152602060019283018181049485019490930390920291018084116122555790505050505050612afc565b505b61229f6001600b54036003611e2f565b6122f25760006122b5606461212c60018061220e565b6040805160808101918290526011805460ff1682529293506122f0928492600490826001602086018084116122555790505050505050612afc565b505b6123026001600b54036002611e2f565b612356576000612319606461212c6001600261220e565b6040805160808101918290526011805460ff168252929350612354928492600490826001602086018084116122555790505050505050612afc565b505b6000612369606461212c6001600361220e565b60025460125460405163a9059cbb60e01b81529293506001600160a01b039182169263a9059cbb926123a19216908590600401613588565b602060405180830381600087803b1580156123bb57600080fd5b505af11580156123cf573d6000803e3d6000fd5b505050506040513d601f19601f820116820180604052508101906123f391906131e4565b50600b546040517f01c3cbb0d62726ab09d163873ebf9aed99dd8dc08e57bc938f458132fd178cf690600090a250565b600f5460ff16151590565b60055481565b6003546001600160a01b031681565b6000546001600160a01b0316331461246d5760405162461bcd60e51b81526004016105cd90613c10565b601080546001600160a01b0390921661010002610100600160a81b0319909216919091179055565b6000546001600160a01b031633146124bf5760405162461bcd60e51b81526004016105cd90613c10565b6001600160a01b0381166124e55760405162461bcd60e51b81526004016105cd90613806565b600080546040516001600160a01b03808516939216917f8be0079c531659141344cd1fd0a4f28419497f9722a3daafe3b4186f6b6457e091a3600080546001600160a01b0319166001600160a01b0392909216919091179055565b6004546001600160a01b031681565b303b1590565b600080546001600160a01b0319166001600160a01b03831690811782556040519091907f8be0079c531659141344cd1fd0a4f28419497f9722a3daafe3b4186f6b6457e0908290a350565b6125f8846323b872dd60e01b8585856040516024016125c193929190613564565b60408051601f198184030181529190526020810180516001600160e01b03166001600160e01b031990931692909217909152612c34565b50505050565b6000828201838110156126235760405162461bcd60e51b81526004016105cd90613893565b9392505050565b6126498363a9059cbb60e01b84846040516024016125c1929190613588565b505050565b60105461010090046001600160a01b0316158015906126795750601054600160a81b900461ffff1615155b1561281757601054604051634a9fefc760e01b815260009161010090046001600160a01b031690634a9fefc7906126b4908690600401613507565b60206040518083038186803b1580156126cc57600080fd5b505afa1580156126e0573d6000803e3d6000fd5b505050506040513d601f19601f82011682018060405250810190612704919061307e565b60105490915060009061272b906127109061212c908690600160a81b900461ffff16612a80565b90506001600160a01b038216158015906127455750600081115b156125f857600254612761906001600160a01b0316838361262a565b601054604051631b82d29760e31b81526101009091046001600160a01b03169063dc1694b8906127979085908590600401613588565b600060405180830381600087803b1580156127b157600080fd5b505af11580156127c5573d6000803e3d6000fd5b50505050816001600160a01b0316846001600160a01b03167f86ddab457291316e0f5496737e5ca67c4037234c32c3be04c48ae96186893a7b8360405161280c9190613f15565b60405180910390a350505b5050565b612823612f2e565b61282b612f0f565b60408051608081019182905261287e91600f90600490826000855b825461010083900a900460ff168152602060019283018181049485019490930390920291018084116128465790505050505050611384565b600b54600081815260096020818152604080842086516001600160401b039081168652818452828620548787528585528885015190911686528184529185205495855292909152939450612905918560025b60200201516001600160401b03166001600160401b0316815260200190815260200160002054826125fe90919063ffffffff16565b600b54600090815260096020526040812091925061292691908560036128d0565b600b54600090815260096020526040812091925061294791908560046128d0565b90506000612960612959846004612a80565b8390612cc3565b600b54600081815260096020818152604080842060a08b01516001600160401b031685528083529084205494845291905292935090916129a2918760066128d0565b600b5460009081526009602052604081209192506129c391908760076128d0565b600b5460009081526009602052604081209192506129e491908760086128d0565b600b5460009081526009602081905260408220929350612a0792919088906128d0565b600b546000908152600960205260408120919250612a28919087600a6128d0565b90506000612a55612a3a856003612a80565b612a4f612a48886006612a80565b85906125fe565b90612cc3565b60408051608081018252600d5481526020810197909752860193909352505060608301525091505090565b600082612a8f57506000611e5b565b82820282848281612a9c57fe5b04146126235760405162461bcd60e51b81526004016105cd90613bcf565b600061262383836040518060400160405280601a81526020017f536166654d6174683a206469766973696f6e206279207a65726f000000000000815250612d05565b612b04612423565b15612b215760405162461bcd60e51b81526004016105cd90613da3565b60005b6004811015612b765760048054600160a01b900460ff1690839083908110612b4857fe5b602002015160ff161115612b6e5760405162461bcd60e51b81526004016105cd90613a71565b600101612b24565b50600354600b54604051620dce4760ea1b81526000926001600160a01b0316916337391c0091612bae91309187918991600401613535565b602060405180830381600087803b158015612bc857600080fd5b505af1158015612bdc573d6000803e3d6000fd5b505050506040513d601f19601f82011682018060405250810190612c0091906132b6565b600b54600090815260076020908152604082208054600181018255908352912001819055600d549091506108f090846125fe565b6060612c89826040518060400160405280602081526020017f5361666545524332303a206c6f772d6c6576656c2063616c6c206661696c6564815250856001600160a01b0316612d3c9092919063ffffffff16565b8051909150156126495780806020019051810190612ca791906131e4565b6126495760405162461bcd60e51b81526004016105cd90613e28565b600061262383836040518060400160405280601e81526020017f536166654d6174683a207375627472616374696f6e206f766572666c6f770000815250612d53565b60008183612d265760405162461bcd60e51b81526004016105cd9190613686565b506000838581612d3257fe5b0495945050505050565b6060612d4b8484600085612d7f565b949350505050565b60008184841115612d775760405162461bcd60e51b81526004016105cd9190613686565b505050900390565b6060612d8a85612e43565b612da65760405162461bcd60e51b81526004016105cd90613df1565b60006060866001600160a01b03168587604051612dc391906134eb565b60006040518083038185875af1925050503d8060008114612e00576040519150601f19603f3d011682016040523d82523d6000602084013e612e05565b606091505b50915091508115612e19579150612d4b9050565b805115612e295780518082602001fd5b8360405162461bcd60e51b81526004016105cd9190613686565b6000813f7fc5d2460186f7233c927e7db2dcc703c0e500b653ca82273b7bfad8045d85a470818114801590612d4b575050151592915050565b600183019183908215612eff5791602002820160005b83821115612ed057835183826101000a81548160ff021916908360ff1602179055509260200192600101602081600001049283019260010302612e92565b8015612efd5782816101000a81549060ff0219169055600101602081600001049283019260010302612ed0565b505b50612f0b929150612fc6565b5090565b604051806101600160405280600b906020820280368337509192915050565b60405180608001604052806004906020820280368337509192915050565b600183019183908215612eff5791601f016020900482015b82811115612eff578254825591600101919060010190612f64565b828054828255906000526020600020908101928215612fba579160200282015b82811115612fba578251825591602001919060010190612f9f565b50612f0b929150612fdf565b5b80821115612f0b57805460ff19168155600101612fc7565b5b80821115612f0b5760008155600101612fe0565b8035611e5b81613fab565b600082601f83011261300f578081fd5b6130196080613f3a565b905080828460808501111561302d57600080fd5b60005b600481101561305957813561304481613fc3565b83526020928301929190910190600101613030565b50505092915050565b600060208284031215613073578081fd5b813561262381613fab565b60006020828403121561308f578081fd5b815161262381613fab565b600080604083850312156130ac578081fd5b82356130b781613fab565b946020939093013593505050565b600060208083850312156130d7578182fd5b82356001600160401b038111156130ec578283fd5b8301601f810185136130fc578283fd5b803561310f61310a82613f60565b613f3a565b818152838101908385018584028501860189101561312b578687fd5b8694505b8385101561314d57803583526001949094019391850191850161312f565b50979650505050505050565b60006080828403121561316a578081fd5b6126238383612fff565b600060808284031215613185578081fd5b82601f830112613193578081fd5b61319d6080613f3a565b8083856080860111156131ae578384fd5b835b60048110156131d95781516131c481613fc3565b845260209384019391909101906001016131b0565b509095945050505050565b6000602082840312156131f5578081fd5b81518015158114612623578182fd5b60008060008060008060c0878903121561321c578182fd5b863561322781613fab565b9550602087013561323781613fab565b945060408701359350606087013561324e81613fc3565b9250608087013561325e81613fab565b915060a087013561326e81613fab565b809150509295509295509295565b60006020828403121561328d578081fd5b813561ffff81168114612623578182fd5b6000602082840312156132af578081fd5b5035919050565b6000602082840312156132c7578081fd5b5051919050565b6000806000606084860312156132e2578081fd5b833592506020808501356001600160401b038111156132ff578283fd5b8501601f8101871361330f578283fd5b803561331d61310a82613f60565b818152838101908385016080808502860187018c101561333b578788fd5b8795505b84861015613367576133518c83612fff565b845260019590950194928601929081019061333f565b5050809650505050505061337e8560408601612ff4565b90509250925092565b60008060a08385031215613399578182fd5b823591506133aa8460208501612fff565b90509250929050565b600080600060c084860312156133c7578081fd5b833592506133d88560208601612fff565b915060a08401356133e881613fab565b809150509250925092565b60008060408385031215613405578182fd5b50508035926020909101359150565b60008060408385031215613426578182fd5b8235915060208301356001600160401b0381168114613443578182fd5b809150509250929050565b60006020828403121561345f578081fd5b813561262381613fc3565b6000806000806080858703121561347f578182fd5b843561348a81613fc3565b9350602085013561349a81613fc3565b925060408501356134aa81613fc3565b915060608501356134ba81613fc3565b939692955090935050565b8060005b60048110156125f857815160ff168452602093840193909101906001016134c9565b600082516134fd818460208701613f7f565b9190910192915050565b6001600160a01b0391909116815260200190565b6001600160a01b0392831681529116602082015260400190565b6001600160a01b038516815260e0810161355260208301866134c5565b60a082019390935260c0015292915050565b6001600160a01b039384168152919092166020820152604081019190915260600190565b6001600160a01b03929092168252602082015260400190565b6020808252825182820181905260009190848201906040850190845b818110156135d9578351835292840192918401916001016135bd565b50909695505050505050565b6101608101818360005b600b8110156130595781516001600160401b03168352602092830192909101906001016135ef565b905460ff8082168352600882901c81166020840152601082901c8116604084015260189190911c16606082015260800190565b901515815260200190565b9283526020830191909152604082015260600190565b93845260208401929092526040830152606082015260800190565b60006020825282518060208401526136a5816040850160208701613f7f565b601f01601f19169190910160400192915050565b6020808252602b908201527f4c6f74746572793a3a656e74657244726177696e6750686173653a3a20616c7260408201526a1958591e48191c985dd95960aa1b606082015260800190565b60208082526048908201527f736574526566657272616c436f6d6d697373696f6e526174653a20696e76616c60408201527f696420726566657272616c20636f6d6d697373696f6e207261746520626173696060820152677320706f696e747360c01b608082015260a00190565b6020808252602c908201527f4c6f74746572793a3a64726177696e673a3a20656e7465722064726177696e6760408201526b081c1a185cd948199a5c9cdd60a21b606082015260800190565b60208082526028908201527f4c6f74746572793a3a6f6e6c7941646d696e3a3a206f6e6c792061646d696e2060408201526718d85b8818d85b1b60c21b606082015260800190565b60208082526026908201527f4f776e61626c653a206e6577206f776e657220697320746865207a65726f206160408201526564647265737360d01b606082015260800190565b60208082526027908201527f4c6f74746572793a6275793a3a207072696365206d7573742061626f7665206d604082015266696e507269636560c81b606082015260800190565b6020808252601b908201527f536166654d6174683a206164646974696f6e206f766572666c6f770000000000604082015260600190565b60208082526032908201527f4c6f74746572793a3a696e44726177696e6750686173653a3a2064726177696e604082015271672c2063616e206e6f7420627579206e6f7760701b606082015260800190565b60208082526022908201527f4c6f74746572793a3a6275793a3a20657863656564206e756d6265722073636f604082015261706560f01b606082015260800190565b6020808252601d908201527f4c6f74746572793a3a6d756c7469436c61696d3a3a20636c61696d6564000000604082015260600190565b60208082526034908201527f4c6f74746572793a3a676574546f74616c526577617264733a3a205f697373756040820152730ca92dcc8caf040787a40d2e6e6eaca92dcc8caf60631b606082015260800190565b60208082526021908201527f4c6f74746572793a3a64726177696e673a3a20616c72656164792064726177656040820152601960fa1b606082015260800190565b60208082526027908201527f4c6f74746572793a3a6d756c74694275793a3a20657863656564206e756d6265604082015266722073636f706560c81b606082015260800190565b60208082526029908201527f4c6f74746572793a3a696e7465726e616c4275793a3a2065786365656420746860408201526865206d6178696d756d60b81b606082015260800190565b6020808252601e908201527f4c6f74746572793a3a636c61696d5265776172643a3a20636c61696d65640000604082015260600190565b6020808252602e908201527f496e697469616c697a61626c653a20636f6e747261637420697320616c72656160408201526d191e481a5b9a5d1a585b1a5e995960921b606082015260800190565b60208082526023908201527f4c6f74746572793a3a676574526577617264566965773a3a206e6f74206472616040820152621dd95960ea1b606082015260800190565b6020808252602d908201527f4c6f74746572793a3a6d756c74694275793a3a207072696365206d757374206160408201526c626f7665206d696e507269636560981b606082015260800190565b60208082526021908201527f536166654d6174683a206d756c7469706c69636174696f6e206f766572666c6f6040820152607760f81b606082015260800190565b6020808252818101527f4f776e61626c653a2063616c6c6572206973206e6f7420746865206f776e6572604082015260600190565b60208082526025908201527f4c6f74746572793a3a636c61696d5265776172643a3a206e6f742066726f6d2060408201526437bbb732b960d91b606082015260800190565b6020808252602f908201527f4c6f74746572793a3a696e6a6563745265776172643a3a20616363657074206f60408201526e1b9b1e481b9d5b1b081d1a58dad95d608a1b606082015260800190565b60208082526024908201527f4c6f74746572793a3a6d756c7469436c61696d3a3a206e6f742066726f6d206f6040820152633bb732b960e11b606082015260800190565b60208082526018908201527f4c6f74746572793a3a72657365743a3a206472617765643f0000000000000000604082015260600190565b6020808252602f908201527f4c6f74746572793a3a696e6a6563745265776172643a3a206472617765642c2060408201526e63616e206e6f7420627579206e6f7760881b606082015260800190565b6020808252602e908201527f4c6f74746572793a3a696e7465726e616c4275793a3a206472617765642c206360408201526d616e206e6f7420627579206e6f7760901b606082015260800190565b6020808252601d908201527f416464726573733a2063616c6c20746f206e6f6e2d636f6e7472616374000000604082015260600190565b6020808252602a908201527f5361666545524332303a204552433230206f7065726174696f6e20646964206e6040820152691bdd081cdd58d8d9595960b21b606082015260800190565b60208082526031908201527f4c6f74746572793a3a696e44726177696e6750686173653a3a206472617765646040820152702c2063616e206e6f7420627579206e6f7760781b606082015260800190565b60208082526023908201527f4c6f74746572793a3a736574416c6c6f636174696f6e3a3a206578636565642060408201526203130360ec1b606082015260800190565b61ffff91909116815260200190565b90815260200190565b918252602082015260400190565b60ff91909116815260200190565b6040518181016001600160401b0381118282101715613f5857600080fd5b604052919050565b60006001600160401b03821115613f75578081fd5b5060209081020190565b60005b83811015613f9a578181015183820152602001613f82565b838111156125f85750506000910152565b6001600160a01b0381168114613fc057600080fd5b50565b60ff81168114613fc057600080fdfea2646970667358221220b18f147b42293b7ad6f8a9428670a7098324110c353538de2d3640e30e15817364736f6c634300060c0033",
  "immutableReferences": {},
  "source": "// SPDX-License-Identifier: MIT\n\npragma solidity 0.6.12;\npragma experimental ABIEncoderV2;\n\nimport \"./LotteryNFT.sol\";\nimport \"./token/ERC20/IERC20.sol\";\nimport \"./token/ERC20/SafeERC20.sol\";\nimport \"./LotteryOwnable.sol\";\nimport \"./math/SafeMath.sol\";\nimport \"./proxy/Initializable.sol\";\nimport \"./interface/ILotteryReferral.sol\";\n\n// 4 numbers\ncontract Lottery is LotteryOwnable, Initializable {\n    using SafeMath for uint256;\n    using SafeMath for uint8;\n    using SafeERC20 for IERC20;\n\n    uint8 constant keyLengthForEachBuy = 11;\n    // Allocation for first/sencond/third reward\n    uint8[4] public allocation;\n    // The TOKEN to buy lottery\n    IERC20 public busd;\n    // The Lottery NFT for tickets\n    LotteryNFT public lotteryNFT;\n    // adminAddress\n    address public adminAddress;\n    // maxNumber\n    uint8 public maxNumber;\n    // minPrice, if decimal is not 18, please reset it\n    uint256 public minPrice;\n\n    // =================================\n\n    // issueId => winningNumbers[numbers]\n    mapping(uint256 => uint8[4]) public historyNumbers;\n    // issueId => [tokenId]\n    mapping(uint256 => uint256[]) public lotteryInfo;\n    // issueId => [totalAmount, firstMatchAmount, secondMatchingAmount, thirdMatchingAmount]\n    mapping(uint256 => uint256[]) public historyAmount;\n    // issueId => trickyNumber => buyAmountSum\n    mapping(uint256 => mapping(uint64 => uint256)) public userBuyAmountSum;\n    // address => [tokenId]\n    mapping(address => uint256[]) public userInfo;\n\n    uint256 public issueIndex = 0;\n    uint256 public totalAddresses = 0;\n    uint256 public totalAmount = 0;\n    uint256 public lastTimestamp;\n\n    uint8[4] public winningNumbers;\n\n    // default false\n    bool public drawingPhase;\n\n    // =================================\n    // Lottery referral contract address.\n    ILotteryReferral public lotteryReferral;\n    // Referral commission rate in basis points.\n    uint16 public referralCommissionRate = 100;\n    // Max referral commission rate: 10%.\n    uint16 public constant MAXIMUM_REFERRAL_COMMISSION_RATE = 1000;\n    // =================================\n\n    event Buy(address indexed user, uint256 tokenId);\n    event Drawing(uint256 indexed issueIndex, uint8[4] winningNumbers);\n    event Claim(address indexed user, uint256 tokenid, uint256 amount);\n    event DevWithdraw(address indexed user, uint256 amount);\n    event Reset(uint256 indexed issueIndex);\n    event MultiClaim(address indexed user, uint256 amount);\n    event MultiBuy(address indexed user, uint256 amount);\n    event ReferralCommissionPaid(address indexed user, address indexed referrer, uint256 commissionAmount);\n\n    constructor() public {}\n\n    function initialize(\n        IERC20 _busd,\n        LotteryNFT _lottery,\n        uint256 _minPrice,\n        uint8 _maxNumber,\n        address _owner,\n        address _adminAddress\n    ) public initializer {\n        busd = _busd;\n        lotteryNFT = _lottery;\n        minPrice = _minPrice;\n        maxNumber = _maxNumber;\n        adminAddress = _adminAddress;\n        lastTimestamp = block.timestamp;\n        allocation = [50, 30, 10, 10];\n        initOwner(_owner);\n        devAddress = _adminAddress;\n    }\n\n    uint8[4] private nullTicket = [0, 0, 0, 0];\n    address public devAddress;\n\n    modifier onlyAdmin() {\n        require(\n            msg.sender == adminAddress,\n            \"Lottery::onlyAdmin:: only admin can call\"\n        );\n        _;\n    }\n\n    modifier inDrawingPhase() {\n        require(!drawed(), \"Lottery::inDrawingPhase:: drawed, can not buy now\");\n        require(\n            !drawingPhase,\n            \"Lottery::inDrawingPhase:: drawing, can not buy now\"\n        );\n        _;\n    }\n\n    function drawed() public view returns (bool) {\n        return winningNumbers[0] != 0;\n    }\n\n    function reset() external onlyAdmin {\n        require(drawed(), \"Lottery::reset:: drawed?\");\n        lastTimestamp = block.timestamp;\n        totalAddresses = 0;\n        totalAmount = 0;\n        winningNumbers[0] = 0;\n        winningNumbers[1] = 0;\n        winningNumbers[2] = 0;\n        winningNumbers[3] = 0;\n        drawingPhase = false;\n        issueIndex = issueIndex + 1;\n        // first prize\n        if (getMatchingRewardAmount(issueIndex - 1, 4) == 0) {\n            uint256 amount =\n                getTotalRewards(issueIndex - 1).mul(allocation[0]).div(100);\n            internalBuy(amount, nullTicket);\n        }\n        // second prize\n        if (getMatchingRewardAmount(issueIndex - 1, 3) == 0) {\n            uint256 amount =\n                getTotalRewards(issueIndex - 1).mul(allocation[1]).div(100);\n            internalBuy(amount, nullTicket);\n        }\n        // third prize\n        if (getMatchingRewardAmount(issueIndex - 1, 2) == 0) {\n            uint256 amount =\n                getTotalRewards(issueIndex - 1).mul(allocation[2]).div(100);\n            internalBuy(amount, nullTicket);\n        }\n        uint256 amount =\n            getTotalRewards(issueIndex - 1).mul(allocation[3]).div(100);\n        busd.transfer(devAddress, amount);\n        emit Reset(issueIndex);\n    }\n\n    function enterDrawingPhase() external onlyAdmin {\n        require(!drawed(), \"Lottery::enterDrawingPhase:: already drawed\");\n        drawingPhase = true;\n    }\n\n    // add externalRandomNumber to prevent node validators exploiting\n    function drawing(uint256 _externalRandomNumber) external onlyAdmin {\n        require(!drawed(), \"Lottery::drawing:: already drawed\");\n        require(drawingPhase, \"Lottery::drawing:: enter drawing phase first\");\n        bytes32 _structHash;\n        uint256 _randomNumber;\n        uint8 _maxNumber = maxNumber;\n        bytes32 _blockhash = blockhash(block.number - 1);\n\n        // waste some gas fee here\n        for (uint256 i = 0; i < 10; i++) {\n            getTotalRewards(issueIndex);\n        }\n        uint256 gasLeft = gasleft();\n\n        // 1\n        _structHash = keccak256(\n            abi.encode(\n                _blockhash,\n                totalAddresses,\n                gasLeft,\n                _externalRandomNumber\n            )\n        );\n        _randomNumber = uint256(_structHash);\n        assembly {\n            _randomNumber := add(mod(_randomNumber, _maxNumber), 1)\n        }\n        winningNumbers[0] = uint8(_randomNumber);\n\n        // 2\n        _structHash = keccak256(\n            abi.encode(totalAmount, _blockhash, gasLeft, _externalRandomNumber)\n        );\n        _randomNumber = uint256(_structHash);\n        assembly {\n            _randomNumber := add(mod(_randomNumber, _maxNumber), 1)\n        }\n        winningNumbers[1] = uint8(_randomNumber);\n\n        // 3\n        _structHash = keccak256(\n            abi.encode(\n                _blockhash,\n                lastTimestamp,\n                gasLeft,\n                _externalRandomNumber\n            )\n        );\n        _randomNumber = uint256(_structHash);\n        assembly {\n            _randomNumber := add(mod(_randomNumber, _maxNumber), 1)\n        }\n        winningNumbers[2] = uint8(_randomNumber);\n\n        // 4\n        _structHash = keccak256(\n            abi.encode(_blockhash, gasLeft, _externalRandomNumber)\n        );\n        _randomNumber = uint256(_structHash);\n        assembly {\n            _randomNumber := add(mod(_randomNumber, _maxNumber), 1)\n        }\n        winningNumbers[3] = uint8(_randomNumber);\n\n        historyNumbers[issueIndex] = winningNumbers;\n        historyAmount[issueIndex] = calculateMatchingRewardAmount();\n        drawingPhase = false;\n        emit Drawing(issueIndex, winningNumbers);\n    }\n\n    function internalBuy(uint256 _price, uint8[4] memory _numbers) internal {\n        require(!drawed(), \"Lottery::internalBuy:: drawed, can not buy now\");\n        for (uint256 i = 0; i < 4; i++) {\n            require(\n                _numbers[i] <= maxNumber,\n                \"Lottery::internalBuy:: exceed the maximum\"\n            );\n        }\n        uint256 tokenId =\n            lotteryNFT.newLotteryItem(\n                address(this),\n                _numbers,\n                _price,\n                issueIndex\n            );\n        lotteryInfo[issueIndex].push(tokenId);\n        totalAmount = totalAmount.add(_price);\n        lastTimestamp = block.timestamp;\n        emit Buy(address(this), tokenId);\n    }\n\n    function injectReward(uint256 _price, uint8[4] memory _numbers)\n        external\n        onlyAdmin\n    {\n        require(!drawed(), \"Lottery::injectReward:: drawed, can not buy now\");\n        for (uint256 i = 0; i < 4; i++) {\n            require(\n                _numbers[i] == 0,\n                \"Lottery::injectReward:: accept only null ticket\"\n            );\n        }\n        uint256 tokenId =\n            lotteryNFT.newLotteryItem(\n                address(this),\n                _numbers,\n                _price,\n                issueIndex\n            );\n        busd.safeTransferFrom(address(msg.sender), address(this), _price);\n        lotteryInfo[issueIndex].push(tokenId);\n        totalAmount = totalAmount.add(_price);\n        lastTimestamp = block.timestamp;\n        emit Buy(address(this), tokenId);\n    }\n\n    function buy(uint256 _price, uint8[4] memory _numbers, address _referrer)\n        external\n        inDrawingPhase\n    {\n        require(_price >= minPrice, \"Lottery:buy:: price must above minPrice\");\n        for (uint256 i = 0; i < 4; i++) {\n            require(\n                _numbers[i] <= maxNumber,\n                \"Lottery::buy:: exceed number scope\"\n            );\n        }\n        uint256 tokenId =\n            lotteryNFT.newLotteryItem(msg.sender, _numbers, _price, issueIndex);\n        lotteryInfo[issueIndex].push(tokenId);\n        if (userInfo[msg.sender].length == 0) {\n            totalAddresses = totalAddresses + 1;\n        }\n        userInfo[msg.sender].push(tokenId);\n        totalAmount = totalAmount.add(_price);\n        lastTimestamp = block.timestamp;\n        uint64[keyLengthForEachBuy] memory userNumberIndex =\n            generateNumberIndexKey(_numbers);\n        for (uint256 i = 0; i < keyLengthForEachBuy; i++) {\n            userBuyAmountSum[issueIndex][userNumberIndex[i]] = userBuyAmountSum[\n                issueIndex\n            ][userNumberIndex[i]]\n                .add(_price);\n        }\n        busd.safeTransferFrom(address(msg.sender), address(this), _price);\n        // record referral\n        if (_price > 0 && address(lotteryReferral) != address(0) && _referrer != address(0) && _referrer != address(msg.sender)) {\n            lotteryReferral.recordReferral(msg.sender, _referrer);\n        }\n        emit Buy(msg.sender, tokenId);\n    }\n\n    function multiBuy(uint256 _price, uint8[4][] memory _numbers,address _referrer)\n        external\n        inDrawingPhase\n    {\n        require(\n            _price >= minPrice,\n            \"Lottery::multiBuy:: price must above minPrice\"\n        );\n        uint256 totalPrice = 0;\n        for (uint256 i = 0; i < _numbers.length; i++) {\n            for (uint256 j = 0; j < 4; j++) {\n                require(\n                    _numbers[i][j] <= maxNumber && _numbers[i][j] > 0,\n                    \"Lottery::multiBuy:: exceed number scope\"\n                );\n            }\n            uint256 tokenId =\n                lotteryNFT.newLotteryItem(\n                    msg.sender,\n                    _numbers[i],\n                    _price,\n                    issueIndex\n                );\n            lotteryInfo[issueIndex].push(tokenId);\n            if (userInfo[msg.sender].length == 0) {\n                totalAddresses = totalAddresses + 1;\n            }\n            userInfo[msg.sender].push(tokenId);\n            totalAmount = totalAmount.add(_price);\n            lastTimestamp = block.timestamp;\n            totalPrice = totalPrice.add(_price);\n            uint64[keyLengthForEachBuy] memory numberIndexKey =\n                generateNumberIndexKey(_numbers[i]);\n            for (uint256 k = 0; k < keyLengthForEachBuy; k++) {\n                userBuyAmountSum[issueIndex][\n                    numberIndexKey[k]\n                ] = userBuyAmountSum[issueIndex][numberIndexKey[k]].add(_price);\n            }\n        }\n        busd.safeTransferFrom(address(msg.sender), address(this), totalPrice);\n        // record referral\n        if (totalPrice > 0 && address(lotteryReferral) != address(0) && _referrer != address(0) && _referrer != msg.sender) {\n            lotteryReferral.recordReferral(msg.sender, _referrer);\n        }\n        emit MultiBuy(msg.sender, totalPrice);\n    }\n\n    function claimReward(uint256 _tokenId) external {\n        require(\n            msg.sender == lotteryNFT.ownerOf(_tokenId),\n            \"Lottery::claimReward:: not from owner\"\n        );\n        require(\n            !lotteryNFT.getClaimStatus(_tokenId),\n            \"Lottery::claimReward:: claimed\"\n        );\n        uint256 reward = getRewardView(_tokenId);\n        lotteryNFT.claimReward(_tokenId);\n        if (reward > 0) {\n            busd.safeTransfer(address(msg.sender), reward);\n            // pay commission to referrer of the winner user\n            payReferralCommission(msg.sender, totalAmount);\n        }\n        emit Claim(msg.sender, _tokenId, reward);\n    }\n\n    function multiClaim(uint256[] memory _tickets) external {\n        uint256 totalReward = 0;\n        for (uint256 i = 0; i < _tickets.length; i++) {\n            require(\n                msg.sender == lotteryNFT.ownerOf(_tickets[i]),\n                \"Lottery::multiClaim:: not from owner\"\n            );\n            require(\n                !lotteryNFT.getClaimStatus(_tickets[i]),\n                \"Lottery::multiClaim:: claimed\"\n            );\n            uint256 reward = getRewardView(_tickets[i]);\n            if (reward > 0) {\n                totalReward = reward.add(totalReward);\n            }\n        }\n        lotteryNFT.multiClaimReward(_tickets);\n        if (totalReward > 0) {\n            busd.safeTransfer(address(msg.sender), totalReward);\n            // pay commission to referrer of the winner user\n            payReferralCommission(msg.sender, totalAmount);\n        }\n        emit MultiClaim(msg.sender, totalReward);\n    }\n\n    function generateNumberIndexKey(uint8[4] memory number)\n        public\n        pure\n        returns (uint64[keyLengthForEachBuy] memory)\n    {\n        uint64[4] memory tempNumber;\n        tempNumber[0] = uint64(number[0]);\n        tempNumber[1] = uint64(number[1]);\n        tempNumber[2] = uint64(number[2]);\n        tempNumber[3] = uint64(number[3]);\n\n        uint64[keyLengthForEachBuy] memory result;\n        result[0] =\n            tempNumber[0] *\n            256 *\n            256 *\n            256 *\n            256 *\n            256 *\n            256 +\n            1 *\n            256 *\n            256 *\n            256 *\n            256 *\n            256 +\n            tempNumber[1] *\n            256 *\n            256 *\n            256 *\n            256 +\n            2 *\n            256 *\n            256 *\n            256 +\n            tempNumber[2] *\n            256 *\n            256 +\n            3 *\n            256 +\n            tempNumber[3];\n\n        result[1] =\n            tempNumber[0] *\n            256 *\n            256 *\n            256 *\n            256 +\n            1 *\n            256 *\n            256 *\n            256 +\n            tempNumber[1] *\n            256 *\n            256 +\n            2 *\n            256 +\n            tempNumber[2];\n        result[2] =\n            tempNumber[0] *\n            256 *\n            256 *\n            256 *\n            256 +\n            1 *\n            256 *\n            256 *\n            256 +\n            tempNumber[1] *\n            256 *\n            256 +\n            3 *\n            256 +\n            tempNumber[3];\n        result[3] =\n            tempNumber[0] *\n            256 *\n            256 *\n            256 *\n            256 +\n            2 *\n            256 *\n            256 *\n            256 +\n            tempNumber[2] *\n            256 *\n            256 +\n            3 *\n            256 +\n            tempNumber[3];\n        result[4] =\n            1 *\n            256 *\n            256 *\n            256 *\n            256 *\n            256 +\n            tempNumber[1] *\n            256 *\n            256 *\n            256 *\n            256 +\n            2 *\n            256 *\n            256 *\n            256 +\n            tempNumber[2] *\n            256 *\n            256 +\n            3 *\n            256 +\n            tempNumber[3];\n\n        result[5] = tempNumber[0] * 256 * 256 + 1 * 256 + tempNumber[1];\n        result[6] = tempNumber[0] * 256 * 256 + 2 * 256 + tempNumber[2];\n        result[7] = tempNumber[0] * 256 * 256 + 3 * 256 + tempNumber[3];\n        result[8] =\n            1 *\n            256 *\n            256 *\n            256 +\n            tempNumber[1] *\n            256 *\n            256 +\n            2 *\n            256 +\n            tempNumber[2];\n        result[9] =\n            1 *\n            256 *\n            256 *\n            256 +\n            tempNumber[1] *\n            256 *\n            256 +\n            3 *\n            256 +\n            tempNumber[3];\n        result[10] =\n            2 *\n            256 *\n            256 *\n            256 +\n            tempNumber[2] *\n            256 *\n            256 +\n            3 *\n            256 +\n            tempNumber[3];\n\n        return result;\n    }\n\n    function calculateMatchingRewardAmount()\n        internal\n        view\n        returns (uint256[4] memory)\n    {\n        uint64[keyLengthForEachBuy] memory numberIndexKey =\n            generateNumberIndexKey(winningNumbers);\n\n        uint256 totalAmout1 = userBuyAmountSum[issueIndex][numberIndexKey[0]];\n\n        uint256 sumForTotalAmout2 =\n            userBuyAmountSum[issueIndex][numberIndexKey[1]];\n        sumForTotalAmout2 = sumForTotalAmout2.add(\n            userBuyAmountSum[issueIndex][numberIndexKey[2]]\n        );\n        sumForTotalAmout2 = sumForTotalAmout2.add(\n            userBuyAmountSum[issueIndex][numberIndexKey[3]]\n        );\n        sumForTotalAmout2 = sumForTotalAmout2.add(\n            userBuyAmountSum[issueIndex][numberIndexKey[4]]\n        );\n\n        uint256 totalAmout2 = sumForTotalAmout2.sub(totalAmout1.mul(4));\n\n        uint256 sumForTotalAmout3 =\n            userBuyAmountSum[issueIndex][numberIndexKey[5]];\n        sumForTotalAmout3 = sumForTotalAmout3.add(\n            userBuyAmountSum[issueIndex][numberIndexKey[6]]\n        );\n        sumForTotalAmout3 = sumForTotalAmout3.add(\n            userBuyAmountSum[issueIndex][numberIndexKey[7]]\n        );\n        sumForTotalAmout3 = sumForTotalAmout3.add(\n            userBuyAmountSum[issueIndex][numberIndexKey[8]]\n        );\n        sumForTotalAmout3 = sumForTotalAmout3.add(\n            userBuyAmountSum[issueIndex][numberIndexKey[9]]\n        );\n        sumForTotalAmout3 = sumForTotalAmout3.add(\n            userBuyAmountSum[issueIndex][numberIndexKey[10]]\n        );\n\n        uint256 totalAmout3 =\n            sumForTotalAmout3.add(totalAmout1.mul(6)).sub(\n                sumForTotalAmout2.mul(3)\n            );\n\n        return [totalAmount, totalAmout1, totalAmout2, totalAmout3];\n    }\n\n    function getMatchingRewardAmount(\n        uint256 _issueIndex,\n        uint256 _matchingNumber\n    ) public view returns (uint256) {\n        return historyAmount[_issueIndex][5 - _matchingNumber];\n    }\n\n    function getTotalRewards(uint256 _issueIndex)\n        public\n        view\n        returns (uint256)\n    {\n        require(\n            _issueIndex <= issueIndex,\n            \"Lottery::getTotalRewards:: _issueIndex <= issueIndex\"\n        );\n\n        if (!drawed() && _issueIndex == issueIndex) {\n            return totalAmount;\n        }\n        return historyAmount[_issueIndex][0];\n    }\n\n    function getRewardView(uint256 _tokenId) public view returns (uint256) {\n        uint256 _issueIndex = lotteryNFT.getLotteryIssueIndex(_tokenId);\n        uint8[4] memory lotteryNumbers = lotteryNFT.getLotteryNumbers(_tokenId);\n        uint8[4] memory _winningNumbers = historyNumbers[_issueIndex];\n        require(_winningNumbers[0] != 0, \"Lottery::getRewardView:: not drawed\");\n\n        uint256 matchingNumber = 0;\n        for (uint256 i = 0; i < lotteryNumbers.length; i++) {\n            if (_winningNumbers[i] == lotteryNumbers[i]) {\n                matchingNumber = matchingNumber + 1;\n            }\n        }\n        uint256 reward = 0;\n        if (matchingNumber > 1) {\n            uint256 amount = lotteryNFT.getLotteryAmount(_tokenId);\n            uint256 poolAmount =\n                getTotalRewards(_issueIndex)\n                    .mul(allocation[3 - matchingNumber])\n                    .div(100);\n            reward = amount\n                .mul(1e12)\n                .div(getMatchingRewardAmount(_issueIndex, matchingNumber))\n                .mul(poolAmount);\n        }\n        return reward.div(1e12);\n    }\n\n    // Update admin address by the previous dev.\n    function setAdmin(address _adminAddress) public onlyOwner {\n        adminAddress = _adminAddress;\n    }\n\n    // Withdraw without caring about rewards. EMERGENCY ONLY.\n    function adminWithdraw(uint256 _amount) public onlyAdmin {\n        busd.safeTransfer(address(msg.sender), _amount);\n        emit DevWithdraw(msg.sender, _amount);\n    }\n\n    // Set the minimum price for one ticket\n    function setMinPrice(uint256 _price) external onlyAdmin {\n        minPrice = _price;\n    }\n\n    // Set the minimum price for one ticket\n    function setMaxNumber(uint8 _maxNumber) external onlyAdmin {\n        maxNumber = _maxNumber;\n    }\n\n    // Set the allocation for one reward\n    function setAllocation(\n        uint8 _allcation1,\n        uint8 _allcation2,\n        uint8 _allcation3,\n        uint8 _allcation4\n    ) external onlyAdmin {\n        require(\n            _allcation1 + _allcation2 + _allcation3 + _allcation4 <= 100,\n            \"Lottery::setAllocation:: exceed 100\"\n        );\n        allocation = [_allcation1, _allcation2, _allcation3, _allcation4];\n    }\n\n    function setDevAddress(address _newAddress) external onlyAdmin {\n        devAddress = _newAddress;\n    }\n\n    // Update the lottery referral contract address by the owner\n    function setLotteryReferral(ILotteryReferral _lotteryReferral) public onlyOwner {\n        lotteryReferral = _lotteryReferral;\n    }\n\n    // Update referral commission rate by the owner\n    function setReferralCommissionRate(uint16 _referralCommissionRate) public onlyOwner {\n        require(_referralCommissionRate <= MAXIMUM_REFERRAL_COMMISSION_RATE, \"setReferralCommissionRate: invalid referral commission rate basis points\");\n        referralCommissionRate = _referralCommissionRate;\n    }\n\n    // Pay referral commission to the referrer who referred this user.\n    function payReferralCommission(address _user, uint256 _pending) internal {\n        if (address(lotteryReferral) != address(0) && referralCommissionRate > 0) {\n            address referrer = lotteryReferral.getReferrer(_user);\n            uint256 commissionAmount = _pending.mul(referralCommissionRate).div(10000);\n\n            if (referrer != address(0) && commissionAmount > 0) {\n                //MockedERC20.mint(referrer, commissionAmount);\n                busd.safeTransfer(referrer, commissionAmount);\n                lotteryReferral.recordReferralCommission(referrer, commissionAmount);\n                emit ReferralCommissionPaid(_user, referrer, commissionAmount);\n            }\n        }\n    }\n}\n",
  "sourcePath": "/Users/aq1/Desktop/r.cat/lottery-token-busd/contracts/Lottery.sol",
  "compiler": {
    "name": "solc",
    "version": "0.6.12+commit.27d51765.Emscripten.clang"
  },
  "schemaVersion": "3.4.1",
  "updatedAt": "2021-06-17T04:37:19.138Z",
  "networkType": "ethereum",
  "devdoc": {
    "kind": "dev",
    "methods": {
      "owner()": {
        "details": "Returns the address of the current owner."
      },
      "renounceOwnership()": {
        "details": "Leaves the contract without owner. It will not be possible to call `onlyOwner` functions anymore. Can only be called by the current owner. NOTE: Renouncing ownership will leave the contract without an owner, thereby removing any functionality that is only available to the owner."
      },
      "transferOwnership(address)": {
        "details": "Transfers ownership of the contract to a new account (`newOwner`). Can only be called by the current owner."
      }
    },
    "version": 1
  },
  "userdoc": {
    "kind": "user",
    "methods": {},
    "version": 1
  }
}