{
  "contractName": "Lottery",
  "abi": [
    {
      "inputs": [],
      "stateMutability": "nonpayable",
      "type": "constructor"
    },
    {
      "anonymous": false,
      "inputs": [
        {
          "indexed": true,
          "internalType": "address",
          "name": "user",
          "type": "address"
        },
        {
          "indexed": false,
          "internalType": "uint256",
          "name": "tokenId",
          "type": "uint256"
        }
      ],
      "name": "Buy",
      "type": "event"
    },
    {
      "anonymous": false,
      "inputs": [
        {
          "indexed": true,
          "internalType": "address",
          "name": "user",
          "type": "address"
        },
        {
          "indexed": false,
          "internalType": "uint256",
          "name": "tokenid",
          "type": "uint256"
        },
        {
          "indexed": false,
          "internalType": "uint256",
          "name": "amount",
          "type": "uint256"
        }
      ],
      "name": "Claim",
      "type": "event"
    },
    {
      "anonymous": false,
      "inputs": [
        {
          "indexed": true,
          "internalType": "address",
          "name": "user",
          "type": "address"
        },
        {
          "indexed": false,
          "internalType": "uint256",
          "name": "amount",
          "type": "uint256"
        }
      ],
      "name": "DevWithdraw",
      "type": "event"
    },
    {
      "anonymous": false,
      "inputs": [
        {
          "indexed": true,
          "internalType": "uint256",
          "name": "issueIndex",
          "type": "uint256"
        },
        {
          "indexed": false,
          "internalType": "uint8[4]",
          "name": "winningNumbers",
          "type": "uint8[4]"
        }
      ],
      "name": "Drawing",
      "type": "event"
    },
    {
      "anonymous": false,
      "inputs": [
        {
          "indexed": true,
          "internalType": "address",
          "name": "user",
          "type": "address"
        },
        {
          "indexed": false,
          "internalType": "uint256",
          "name": "amount",
          "type": "uint256"
        }
      ],
      "name": "MultiBuy",
      "type": "event"
    },
    {
      "anonymous": false,
      "inputs": [
        {
          "indexed": true,
          "internalType": "address",
          "name": "user",
          "type": "address"
        },
        {
          "indexed": false,
          "internalType": "uint256",
          "name": "amount",
          "type": "uint256"
        }
      ],
      "name": "MultiClaim",
      "type": "event"
    },
    {
      "anonymous": false,
      "inputs": [
        {
          "indexed": true,
          "internalType": "address",
          "name": "previousOwner",
          "type": "address"
        },
        {
          "indexed": true,
          "internalType": "address",
          "name": "newOwner",
          "type": "address"
        }
      ],
      "name": "OwnershipTransferred",
      "type": "event"
    },
    {
      "anonymous": false,
      "inputs": [
        {
          "indexed": true,
          "internalType": "uint256",
          "name": "issueIndex",
          "type": "uint256"
        }
      ],
      "name": "Reset",
      "type": "event"
    },
    {
      "inputs": [],
      "name": "adminAddress",
      "outputs": [
        {
          "internalType": "address",
          "name": "",
          "type": "address"
        }
      ],
      "stateMutability": "view",
      "type": "function",
      "constant": true
    },
    {
      "inputs": [
        {
          "internalType": "uint256",
          "name": "",
          "type": "uint256"
        }
      ],
      "name": "allocation",
      "outputs": [
        {
          "internalType": "uint8",
          "name": "",
          "type": "uint8"
        }
      ],
      "stateMutability": "view",
      "type": "function",
      "constant": true
    },
    {
      "inputs": [],
      "name": "busd",
      "outputs": [
        {
          "internalType": "contract IERC20",
          "name": "",
          "type": "address"
        }
      ],
      "stateMutability": "view",
      "type": "function",
      "constant": true
    },
    {
      "inputs": [],
      "name": "drawingPhase",
      "outputs": [
        {
          "internalType": "bool",
          "name": "",
          "type": "bool"
        }
      ],
      "stateMutability": "view",
      "type": "function",
      "constant": true
    },
    {
      "inputs": [
        {
          "internalType": "uint256",
          "name": "",
          "type": "uint256"
        },
        {
          "internalType": "uint256",
          "name": "",
          "type": "uint256"
        }
      ],
      "name": "historyAmount",
      "outputs": [
        {
          "internalType": "uint256",
          "name": "",
          "type": "uint256"
        }
      ],
      "stateMutability": "view",
      "type": "function",
      "constant": true
    },
    {
      "inputs": [
        {
          "internalType": "uint256",
          "name": "",
          "type": "uint256"
        },
        {
          "internalType": "uint256",
          "name": "",
          "type": "uint256"
        }
      ],
      "name": "historyNumbers",
      "outputs": [
        {
          "internalType": "uint8",
          "name": "",
          "type": "uint8"
        }
      ],
      "stateMutability": "view",
      "type": "function",
      "constant": true
    },
    {
      "inputs": [],
      "name": "issueIndex",
      "outputs": [
        {
          "internalType": "uint256",
          "name": "",
          "type": "uint256"
        }
      ],
      "stateMutability": "view",
      "type": "function",
      "constant": true
    },
    {
      "inputs": [],
      "name": "lastTimestamp",
      "outputs": [
        {
          "internalType": "uint256",
          "name": "",
          "type": "uint256"
        }
      ],
      "stateMutability": "view",
      "type": "function",
      "constant": true
    },
    {
      "inputs": [
        {
          "internalType": "uint256",
          "name": "",
          "type": "uint256"
        },
        {
          "internalType": "uint256",
          "name": "",
          "type": "uint256"
        }
      ],
      "name": "lotteryInfo",
      "outputs": [
        {
          "internalType": "uint256",
          "name": "",
          "type": "uint256"
        }
      ],
      "stateMutability": "view",
      "type": "function",
      "constant": true
    },
    {
      "inputs": [],
      "name": "lotteryNFT",
      "outputs": [
        {
          "internalType": "contract LotteryNFT",
          "name": "",
          "type": "address"
        }
      ],
      "stateMutability": "view",
      "type": "function",
      "constant": true
    },
    {
      "inputs": [],
      "name": "maxNumber",
      "outputs": [
        {
          "internalType": "uint8",
          "name": "",
          "type": "uint8"
        }
      ],
      "stateMutability": "view",
      "type": "function",
      "constant": true
    },
    {
      "inputs": [],
      "name": "minPrice",
      "outputs": [
        {
          "internalType": "uint256",
          "name": "",
          "type": "uint256"
        }
      ],
      "stateMutability": "view",
      "type": "function",
      "constant": true
    },
    {
      "inputs": [],
      "name": "owner",
      "outputs": [
        {
          "internalType": "address",
          "name": "",
          "type": "address"
        }
      ],
      "stateMutability": "view",
      "type": "function",
      "constant": true
    },
    {
      "inputs": [],
      "name": "renounceOwnership",
      "outputs": [],
      "stateMutability": "nonpayable",
      "type": "function"
    },
    {
      "inputs": [],
      "name": "totalAddresses",
      "outputs": [
        {
          "internalType": "uint256",
          "name": "",
          "type": "uint256"
        }
      ],
      "stateMutability": "view",
      "type": "function",
      "constant": true
    },
    {
      "inputs": [],
      "name": "totalAmount",
      "outputs": [
        {
          "internalType": "uint256",
          "name": "",
          "type": "uint256"
        }
      ],
      "stateMutability": "view",
      "type": "function",
      "constant": true
    },
    {
      "inputs": [
        {
          "internalType": "address",
          "name": "newOwner",
          "type": "address"
        }
      ],
      "name": "transferOwnership",
      "outputs": [],
      "stateMutability": "nonpayable",
      "type": "function"
    },
    {
      "inputs": [
        {
          "internalType": "uint256",
          "name": "",
          "type": "uint256"
        },
        {
          "internalType": "uint64",
          "name": "",
          "type": "uint64"
        }
      ],
      "name": "userBuyAmountSum",
      "outputs": [
        {
          "internalType": "uint256",
          "name": "",
          "type": "uint256"
        }
      ],
      "stateMutability": "view",
      "type": "function",
      "constant": true
    },
    {
      "inputs": [
        {
          "internalType": "address",
          "name": "",
          "type": "address"
        },
        {
          "internalType": "uint256",
          "name": "",
          "type": "uint256"
        }
      ],
      "name": "userInfo",
      "outputs": [
        {
          "internalType": "uint256",
          "name": "",
          "type": "uint256"
        }
      ],
      "stateMutability": "view",
      "type": "function",
      "constant": true
    },
    {
      "inputs": [
        {
          "internalType": "uint256",
          "name": "",
          "type": "uint256"
        }
      ],
      "name": "winningNumbers",
      "outputs": [
        {
          "internalType": "uint8",
          "name": "",
          "type": "uint8"
        }
      ],
      "stateMutability": "view",
      "type": "function",
      "constant": true
    },
    {
      "inputs": [
        {
          "internalType": "contract IERC20",
          "name": "_busd",
          "type": "address"
        },
        {
          "internalType": "contract LotteryNFT",
          "name": "_lottery",
          "type": "address"
        },
        {
          "internalType": "uint256",
          "name": "_minPrice",
          "type": "uint256"
        },
        {
          "internalType": "uint8",
          "name": "_maxNumber",
          "type": "uint8"
        },
        {
          "internalType": "address",
          "name": "_owner",
          "type": "address"
        },
        {
          "internalType": "address",
          "name": "_adminAddress",
          "type": "address"
        }
      ],
      "name": "initialize",
      "outputs": [],
      "stateMutability": "nonpayable",
      "type": "function"
    },
    {
      "inputs": [],
      "name": "drawed",
      "outputs": [
        {
          "internalType": "bool",
          "name": "",
          "type": "bool"
        }
      ],
      "stateMutability": "view",
      "type": "function",
      "constant": true
    },
    {
      "inputs": [],
      "name": "reset",
      "outputs": [],
      "stateMutability": "nonpayable",
      "type": "function"
    },
    {
      "inputs": [],
      "name": "enterDrawingPhase",
      "outputs": [],
      "stateMutability": "nonpayable",
      "type": "function"
    },
    {
      "inputs": [
        {
          "internalType": "uint256",
          "name": "_externalRandomNumber",
          "type": "uint256"
        }
      ],
      "name": "drawing",
      "outputs": [],
      "stateMutability": "nonpayable",
      "type": "function"
    },
    {
      "inputs": [
        {
          "internalType": "uint256",
          "name": "_price",
          "type": "uint256"
        },
        {
          "internalType": "uint8[4]",
          "name": "_numbers",
          "type": "uint8[4]"
        }
      ],
      "name": "buy",
      "outputs": [],
      "stateMutability": "nonpayable",
      "type": "function"
    },
    {
      "inputs": [
        {
          "internalType": "uint256",
          "name": "_price",
          "type": "uint256"
        },
        {
          "internalType": "uint8[4][]",
          "name": "_numbers",
          "type": "uint8[4][]"
        }
      ],
      "name": "multiBuy",
      "outputs": [],
      "stateMutability": "nonpayable",
      "type": "function"
    },
    {
      "inputs": [
        {
          "internalType": "uint256",
          "name": "_tokenId",
          "type": "uint256"
        }
      ],
      "name": "claimReward",
      "outputs": [],
      "stateMutability": "nonpayable",
      "type": "function"
    },
    {
      "inputs": [
        {
          "internalType": "uint256[]",
          "name": "_tickets",
          "type": "uint256[]"
        }
      ],
      "name": "multiClaim",
      "outputs": [],
      "stateMutability": "nonpayable",
      "type": "function"
    },
    {
      "inputs": [
        {
          "internalType": "uint8[4]",
          "name": "number",
          "type": "uint8[4]"
        }
      ],
      "name": "generateNumberIndexKey",
      "outputs": [
        {
          "internalType": "uint64[11]",
          "name": "",
          "type": "uint64[11]"
        }
      ],
      "stateMutability": "pure",
      "type": "function",
      "constant": true
    },
    {
      "inputs": [
        {
          "internalType": "uint256",
          "name": "_issueIndex",
          "type": "uint256"
        },
        {
          "internalType": "uint256",
          "name": "_matchingNumber",
          "type": "uint256"
        }
      ],
      "name": "getMatchingRewardAmount",
      "outputs": [
        {
          "internalType": "uint256",
          "name": "",
          "type": "uint256"
        }
      ],
      "stateMutability": "view",
      "type": "function",
      "constant": true
    },
    {
      "inputs": [
        {
          "internalType": "uint256",
          "name": "_issueIndex",
          "type": "uint256"
        }
      ],
      "name": "getTotalRewards",
      "outputs": [
        {
          "internalType": "uint256",
          "name": "",
          "type": "uint256"
        }
      ],
      "stateMutability": "view",
      "type": "function",
      "constant": true
    },
    {
      "inputs": [
        {
          "internalType": "uint256",
          "name": "_tokenId",
          "type": "uint256"
        }
      ],
      "name": "getRewardView",
      "outputs": [
        {
          "internalType": "uint256",
          "name": "",
          "type": "uint256"
        }
      ],
      "stateMutability": "view",
      "type": "function",
      "constant": true
    },
    {
      "inputs": [
        {
          "internalType": "address",
          "name": "_adminAddress",
          "type": "address"
        }
      ],
      "name": "setAdmin",
      "outputs": [],
      "stateMutability": "nonpayable",
      "type": "function"
    },
    {
      "inputs": [
        {
          "internalType": "uint256",
          "name": "_amount",
          "type": "uint256"
        }
      ],
      "name": "adminWithdraw",
      "outputs": [],
      "stateMutability": "nonpayable",
      "type": "function"
    },
    {
      "inputs": [
        {
          "internalType": "uint256",
          "name": "_price",
          "type": "uint256"
        }
      ],
      "name": "setMinPrice",
      "outputs": [],
      "stateMutability": "nonpayable",
      "type": "function"
    },
    {
      "inputs": [
        {
          "internalType": "uint8",
          "name": "_maxNumber",
          "type": "uint8"
        }
      ],
      "name": "setMaxNumber",
      "outputs": [],
      "stateMutability": "nonpayable",
      "type": "function"
    },
    {
      "inputs": [
        {
          "internalType": "uint8",
          "name": "_allcation1",
          "type": "uint8"
        },
        {
          "internalType": "uint8",
          "name": "_allcation2",
          "type": "uint8"
        },
        {
          "internalType": "uint8",
          "name": "_allcation3",
          "type": "uint8"
        }
      ],
      "name": "setAllocation",
      "outputs": [],
      "stateMutability": "nonpayable",
      "type": "function"
    }
  ],
  "bytecode": "0x6000600b819055600c819055600d819055610100604052608081815260a082905260c082905260e0919091526200003b90601190600462000050565b503480156200004957600080fd5b5062000105565b600183019183908215620000d85791602002820160005b83821115620000a757835183826101000a81548160ff021916908360ff160217905550926020019260010160208160000104928301926001030262000067565b8015620000d65782816101000a81549060ff0219169055600101602081600001049283019260010302620000a7565b505b50620000e6929150620000ea565b5090565b5b80821115620000e657805460ff19168155600101620000eb565b6132b780620001156000396000f3fe608060405234801561001057600080fd5b50600436106102325760003560e01c80636a28f82811610130578063c39f49c0116100b8578063e13454161161007c578063e13454161461047d578063e45be8eb14610485578063e8adfbc71461048d578063f2fde38b14610495578063fc6f9468146104a857610232565b8063c39f49c014610434578063cfad527714610447578063d1f7dbcf1461044f578063d411b0fa14610462578063d826f88f1461047557610232565b8063850bad94116100ff578063850bad94146103d357806385dcdf1b146103e65780638da5cb5b14610406578063a42206c91461040e578063ae169a501461042157610232565b80636a28f8281461039d578063704b6c02146103a5578063715018a6146103b85780637c5b4a37146103c057610232565b80633a4f6999116101be578063552164ee11610182578063552164ee1461033e57806359bcbd68146103515780635c17623a146103645780635ea8cd12146103775780636575243f1461038a57610232565b80633a4f6999146102d95780633ca5b234146102ee578063438209f5146103035780634e45f095146103185780634ed73d281461032b57610232565b80631ff68866116102055780631ff688661461028557806321ce919d1461028d5780632bdff851146102a05780632f506b20146102b3578063324a5562146102c657610232565b806311e420651461023757806314c20d571461024c57806319d8ac611461025f5780631a39d8ef1461027d575b600080fd5b61024a610245366004612969565b6104b0565b005b61024a61025a366004612ab8565b6105e7565b6102676108cb565b60405161027491906131c4565b60405180910390f35b6102676108d1565b61024a6108d7565b61026761029b3660046127ff565b610935565b61024a6102ae366004612a11565b610963565b6102676102c1366004612b05565b610cac565b61024a6102d4366004612b3f565b610cc9565b6102e1610d13565b60405161027491906131db565b6102f6610d23565b6040516102749190612be7565b61030b610d32565b6040516102749190612d10565b6102e16103263660046129e1565b610d3b565b61024a61033936600461282a565b610d62565b61026761034c3660046129e1565b610fee565b6102e161035f366004612ae4565b611062565b61024a610372366004612b5b565b611098565b61024a6103853660046129e1565b61111f565b610267610398366004612ae4565b61114e565b610267611167565b61024a6103b33660046127c7565b61116d565b61024a6111b9565b61024a6103ce3660046129e1565b61122d565b6102e16103e13660046129e1565b6112b2565b6103f96103f43660046128be565b6112bf565b6040516102749190612cab565b6102f6611446565b61024a61041c3660046129e1565b611455565b61024a61042f3660046129e1565b6116db565b610267610442366004612ae4565b6118f1565b61026761190a565b61026761045d366004612ae4565b611910565b6102676104703660046129e1565b611942565b61024a611c43565b61030b611d7f565b610267611d8a565b6102f6611d90565b61024a6104a33660046127c7565b611d9f565b6102f6611e4a565b600054600160a81b900460ff16806104cb57506104cb611e59565b806104e05750600054600160a01b900460ff16155b6105055760405162461bcd60e51b81526004016104fc90612f87565b60405180910390fd5b600054600160a81b900460ff1615801561053c576000805460ff60a01b1960ff60a81b19909116600160a81b1716600160a01b1790555b600280546001600160a01b03199081166001600160a01b038a81169190911790925560038054821689841617815560058890556004805460ff60a01b1916600160a01b60ff8a16021790921692851692909217905542600e5560408051606081018252603c815260146020820152600a918101919091526105c091600191906125ec565b506105ca83611e5f565b80156105de576000805460ff60a81b191690555b50505050505050565b6105ef611d7f565b1561060c5760405162461bcd60e51b81526004016104fc9061304d565b60105460ff161561062f5760405162461bcd60e51b81526004016104fc90612f50565b6005548210156106515760405162461bcd60e51b81526004016104fc90612fd5565b60005b60048110156106a65760048054600160a01b900460ff169083908390811061067857fe5b602002015160ff16111561069e5760405162461bcd60e51b81526004016104fc90612dc3565b600101610654565b50600354600b54604051620dce4760ea1b81526000926001600160a01b0316916337391c00916106de91339187918991600401612bfb565b602060405180830381600087803b1580156106f857600080fd5b505af115801561070c573d6000803e3d6000fd5b505050506040513d601f19601f8201168201806040525081019061073091906129f9565b600b546000908152600760209081526040808320805460018101825590845282842001849055338352600a90915290205490915061077257600c805460010190555b336000908152600a6020908152604082208054600181018255908352912001819055600d546107a19084611eaa565b600d5542600e556107b061267f565b6107b9836112bf565b905060005b600b81101561086b576108228560096000600b54815260200190815260200160002060008585600b81106107ee57fe5b60200201516001600160401b03166001600160401b0316815260200190815260200160002054611eaa90919063ffffffff16565b600b805460009081526009602052604081209185908590811061084157fe5b602090810291909101516001600160401b03168252810191909152604001600020556001016107be565b50600254610884906001600160a01b0316333087611ed6565b336001600160a01b03167fe3d4187f6ca4248660cc0ac8b8056515bac4a8132be2eca31d6d0cc170722a7e836040516108bd91906131c4565b60405180910390a250505050565b600e5481565b600d5481565b6004546001600160a01b031633146109015760405162461bcd60e51b81526004016104fc906130b9565b610909611d7f565b156109265760405162461bcd60e51b81526004016104fc906131a4565b6010805460ff19166001179055565b600a602052816000526040600020818154811061094e57fe5b90600052602060002001600091509150505481565b61096b611d7f565b156109885760405162461bcd60e51b81526004016104fc9061304d565b60105460ff16156109ab5760405162461bcd60e51b81526004016104fc90612f50565b6005548210156109cd5760405162461bcd60e51b81526004016104fc90612fd5565b6000805b8251811015610c4d5760005b6004811015610a7857600460149054906101000a900460ff1660ff16848381518110610a0557fe5b60200260200101518260048110610a1857fe5b602002015160ff1611158015610a5457506000848381518110610a3757fe5b60200260200101518260048110610a4a57fe5b602002015160ff16115b610a705760405162461bcd60e51b81526004016104fc90612dc3565b6001016109dd565b5060035483516000916001600160a01b0316906337391c00903390879086908110610a9f57fe5b602002602001015188600b546040518563ffffffff1660e01b8152600401610aca9493929190612bfb565b602060405180830381600087803b158015610ae457600080fd5b505af1158015610af8573d6000803e3d6000fd5b505050506040513d601f19601f82011682018060405250810190610b1c91906129f9565b600b546000908152600760209081526040808320805460018101825590845282842001849055338352600a909152902054909150610b5e57600c805460010190555b336000908152600a6020908152604082208054600181018255908352912001819055600d54610b8d9086611eaa565b600d5542600e55610b9e8386611eaa565b9250610ba861267f565b610bc4858481518110610bb757fe5b60200260200101516112bf565b905060005b600b811015610c4257610bf98760096000600b54815260200190815260200160002060008585600b81106107ee57fe5b600b8054600090815260096020526040812091859085908110610c1857fe5b602090810291909101516001600160401b0316825281019190915260400160002055600101610bc9565b5050506001016109d1565b50600254610c66906001600160a01b0316333084611ed6565b336001600160a01b03167f96c35ad1cc1743f26cb87980c38042de8082358ec6d171a7986d6e11dddfe85782604051610c9f91906131c4565b60405180910390a2505050565b600960209081526000928352604080842090915290825290205481565b6004546001600160a01b03163314610cf35760405162461bcd60e51b81526004016104fc906130b9565b6004805460ff909216600160a01b0260ff60a01b19909216919091179055565b600454600160a01b900460ff1681565b6002546001600160a01b031681565b60105460ff1681565b600f8160048110610d4857fe5b60209182820401919006915054906101000a900460ff1681565b6000805b8251811015610f265760035483516001600160a01b0390911690636352211e90859084908110610d9257fe5b60200260200101516040518263ffffffff1660e01b8152600401610db691906131c4565b60206040518083038186803b158015610dce57600080fd5b505afa158015610de2573d6000803e3d6000fd5b505050506040513d601f19601f82011682018060405250810190610e0691906127e3565b6001600160a01b0316336001600160a01b031614610e365760405162461bcd60e51b81526004016104fc90612ed0565b60035483516001600160a01b03909116906336dbd2f990859084908110610e5957fe5b60200260200101516040518263ffffffff1660e01b8152600401610e7d91906131c4565b60206040518083038186803b158015610e9557600080fd5b505afa158015610ea9573d6000803e3d6000fd5b505050506040513d601f19601f82011682018060405250810190610ecd9190612949565b15610eea5760405162461bcd60e51b81526004016104fc90612f2f565b6000610f08848381518110610efb57fe5b6020026020010151611942565b90508015610f1d57610f1a8184611eaa565b92505b50600101610d66565b50600354604051637431035560e01b81526001600160a01b0390911690637431035590610f57908590600401612c67565b600060405180830381600087803b158015610f7157600080fd5b505af1158015610f85573d6000803e3d6000fd5b505050506000811115610fa957600254610fa9906001600160a01b03163383611f2e565b336001600160a01b03167f6606374655494f5c0e2d6f392656e9777afd9ac5f61527d1bcad50b7e918a03e82604051610fe291906131c4565b60405180910390a25050565b6000600b548211156110125760405162461bcd60e51b81526004016104fc90612df0565b61101a611d7f565b1580156110285750600b5482145b156110365750600d5461105d565b6000828152600860205260408120805490919061104f57fe5b906000526020600020015490505b919050565b6006602052816000526040600020816004811061107b57fe5b602081049091015460ff601f9092166101000a9004169150829050565b6004546001600160a01b031633146110c25760405162461bcd60e51b81526004016104fc906130b9565b6064818385010160ff16106110e95760405162461bcd60e51b81526004016104fc906130de565b6040805160608101825260ff808616825284811660208301528316918101919091526111199060019060036125ec565b50505050565b6004546001600160a01b031633146111495760405162461bcd60e51b81526004016104fc906130b9565b600555565b6007602052816000526040600020818154811061094e57fe5b600b5481565b6000546001600160a01b031633146111975760405162461bcd60e51b81526004016104fc90613084565b600480546001600160a01b0319166001600160a01b0392909216919091179055565b6000546001600160a01b031633146111e35760405162461bcd60e51b81526004016104fc90613084565b600080546040516001600160a01b03909116907f8be0079c531659141344cd1fd0a4f28419497f9722a3daafe3b4186f6b6457e0908390a3600080546001600160a01b0319169055565b6004546001600160a01b031633146112575760405162461bcd60e51b81526004016104fc906130b9565b60025461126e906001600160a01b03163383611f2e565b336001600160a01b03167f050d1c64cc22ce461b9bc14f6b73852566da02b03c155242bc63169d1fec42aa826040516112a791906131c4565b60405180910390a250565b60018160038110610d4857fe5b6112c761267f565b6112cf61269e565b825160ff90811682526020808501518216908301526040808501518216908301526060808501519091169082015261130561267f565b6060828101805160408086018051602080890180518a516201000094850264010000000092830266010000000000009092029190910101909601650100020003009081016001600160401b039081168b52855183518d51908702908a02010163010002009081018216948c0194909452885183518d51908702908a02010163010003009081018216978c0197909752885186518d51908702908a020101630200030090810182169a8c019a909a5288518651845190870299029890980190970101861660808a015280518a51840201610100908101871660a08b015284518b5185020161020001871660c08b015287519a518402909a0161030001861660e08a015283518151840201909101851698880198909852845197518102909701909101821661012086015291519151909402010190911661014082015292915050565b6000546001600160a01b031690565b6004546001600160a01b0316331461147f5760405162461bcd60e51b81526004016104fc906130b9565b611487611d7f565b156114a45760405162461bcd60e51b81526004016104fc90612d7f565b60105460ff166114c65760405162461bcd60e51b81526004016104fc90612ef8565b6004546000908190600160a01b900460ff16436000190140825b600a8110156114fd576114f4600b54610fee565b506001016114e0565b5060005a905081600c54828860405160200161151c9493929190612d31565b60408051601f19818403018152908290528051602091820120600f805460ff191687830660010160ff811691909117909155600d54919850965061156692859285918b9101612d31565b60408051601f19818403018152908290528051602091820120600f805460ff8884066001019081166101000261ff001990921691909117909155600e5491985096506115b892859285918b9101612d31565b60408051808303601f19018152908290528051602091820120600f805460ff600189850601908116620100000262ff00001990921691909117909155909750955061160991849184918a9101612d1b565b60408051808303601f190181529181528151602092830120600f805460ff60018985060190811663010000000263ff00000019909216919091178255600b5460009081526006909552929093209097509095506116679160046126bc565b50611670611f52565b600b54600090815260086020526040902061168c9160046126ef565b506010805460ff19169055600b546040517fa13e935b188993737b3009d62bd916dcbe9e82d8236d75981eeadf26a1460d3d906116cb90600f90612cdd565b60405180910390a2505050505050565b6003546040516331a9108f60e11b81526001600160a01b0390911690636352211e9061170b9084906004016131c4565b60206040518083038186803b15801561172357600080fd5b505afa158015611737573d6000803e3d6000fd5b505050506040513d601f19601f8201168201806040525081019061175b91906127e3565b6001600160a01b0316336001600160a01b03161461178b5760405162461bcd60e51b81526004016104fc90612ed0565b6003546040516336dbd2f960e01b81526001600160a01b03909116906336dbd2f9906117bb9084906004016131c4565b60206040518083038186803b1580156117d357600080fd5b505afa1580156117e7573d6000803e3d6000fd5b505050506040513d601f19601f8201168201806040525081019061180b9190612949565b156118285760405162461bcd60e51b81526004016104fc90612f2f565b600061183382611942565b600354604051630ae169a560e41b81529192506001600160a01b03169063ae169a50906118649085906004016131c4565b600060405180830381600087803b15801561187e57600080fd5b505af1158015611892573d6000803e3d6000fd5b5050505060008111156118b6576002546118b6906001600160a01b03163383611f2e565b336001600160a01b03167f34fcbac0073d7c3d388e51312faf357774904998eeb8fca628b9e6f65ee1cbf78383604051610fe29291906131cd565b6008602052816000526040600020818154811061094e57fe5b600c5481565b60008281526008602052604081208054600584900390811061192e57fe5b906000526020600020015490505b92915050565b600354604051631bf1e00f60e01b815260009182916001600160a01b0390911690631bf1e00f906119779086906004016131c4565b60206040518083038186803b15801561198f57600080fd5b505afa1580156119a3573d6000803e3d6000fd5b505050506040513d601f19601f820116820180604052508101906119c791906129f9565b90506119d161269e565b600354604051635f8e26a760e01b81526001600160a01b0390911690635f8e26a790611a019087906004016131c4565b60806040518083038186803b158015611a1957600080fd5b505afa158015611a2d573d6000803e3d6000fd5b505050506040513d601f19601f82011682018060405250810190611a5191906128d9565b9050611a5b61269e565b600083815260066020526040808220815160808101928390529290916004918390855b825461010083900a900460ff16815260206001928301818104948501949093039092029101808411611a7e5790505050505050905080600060048110611ac057fe5b602002015160ff16611ae45760405162461bcd60e51b81526004016104fc90612d9f565b6000805b6004811015611b2e57838160048110611afd57fe5b602002015160ff16838260048110611b1157fe5b602002015160ff161415611b26578160010191505b600101611ae8565b5060006001821115611c2957600354604051637bd0606560e11b81526000916001600160a01b03169063f7a0c0ca90611b6b908b906004016131c4565b60206040518083038186803b158015611b8357600080fd5b505afa158015611b97573d6000803e3d6000fd5b505050506040513d601f19601f82011682018060405250810190611bbb91906129f9565b90506000611c026064611bfc60018760040360038110611bd757fe5b602081049091015460ff601f9092166101000a900416611bf68b610fee565b906121b7565b906121f1565b9050611c2481611bf6611c158a88611910565b611bfc8664e8d4a510006121b7565b925050505b611c388164e8d4a510006121f1565b979650505050505050565b6004546001600160a01b03163314611c6d5760405162461bcd60e51b81526004016104fc906130b9565b611c75611d7f565b611c915760405162461bcd60e51b81526004016104fc90613139565b42600e556000600c819055600d55600f805463ffffffff191690556010805460ff19169055600b805460018101909155611ccc906004611910565b611d5157600154600b54600091611cf791606491611bfc9160ff90911690611bf69060001901610fee565b604080516080810191829052919250611d4f918391601190600490826000855b825461010083900a900460ff16815260206001928301818104948501949093039092029101808411611d175790505050505050612233565b505b600b546040517f01c3cbb0d62726ab09d163873ebf9aed99dd8dc08e57bc938f458132fd178cf690600090a2565b600f5460ff16151590565b60055481565b6003546001600160a01b031681565b6000546001600160a01b03163314611dc95760405162461bcd60e51b81526004016104fc90613084565b6001600160a01b038116611def5760405162461bcd60e51b81526004016104fc90612e27565b600080546040516001600160a01b03808516939216917f8be0079c531659141344cd1fd0a4f28419497f9722a3daafe3b4186f6b6457e091a3600080546001600160a01b0319166001600160a01b0392909216919091179055565b6004546001600160a01b031681565b303b1590565b600080546001600160a01b0319166001600160a01b03831690811782556040519091907f8be0079c531659141344cd1fd0a4f28419497f9722a3daafe3b4186f6b6457e0908290a350565b600082820183811015611ecf5760405162461bcd60e51b81526004016104fc90612e6d565b9392505050565b611119846323b872dd60e01b858585604051602401611ef793929190612c2a565b60408051601f198184030181529190526020810180516001600160e01b03166001600160e01b0319909316929092179091526123a4565b611f4d8363a9059cbb60e01b8484604051602401611ef7929190612c4e565b505050565b611f5a61269e565b611f6261267f565b604080516080810191829052611fb591600f90600490826000855b825461010083900a900460ff16815260206001928301818104948501949093039092029101808411611f7d57905050505050506112bf565b600b54600081815260096020818152604080842086516001600160401b03908116865281845282862054878752858552888501519091168652818452918520549585529290915293945061203c918560025b60200201516001600160401b03166001600160401b031681526020019081526020016000205482611eaa90919063ffffffff16565b600b54600090815260096020526040812091925061205d9190856003612007565b600b54600090815260096020526040812091925061207e9190856004612007565b905060006120976120908460046121b7565b8390612433565b600b54600081815260096020818152604080842060a08b01516001600160401b031685528083529084205494845291905292935090916120d991876006612007565b600b5460009081526009602052604081209192506120fa9190876007612007565b600b54600090815260096020526040812091925061211b9190876008612007565b600b546000908152600960208190526040822092935061213e9291908890612007565b600b54600090815260096020526040812091925061215f919087600a612007565b9050600061218c6121718560036121b7565b61218661217f8860066121b7565b8590611eaa565b90612433565b60408051608081018252600d5481526020810197909752860193909352505060608301525091505090565b6000826121c65750600061193c565b828202828482816121d357fe5b0414611ecf5760405162461bcd60e51b81526004016104fc9061300c565b6000611ecf83836040518060400160405280601a81526020017f536166654d6174683a206469766973696f6e206279207a65726f000000000000815250612475565b61223b611d7f565b156122585760405162461bcd60e51b81526004016104fc9061304d565b60005b60048110156122ad5760048054600160a01b900460ff169083908390811061227f57fe5b602002015160ff1611156122a55760405162461bcd60e51b81526004016104fc90612ea4565b60010161225b565b50600354600b54604051620dce4760ea1b81526000926001600160a01b0316916337391c00916122e591309187918991600401612bfb565b602060405180830381600087803b1580156122ff57600080fd5b505af1158015612313573d6000803e3d6000fd5b505050506040513d601f19601f8201168201806040525081019061233791906129f9565b600b54600090815260076020908152604082208054600181018255908352912001819055600d5490915061236b9084611eaa565b600d5542600e5560405130907fe3d4187f6ca4248660cc0ac8b8056515bac4a8132be2eca31d6d0cc170722a7e90610c9f9084906131c4565b60606123f9826040518060400160405280602081526020017f5361666545524332303a206c6f772d6c6576656c2063616c6c206661696c6564815250856001600160a01b03166124ac9092919063ffffffff16565b805190915015611f4d57808060200190518101906124179190612949565b611f4d5760405162461bcd60e51b81526004016104fc9061315a565b6000611ecf83836040518060400160405280601e81526020017f536166654d6174683a207375627472616374696f6e206f766572666c6f7700008152506124c3565b600081836124965760405162461bcd60e51b81526004016104fc9190612d4c565b5060008385816124a257fe5b0495945050505050565b60606124bb84846000856124ef565b949350505050565b600081848411156124e75760405162461bcd60e51b81526004016104fc9190612d4c565b505050900390565b60606124fa856125b3565b6125165760405162461bcd60e51b81526004016104fc90613102565b60006060866001600160a01b031685876040516125339190612bcb565b60006040518083038185875af1925050503d8060008114612570576040519150601f19603f3d011682016040523d82523d6000602084013e612575565b606091505b509150915081156125895791506124bb9050565b8051156125995780518082602001fd5b8360405162461bcd60e51b81526004016104fc9190612d4c565b6000813f7fc5d2460186f7233c927e7db2dcc703c0e500b653ca82273b7bfad8045d85a4708181148015906124bb575050151592915050565b60018301918390821561266f5791602002820160005b8382111561264057835183826101000a81548160ff021916908360ff1602179055509260200192600101602081600001049283019260010302612602565b801561266d5782816101000a81549060ff0219169055600101602081600001049283019260010302612640565b505b5061267b929150612736565b5090565b604051806101600160405280600b906020820280368337509192915050565b60405180608001604052806004906020820280368337509192915050565b60018301918390821561266f5791601f016020900482015b8281111561266f5782548255916001019190600101906126d4565b82805482825590600052602060002090810192821561272a579160200282015b8281111561272a57825182559160200191906001019061270f565b5061267b92915061274f565b5b8082111561267b57805460ff19168155600101612737565b5b8082111561267b5760008155600101612750565b600082601f830112612774578081fd5b61277e60806131e9565b905080828460808501111561279257600080fd5b60005b60048110156127be5781356127a981613272565b83526020928301929190910190600101612795565b50505092915050565b6000602082840312156127d8578081fd5b8135611ecf8161325a565b6000602082840312156127f4578081fd5b8151611ecf8161325a565b60008060408385031215612811578081fd5b823561281c8161325a565b946020939093013593505050565b6000602080838503121561283c578182fd5b82356001600160401b03811115612851578283fd5b8301601f81018513612861578283fd5b803561287461286f8261320f565b6131e9565b8181528381019083850185840285018601891015612890578687fd5b8694505b838510156128b2578035835260019490940193918501918501612894565b50979650505050505050565b6000608082840312156128cf578081fd5b611ecf8383612764565b6000608082840312156128ea578081fd5b82601f8301126128f8578081fd5b61290260806131e9565b808385608086011115612913578384fd5b835b600481101561293e57815161292981613272565b84526020938401939190910190600101612915565b509095945050505050565b60006020828403121561295a578081fd5b81518015158114611ecf578182fd5b60008060008060008060c08789031215612981578182fd5b863561298c8161325a565b9550602087013561299c8161325a565b94506040870135935060608701356129b381613272565b925060808701356129c38161325a565b915060a08701356129d38161325a565b809150509295509295509295565b6000602082840312156129f2578081fd5b5035919050565b600060208284031215612a0a578081fd5b5051919050565b60008060408385031215612a23578182fd5b823591506020808401356001600160401b03811115612a40578283fd5b8401601f81018613612a50578283fd5b8035612a5e61286f8261320f565b818152838101908385016080808502860187018b1015612a7c578788fd5b8795505b84861015612aa857612a928b83612764565b8452600195909501949286019290810190612a80565b5096999098509650505050505050565b60008060a08385031215612aca578182fd5b82359150612adb8460208501612764565b90509250929050565b60008060408385031215612af6578182fd5b50508035926020909101359150565b60008060408385031215612b17578182fd5b8235915060208301356001600160401b0381168114612b34578182fd5b809150509250929050565b600060208284031215612b50578081fd5b8135611ecf81613272565b600080600060608486031215612b6f578081fd5b8335612b7a81613272565b92506020840135612b8a81613272565b91506040840135612b9a81613272565b809150509250925092565b8060005b600481101561111957815160ff16845260209384019390910190600101612ba9565b60008251612bdd81846020870161322e565b9190910192915050565b6001600160a01b0391909116815260200190565b6001600160a01b038516815260e08101612c186020830186612ba5565b60a082019390935260c0015292915050565b6001600160a01b039384168152919092166020820152604081019190915260600190565b6001600160a01b03929092168252602082015260400190565b6020808252825182820181905260009190848201906040850190845b81811015612c9f57835183529284019291840191600101612c83565b50909695505050505050565b6101608101818360005b600b8110156127be5781516001600160401b0316835260209283019290910190600101612cb5565b905460ff8082168352600882901c81166020840152601082901c8116604084015260189190911c16606082015260800190565b901515815260200190565b9283526020830191909152604082015260600190565b93845260208401929092526040830152606082015260800190565b6000602082528251806020840152612d6b81604085016020870161322e565b601f01601f19169190910160400192915050565b60208082526006908201526572657365743f60d01b604082015260600190565b6020808252600a90820152691b9bdd08191c985dd95960b21b604082015260600190565b602080825260139082015272657863656564206e756d6265722073636f706560681b604082015260600190565b60208082526019908201527f5f6973737565496e646578203c3d206973737565496e64657800000000000000604082015260600190565b60208082526026908201527f4f776e61626c653a206e6577206f776e657220697320746865207a65726f206160408201526564647265737360d01b606082015260800190565b6020808252601b908201527f536166654d6174683a206164646974696f6e206f766572666c6f770000000000604082015260600190565b60208082526012908201527165786365656420746865206d6178696d756d60701b604082015260600190565b6020808252600e908201526d3737ba10333937b69037bbb732b960911b604082015260600190565b60208082526019908201527f656e7465722064726177696e6720706861736520666972737400000000000000604082015260600190565b60208082526007908201526618db185a5b595960ca1b604082015260600190565b60208082526018908201527f64726177696e672c2063616e206e6f7420627579206e6f770000000000000000604082015260600190565b6020808252602e908201527f496e697469616c697a61626c653a20636f6e747261637420697320616c72656160408201526d191e481a5b9a5d1a585b1a5e995960921b606082015260800190565b60208082526019908201527f7072696365206d7573742061626f7665206d696e507269636500000000000000604082015260600190565b60208082526021908201527f536166654d6174683a206d756c7469706c69636174696f6e206f766572666c6f6040820152607760f81b606082015260800190565b60208082526017908201527f6472617765642c2063616e206e6f7420627579206e6f77000000000000000000604082015260600190565b6020808252818101527f4f776e61626c653a2063616c6c6572206973206e6f7420746865206f776e6572604082015260600190565b6020808252600b908201526a61646d696e3a207775743f60a81b604082015260600190565b6020808252600a90820152690657863656564203130360b41b604082015260600190565b6020808252601d908201527f416464726573733a2063616c6c20746f206e6f6e2d636f6e7472616374000000604082015260600190565b6020808252600790820152666472617765643f60c81b604082015260600190565b6020808252602a908201527f5361666545524332303a204552433230206f7065726174696f6e20646964206e6040820152691bdd081cdd58d8d9595960b21b606082015260800190565b602080825260069082015265191c985dd95960d21b604082015260600190565b90815260200190565b918252602082015260400190565b60ff91909116815260200190565b6040518181016001600160401b038111828210171561320757600080fd5b604052919050565b60006001600160401b03821115613224578081fd5b5060209081020190565b60005b83811015613249578181015183820152602001613231565b838111156111195750506000910152565b6001600160a01b038116811461326f57600080fd5b50565b60ff8116811461326f57600080fdfea2646970667358221220840c7d685dd07c9132d1602bc31478aa6295690f88524d4a2cfc6b91d729e24c64736f6c634300060c0033",
  "immutableReferences": {},
  "source": "// SPDX-License-Identifier: MIT\n\npragma solidity 0.6.12;\npragma experimental ABIEncoderV2;\n\nimport \"./LotteryNFT.sol\";\nimport \"./token/ERC20/IERC20.sol\";\nimport \"./token/ERC20/SafeERC20.sol\";\nimport \"./LotteryOwnable.sol\";\nimport \"./math/SafeMath.sol\";\nimport \"./proxy/Initializable.sol\";\n\n// 4 numbers\ncontract Lottery is LotteryOwnable, Initializable {\n    using SafeMath for uint256;\n    using SafeMath for uint8;\n    using SafeERC20 for IERC20;\n\n    uint8 constant keyLengthForEachBuy = 11;\n    // Allocation for first/sencond/third reward\n    uint8[3] public allocation;\n    // The TOKEN to buy lottery\n    IERC20 public busd;\n    // The Lottery NFT for tickets\n    LotteryNFT public lotteryNFT;\n    // adminAddress\n    address public adminAddress;\n    // maxNumber\n    uint8 public maxNumber;\n    // minPrice, if decimal is not 18, please reset it\n    uint256 public minPrice;\n\n    // =================================\n\n    // issueId => winningNumbers[numbers]\n    mapping(uint256 => uint8[4]) public historyNumbers;\n    // issueId => [tokenId]\n    mapping(uint256 => uint256[]) public lotteryInfo;\n    // issueId => [totalAmount, firstMatchAmount, secondMatchingAmount, thirdMatchingAmount]\n    mapping(uint256 => uint256[]) public historyAmount;\n    // issueId => trickyNumber => buyAmountSum\n    mapping(uint256 => mapping(uint64 => uint256)) public userBuyAmountSum;\n    // address => [tokenId]\n    mapping(address => uint256[]) public userInfo;\n\n    uint256 public issueIndex = 0;\n    uint256 public totalAddresses = 0;\n    uint256 public totalAmount = 0;\n    uint256 public lastTimestamp;\n\n    uint8[4] public winningNumbers;\n\n    // default false\n    bool public drawingPhase;\n\n    // =================================\n\n    event Buy(address indexed user, uint256 tokenId);\n    event Drawing(uint256 indexed issueIndex, uint8[4] winningNumbers);\n    event Claim(address indexed user, uint256 tokenid, uint256 amount);\n    event DevWithdraw(address indexed user, uint256 amount);\n    event Reset(uint256 indexed issueIndex);\n    event MultiClaim(address indexed user, uint256 amount);\n    event MultiBuy(address indexed user, uint256 amount);\n\n    constructor() public {}\n\n    function initialize(\n        IERC20 _busd,\n        LotteryNFT _lottery,\n        uint256 _minPrice,\n        uint8 _maxNumber,\n        address _owner,\n        address _adminAddress\n    ) public initializer {\n        busd = _busd;\n        lotteryNFT = _lottery;\n        minPrice = _minPrice;\n        maxNumber = _maxNumber;\n        adminAddress = _adminAddress;\n        lastTimestamp = block.timestamp;\n        allocation = [60, 20, 10];\n        initOwner(_owner);\n    }\n\n    uint8[4] private nullTicket = [0, 0, 0, 0];\n\n    modifier onlyAdmin() {\n        require(msg.sender == adminAddress, \"admin: wut?\");\n        _;\n    }\n\n    modifier inDrawingPhase() {\n        require(!drawed(), \"drawed, can not buy now\");\n        require(!drawingPhase, \"drawing, can not buy now\");\n        _;\n    }\n\n    function drawed() public view returns (bool) {\n        return winningNumbers[0] != 0;\n    }\n\n    function reset() external onlyAdmin {\n        require(drawed(), \"drawed?\");\n        lastTimestamp = block.timestamp;\n        totalAddresses = 0;\n        totalAmount = 0;\n        winningNumbers[0] = 0;\n        winningNumbers[1] = 0;\n        winningNumbers[2] = 0;\n        winningNumbers[3] = 0;\n        drawingPhase = false;\n        issueIndex = issueIndex + 1;\n        if (getMatchingRewardAmount(issueIndex - 1, 4) == 0) {\n            uint256 amount =\n                getTotalRewards(issueIndex - 1).mul(allocation[0]).div(100);\n            internalBuy(amount, nullTicket);\n        }\n        emit Reset(issueIndex);\n    }\n\n    function enterDrawingPhase() external onlyAdmin {\n        require(!drawed(), \"drawed\");\n        drawingPhase = true;\n    }\n\n    // add externalRandomNumber to prevent node validators exploiting\n    function drawing(uint256 _externalRandomNumber) external onlyAdmin {\n        require(!drawed(), \"reset?\");\n        require(drawingPhase, \"enter drawing phase first\");\n        bytes32 _structHash;\n        uint256 _randomNumber;\n        uint8 _maxNumber = maxNumber;\n        bytes32 _blockhash = blockhash(block.number - 1);\n\n        // waste some gas fee here\n        for (uint256 i = 0; i < 10; i++) {\n            getTotalRewards(issueIndex);\n        }\n        uint256 gasLeft = gasleft();\n\n        // 1\n        _structHash = keccak256(\n            abi.encode(\n                _blockhash,\n                totalAddresses,\n                gasLeft,\n                _externalRandomNumber\n            )\n        );\n        _randomNumber = uint256(_structHash);\n        assembly {\n            _randomNumber := add(mod(_randomNumber, _maxNumber), 1)\n        }\n        winningNumbers[0] = uint8(_randomNumber);\n\n        // 2\n        _structHash = keccak256(\n            abi.encode(_blockhash, totalAmount, gasLeft, _externalRandomNumber)\n        );\n        _randomNumber = uint256(_structHash);\n        assembly {\n            _randomNumber := add(mod(_randomNumber, _maxNumber), 1)\n        }\n        winningNumbers[1] = uint8(_randomNumber);\n\n        // 3\n        _structHash = keccak256(\n            abi.encode(\n                _blockhash,\n                lastTimestamp,\n                gasLeft,\n                _externalRandomNumber\n            )\n        );\n        _randomNumber = uint256(_structHash);\n        assembly {\n            _randomNumber := add(mod(_randomNumber, _maxNumber), 1)\n        }\n        winningNumbers[2] = uint8(_randomNumber);\n\n        // 4\n        _structHash = keccak256(\n            abi.encode(_blockhash, gasLeft, _externalRandomNumber)\n        );\n        _randomNumber = uint256(_structHash);\n        assembly {\n            _randomNumber := add(mod(_randomNumber, _maxNumber), 1)\n        }\n        winningNumbers[3] = uint8(_randomNumber);\n\n        historyNumbers[issueIndex] = winningNumbers;\n        historyAmount[issueIndex] = calculateMatchingRewardAmount();\n        drawingPhase = false;\n        emit Drawing(issueIndex, winningNumbers);\n    }\n\n    function internalBuy(uint256 _price, uint8[4] memory _numbers) internal {\n        require(!drawed(), \"drawed, can not buy now\");\n        for (uint256 i = 0; i < 4; i++) {\n            require(_numbers[i] <= maxNumber, \"exceed the maximum\");\n        }\n        uint256 tokenId =\n            lotteryNFT.newLotteryItem(\n                address(this),\n                _numbers,\n                _price,\n                issueIndex\n            );\n        lotteryInfo[issueIndex].push(tokenId);\n        totalAmount = totalAmount.add(_price);\n        lastTimestamp = block.timestamp;\n        emit Buy(address(this), tokenId);\n    }\n\n    function buy(uint256 _price, uint8[4] memory _numbers)\n        external\n        inDrawingPhase\n    {\n        require(_price >= minPrice, \"price must above minPrice\");\n        for (uint256 i = 0; i < 4; i++) {\n            require(_numbers[i] <= maxNumber, \"exceed number scope\");\n        }\n        uint256 tokenId =\n            lotteryNFT.newLotteryItem(msg.sender, _numbers, _price, issueIndex);\n        lotteryInfo[issueIndex].push(tokenId);\n        if (userInfo[msg.sender].length == 0) {\n            totalAddresses = totalAddresses + 1;\n        }\n        userInfo[msg.sender].push(tokenId);\n        totalAmount = totalAmount.add(_price);\n        lastTimestamp = block.timestamp;\n        uint64[keyLengthForEachBuy] memory userNumberIndex =\n            generateNumberIndexKey(_numbers);\n        for (uint256 i = 0; i < keyLengthForEachBuy; i++) {\n            userBuyAmountSum[issueIndex][userNumberIndex[i]] = userBuyAmountSum[\n                issueIndex\n            ][userNumberIndex[i]]\n                .add(_price);\n        }\n        busd.safeTransferFrom(address(msg.sender), address(this), _price);\n        emit Buy(msg.sender, tokenId);\n    }\n\n    function multiBuy(uint256 _price, uint8[4][] memory _numbers)\n        external\n        inDrawingPhase\n    {\n        require(_price >= minPrice, \"price must above minPrice\");\n        uint256 totalPrice = 0;\n        for (uint256 i = 0; i < _numbers.length; i++) {\n            for (uint256 j = 0; j < 4; j++) {\n                require(\n                    _numbers[i][j] <= maxNumber && _numbers[i][j] > 0,\n                    \"exceed number scope\"\n                );\n            }\n            uint256 tokenId =\n                lotteryNFT.newLotteryItem(\n                    msg.sender,\n                    _numbers[i],\n                    _price,\n                    issueIndex\n                );\n            lotteryInfo[issueIndex].push(tokenId);\n            if (userInfo[msg.sender].length == 0) {\n                totalAddresses = totalAddresses + 1;\n            }\n            userInfo[msg.sender].push(tokenId);\n            totalAmount = totalAmount.add(_price);\n            lastTimestamp = block.timestamp;\n            totalPrice = totalPrice.add(_price);\n            uint64[keyLengthForEachBuy] memory numberIndexKey =\n                generateNumberIndexKey(_numbers[i]);\n            for (uint256 k = 0; k < keyLengthForEachBuy; k++) {\n                userBuyAmountSum[issueIndex][\n                    numberIndexKey[k]\n                ] = userBuyAmountSum[issueIndex][numberIndexKey[k]].add(_price);\n            }\n        }\n        busd.safeTransferFrom(address(msg.sender), address(this), totalPrice);\n        emit MultiBuy(msg.sender, totalPrice);\n    }\n\n    function claimReward(uint256 _tokenId) external {\n        require(msg.sender == lotteryNFT.ownerOf(_tokenId), \"not from owner\");\n        require(!lotteryNFT.getClaimStatus(_tokenId), \"claimed\");\n        uint256 reward = getRewardView(_tokenId);\n        lotteryNFT.claimReward(_tokenId);\n        if (reward > 0) {\n            busd.safeTransfer(address(msg.sender), reward);\n        }\n        emit Claim(msg.sender, _tokenId, reward);\n    }\n\n    function multiClaim(uint256[] memory _tickets) external {\n        uint256 totalReward = 0;\n        for (uint256 i = 0; i < _tickets.length; i++) {\n            require(\n                msg.sender == lotteryNFT.ownerOf(_tickets[i]),\n                \"not from owner\"\n            );\n            require(!lotteryNFT.getClaimStatus(_tickets[i]), \"claimed\");\n            uint256 reward = getRewardView(_tickets[i]);\n            if (reward > 0) {\n                totalReward = reward.add(totalReward);\n            }\n        }\n        lotteryNFT.multiClaimReward(_tickets);\n        if (totalReward > 0) {\n            busd.safeTransfer(address(msg.sender), totalReward);\n        }\n        emit MultiClaim(msg.sender, totalReward);\n    }\n\n    function generateNumberIndexKey(uint8[4] memory number)\n        public\n        pure\n        returns (uint64[keyLengthForEachBuy] memory)\n    {\n        uint64[4] memory tempNumber;\n        tempNumber[0] = uint64(number[0]);\n        tempNumber[1] = uint64(number[1]);\n        tempNumber[2] = uint64(number[2]);\n        tempNumber[3] = uint64(number[3]);\n\n        uint64[keyLengthForEachBuy] memory result;\n        result[0] =\n            tempNumber[0] *\n            256 *\n            256 *\n            256 *\n            256 *\n            256 *\n            256 +\n            1 *\n            256 *\n            256 *\n            256 *\n            256 *\n            256 +\n            tempNumber[1] *\n            256 *\n            256 *\n            256 *\n            256 +\n            2 *\n            256 *\n            256 *\n            256 +\n            tempNumber[2] *\n            256 *\n            256 +\n            3 *\n            256 +\n            tempNumber[3];\n\n        result[1] =\n            tempNumber[0] *\n            256 *\n            256 *\n            256 *\n            256 +\n            1 *\n            256 *\n            256 *\n            256 +\n            tempNumber[1] *\n            256 *\n            256 +\n            2 *\n            256 +\n            tempNumber[2];\n        result[2] =\n            tempNumber[0] *\n            256 *\n            256 *\n            256 *\n            256 +\n            1 *\n            256 *\n            256 *\n            256 +\n            tempNumber[1] *\n            256 *\n            256 +\n            3 *\n            256 +\n            tempNumber[3];\n        result[3] =\n            tempNumber[0] *\n            256 *\n            256 *\n            256 *\n            256 +\n            2 *\n            256 *\n            256 *\n            256 +\n            tempNumber[2] *\n            256 *\n            256 +\n            3 *\n            256 +\n            tempNumber[3];\n        result[4] =\n            1 *\n            256 *\n            256 *\n            256 *\n            256 *\n            256 +\n            tempNumber[1] *\n            256 *\n            256 *\n            256 *\n            256 +\n            2 *\n            256 *\n            256 *\n            256 +\n            tempNumber[2] *\n            256 *\n            256 +\n            3 *\n            256 +\n            tempNumber[3];\n\n        result[5] = tempNumber[0] * 256 * 256 + 1 * 256 + tempNumber[1];\n        result[6] = tempNumber[0] * 256 * 256 + 2 * 256 + tempNumber[2];\n        result[7] = tempNumber[0] * 256 * 256 + 3 * 256 + tempNumber[3];\n        result[8] =\n            1 *\n            256 *\n            256 *\n            256 +\n            tempNumber[1] *\n            256 *\n            256 +\n            2 *\n            256 +\n            tempNumber[2];\n        result[9] =\n            1 *\n            256 *\n            256 *\n            256 +\n            tempNumber[1] *\n            256 *\n            256 +\n            3 *\n            256 +\n            tempNumber[3];\n        result[10] =\n            2 *\n            256 *\n            256 *\n            256 +\n            tempNumber[2] *\n            256 *\n            256 +\n            3 *\n            256 +\n            tempNumber[3];\n\n        return result;\n    }\n\n    function calculateMatchingRewardAmount()\n        internal\n        view\n        returns (uint256[4] memory)\n    {\n        uint64[keyLengthForEachBuy] memory numberIndexKey =\n            generateNumberIndexKey(winningNumbers);\n\n        uint256 totalAmout1 = userBuyAmountSum[issueIndex][numberIndexKey[0]];\n\n        uint256 sumForTotalAmout2 =\n            userBuyAmountSum[issueIndex][numberIndexKey[1]];\n        sumForTotalAmout2 = sumForTotalAmout2.add(\n            userBuyAmountSum[issueIndex][numberIndexKey[2]]\n        );\n        sumForTotalAmout2 = sumForTotalAmout2.add(\n            userBuyAmountSum[issueIndex][numberIndexKey[3]]\n        );\n        sumForTotalAmout2 = sumForTotalAmout2.add(\n            userBuyAmountSum[issueIndex][numberIndexKey[4]]\n        );\n\n        uint256 totalAmout2 = sumForTotalAmout2.sub(totalAmout1.mul(4));\n\n        uint256 sumForTotalAmout3 =\n            userBuyAmountSum[issueIndex][numberIndexKey[5]];\n        sumForTotalAmout3 = sumForTotalAmout3.add(\n            userBuyAmountSum[issueIndex][numberIndexKey[6]]\n        );\n        sumForTotalAmout3 = sumForTotalAmout3.add(\n            userBuyAmountSum[issueIndex][numberIndexKey[7]]\n        );\n        sumForTotalAmout3 = sumForTotalAmout3.add(\n            userBuyAmountSum[issueIndex][numberIndexKey[8]]\n        );\n        sumForTotalAmout3 = sumForTotalAmout3.add(\n            userBuyAmountSum[issueIndex][numberIndexKey[9]]\n        );\n        sumForTotalAmout3 = sumForTotalAmout3.add(\n            userBuyAmountSum[issueIndex][numberIndexKey[10]]\n        );\n\n        uint256 totalAmout3 =\n            sumForTotalAmout3.add(totalAmout1.mul(6)).sub(\n                sumForTotalAmout2.mul(3)\n            );\n\n        return [totalAmount, totalAmout1, totalAmout2, totalAmout3];\n    }\n\n    function getMatchingRewardAmount(\n        uint256 _issueIndex,\n        uint256 _matchingNumber\n    ) public view returns (uint256) {\n        return historyAmount[_issueIndex][5 - _matchingNumber];\n    }\n\n    function getTotalRewards(uint256 _issueIndex)\n        public\n        view\n        returns (uint256)\n    {\n        require(_issueIndex <= issueIndex, \"_issueIndex <= issueIndex\");\n\n        if (!drawed() && _issueIndex == issueIndex) {\n            return totalAmount;\n        }\n        return historyAmount[_issueIndex][0];\n    }\n\n    function getRewardView(uint256 _tokenId) public view returns (uint256) {\n        uint256 _issueIndex = lotteryNFT.getLotteryIssueIndex(_tokenId);\n        uint8[4] memory lotteryNumbers = lotteryNFT.getLotteryNumbers(_tokenId);\n        uint8[4] memory _winningNumbers = historyNumbers[_issueIndex];\n        require(_winningNumbers[0] != 0, \"not drawed\");\n\n        uint256 matchingNumber = 0;\n        for (uint256 i = 0; i < lotteryNumbers.length; i++) {\n            if (_winningNumbers[i] == lotteryNumbers[i]) {\n                matchingNumber = matchingNumber + 1;\n            }\n        }\n        uint256 reward = 0;\n        if (matchingNumber > 1) {\n            uint256 amount = lotteryNFT.getLotteryAmount(_tokenId);\n            uint256 poolAmount =\n                getTotalRewards(_issueIndex)\n                    .mul(allocation[4 - matchingNumber])\n                    .div(100);\n            reward = amount\n                .mul(1e12)\n                .div(getMatchingRewardAmount(_issueIndex, matchingNumber))\n                .mul(poolAmount);\n        }\n        return reward.div(1e12);\n    }\n\n    // Update admin address by the previous dev.\n    function setAdmin(address _adminAddress) public onlyOwner {\n        adminAddress = _adminAddress;\n    }\n\n    // Withdraw without caring about rewards. EMERGENCY ONLY.\n    function adminWithdraw(uint256 _amount) public onlyAdmin {\n        busd.safeTransfer(address(msg.sender), _amount);\n        emit DevWithdraw(msg.sender, _amount);\n    }\n\n    // Set the minimum price for one ticket\n    function setMinPrice(uint256 _price) external onlyAdmin {\n        minPrice = _price;\n    }\n\n    // Set the minimum price for one ticket\n    function setMaxNumber(uint8 _maxNumber) external onlyAdmin {\n        maxNumber = _maxNumber;\n    }\n\n    // Set the allocation for one reward\n    function setAllocation(\n        uint8 _allcation1,\n        uint8 _allcation2,\n        uint8 _allcation3\n    ) external onlyAdmin {\n        require(_allcation1 + _allcation2 + _allcation3 < 100, \"exceed 100\");\n        allocation = [_allcation1, _allcation2, _allcation3];\n    }\n}\n",
  "sourcePath": "/Users/thanwa/git/token-lottery/contracts/Lottery.sol",
  "compiler": {
    "name": "solc",
    "version": "0.6.12+commit.27d51765.Emscripten.clang"
  },
  "schemaVersion": "3.3.4",
  "updatedAt": "2021-04-11T09:17:01.247Z",
  "networkType": "ethereum",
  "devdoc": {
    "kind": "dev",
    "methods": {
      "owner()": {
        "details": "Returns the address of the current owner."
      },
      "renounceOwnership()": {
        "details": "Leaves the contract without owner. It will not be possible to call `onlyOwner` functions anymore. Can only be called by the current owner. NOTE: Renouncing ownership will leave the contract without an owner, thereby removing any functionality that is only available to the owner."
      },
      "transferOwnership(address)": {
        "details": "Transfers ownership of the contract to a new account (`newOwner`). Can only be called by the current owner."
      }
    },
    "version": 1
  },
  "userdoc": {
    "kind": "user",
    "methods": {},
    "version": 1
  }
}