{
  "contractName": "LotteryNFT",
  "abi": [
    {
      "inputs": [
        {
          "internalType": "string",
          "name": "_name",
          "type": "string"
        },
        {
          "internalType": "string",
          "name": "_symbol",
          "type": "string"
        }
      ],
      "stateMutability": "nonpayable",
      "type": "constructor"
    },
    {
      "anonymous": false,
      "inputs": [
        {
          "indexed": true,
          "internalType": "address",
          "name": "owner",
          "type": "address"
        },
        {
          "indexed": true,
          "internalType": "address",
          "name": "approved",
          "type": "address"
        },
        {
          "indexed": true,
          "internalType": "uint256",
          "name": "tokenId",
          "type": "uint256"
        }
      ],
      "name": "Approval",
      "type": "event"
    },
    {
      "anonymous": false,
      "inputs": [
        {
          "indexed": true,
          "internalType": "address",
          "name": "owner",
          "type": "address"
        },
        {
          "indexed": true,
          "internalType": "address",
          "name": "operator",
          "type": "address"
        },
        {
          "indexed": false,
          "internalType": "bool",
          "name": "approved",
          "type": "bool"
        }
      ],
      "name": "ApprovalForAll",
      "type": "event"
    },
    {
      "anonymous": false,
      "inputs": [
        {
          "indexed": true,
          "internalType": "address",
          "name": "previousOwner",
          "type": "address"
        },
        {
          "indexed": true,
          "internalType": "address",
          "name": "newOwner",
          "type": "address"
        }
      ],
      "name": "OwnershipTransferred",
      "type": "event"
    },
    {
      "anonymous": false,
      "inputs": [
        {
          "indexed": true,
          "internalType": "address",
          "name": "from",
          "type": "address"
        },
        {
          "indexed": true,
          "internalType": "address",
          "name": "to",
          "type": "address"
        },
        {
          "indexed": true,
          "internalType": "uint256",
          "name": "tokenId",
          "type": "uint256"
        }
      ],
      "name": "Transfer",
      "type": "event"
    },
    {
      "inputs": [
        {
          "internalType": "address",
          "name": "to",
          "type": "address"
        },
        {
          "internalType": "uint256",
          "name": "tokenId",
          "type": "uint256"
        }
      ],
      "name": "approve",
      "outputs": [],
      "stateMutability": "nonpayable",
      "type": "function"
    },
    {
      "inputs": [
        {
          "internalType": "address",
          "name": "owner",
          "type": "address"
        }
      ],
      "name": "balanceOf",
      "outputs": [
        {
          "internalType": "uint256",
          "name": "",
          "type": "uint256"
        }
      ],
      "stateMutability": "view",
      "type": "function",
      "constant": true
    },
    {
      "inputs": [],
      "name": "baseURI",
      "outputs": [
        {
          "internalType": "string",
          "name": "",
          "type": "string"
        }
      ],
      "stateMutability": "view",
      "type": "function",
      "constant": true
    },
    {
      "inputs": [
        {
          "internalType": "uint256",
          "name": "",
          "type": "uint256"
        }
      ],
      "name": "claimInfo",
      "outputs": [
        {
          "internalType": "bool",
          "name": "",
          "type": "bool"
        }
      ],
      "stateMutability": "view",
      "type": "function",
      "constant": true
    },
    {
      "inputs": [
        {
          "internalType": "uint256",
          "name": "tokenId",
          "type": "uint256"
        }
      ],
      "name": "getApproved",
      "outputs": [
        {
          "internalType": "address",
          "name": "",
          "type": "address"
        }
      ],
      "stateMutability": "view",
      "type": "function",
      "constant": true
    },
    {
      "inputs": [
        {
          "internalType": "address",
          "name": "owner",
          "type": "address"
        },
        {
          "internalType": "address",
          "name": "operator",
          "type": "address"
        }
      ],
      "name": "isApprovedForAll",
      "outputs": [
        {
          "internalType": "bool",
          "name": "",
          "type": "bool"
        }
      ],
      "stateMutability": "view",
      "type": "function",
      "constant": true
    },
    {
      "inputs": [
        {
          "internalType": "uint256",
          "name": "",
          "type": "uint256"
        }
      ],
      "name": "issueIndex",
      "outputs": [
        {
          "internalType": "uint256",
          "name": "",
          "type": "uint256"
        }
      ],
      "stateMutability": "view",
      "type": "function",
      "constant": true
    },
    {
      "inputs": [
        {
          "internalType": "uint256",
          "name": "",
          "type": "uint256"
        }
      ],
      "name": "lotteryAmount",
      "outputs": [
        {
          "internalType": "uint256",
          "name": "",
          "type": "uint256"
        }
      ],
      "stateMutability": "view",
      "type": "function",
      "constant": true
    },
    {
      "inputs": [
        {
          "internalType": "uint256",
          "name": "",
          "type": "uint256"
        },
        {
          "internalType": "uint256",
          "name": "",
          "type": "uint256"
        }
      ],
      "name": "lotteryInfo",
      "outputs": [
        {
          "internalType": "uint8",
          "name": "",
          "type": "uint8"
        }
      ],
      "stateMutability": "view",
      "type": "function",
      "constant": true
    },
    {
      "inputs": [],
      "name": "name",
      "outputs": [
        {
          "internalType": "string",
          "name": "",
          "type": "string"
        }
      ],
      "stateMutability": "view",
      "type": "function",
      "constant": true
    },
    {
      "inputs": [],
      "name": "owner",
      "outputs": [
        {
          "internalType": "address",
          "name": "",
          "type": "address"
        }
      ],
      "stateMutability": "view",
      "type": "function",
      "constant": true
    },
    {
      "inputs": [
        {
          "internalType": "uint256",
          "name": "tokenId",
          "type": "uint256"
        }
      ],
      "name": "ownerOf",
      "outputs": [
        {
          "internalType": "address",
          "name": "",
          "type": "address"
        }
      ],
      "stateMutability": "view",
      "type": "function",
      "constant": true
    },
    {
      "inputs": [],
      "name": "renounceOwnership",
      "outputs": [],
      "stateMutability": "nonpayable",
      "type": "function"
    },
    {
      "inputs": [
        {
          "internalType": "address",
          "name": "from",
          "type": "address"
        },
        {
          "internalType": "address",
          "name": "to",
          "type": "address"
        },
        {
          "internalType": "uint256",
          "name": "tokenId",
          "type": "uint256"
        }
      ],
      "name": "safeTransferFrom",
      "outputs": [],
      "stateMutability": "nonpayable",
      "type": "function"
    },
    {
      "inputs": [
        {
          "internalType": "address",
          "name": "from",
          "type": "address"
        },
        {
          "internalType": "address",
          "name": "to",
          "type": "address"
        },
        {
          "internalType": "uint256",
          "name": "tokenId",
          "type": "uint256"
        },
        {
          "internalType": "bytes",
          "name": "_data",
          "type": "bytes"
        }
      ],
      "name": "safeTransferFrom",
      "outputs": [],
      "stateMutability": "nonpayable",
      "type": "function"
    },
    {
      "inputs": [
        {
          "internalType": "address",
          "name": "operator",
          "type": "address"
        },
        {
          "internalType": "bool",
          "name": "approved",
          "type": "bool"
        }
      ],
      "name": "setApprovalForAll",
      "outputs": [],
      "stateMutability": "nonpayable",
      "type": "function"
    },
    {
      "inputs": [
        {
          "internalType": "bytes4",
          "name": "interfaceId",
          "type": "bytes4"
        }
      ],
      "name": "supportsInterface",
      "outputs": [
        {
          "internalType": "bool",
          "name": "",
          "type": "bool"
        }
      ],
      "stateMutability": "view",
      "type": "function",
      "constant": true
    },
    {
      "inputs": [],
      "name": "symbol",
      "outputs": [
        {
          "internalType": "string",
          "name": "",
          "type": "string"
        }
      ],
      "stateMutability": "view",
      "type": "function",
      "constant": true
    },
    {
      "inputs": [
        {
          "internalType": "uint256",
          "name": "index",
          "type": "uint256"
        }
      ],
      "name": "tokenByIndex",
      "outputs": [
        {
          "internalType": "uint256",
          "name": "",
          "type": "uint256"
        }
      ],
      "stateMutability": "view",
      "type": "function",
      "constant": true
    },
    {
      "inputs": [
        {
          "internalType": "address",
          "name": "owner",
          "type": "address"
        },
        {
          "internalType": "uint256",
          "name": "index",
          "type": "uint256"
        }
      ],
      "name": "tokenOfOwnerByIndex",
      "outputs": [
        {
          "internalType": "uint256",
          "name": "",
          "type": "uint256"
        }
      ],
      "stateMutability": "view",
      "type": "function",
      "constant": true
    },
    {
      "inputs": [
        {
          "internalType": "uint256",
          "name": "tokenId",
          "type": "uint256"
        }
      ],
      "name": "tokenURI",
      "outputs": [
        {
          "internalType": "string",
          "name": "",
          "type": "string"
        }
      ],
      "stateMutability": "view",
      "type": "function",
      "constant": true
    },
    {
      "inputs": [],
      "name": "totalSupply",
      "outputs": [
        {
          "internalType": "uint256",
          "name": "",
          "type": "uint256"
        }
      ],
      "stateMutability": "view",
      "type": "function",
      "constant": true
    },
    {
      "inputs": [
        {
          "internalType": "address",
          "name": "from",
          "type": "address"
        },
        {
          "internalType": "address",
          "name": "to",
          "type": "address"
        },
        {
          "internalType": "uint256",
          "name": "tokenId",
          "type": "uint256"
        }
      ],
      "name": "transferFrom",
      "outputs": [],
      "stateMutability": "nonpayable",
      "type": "function"
    },
    {
      "inputs": [
        {
          "internalType": "address",
          "name": "newOwner",
          "type": "address"
        }
      ],
      "name": "transferOwnership",
      "outputs": [],
      "stateMutability": "nonpayable",
      "type": "function"
    },
    {
      "inputs": [
        {
          "internalType": "address",
          "name": "player",
          "type": "address"
        },
        {
          "internalType": "uint8[4]",
          "name": "_lotteryNumbers",
          "type": "uint8[4]"
        },
        {
          "internalType": "uint256",
          "name": "_amount",
          "type": "uint256"
        },
        {
          "internalType": "uint256",
          "name": "_issueIndex",
          "type": "uint256"
        }
      ],
      "name": "newLotteryItem",
      "outputs": [
        {
          "internalType": "uint256",
          "name": "",
          "type": "uint256"
        }
      ],
      "stateMutability": "nonpayable",
      "type": "function"
    },
    {
      "inputs": [
        {
          "internalType": "uint256",
          "name": "tokenId",
          "type": "uint256"
        }
      ],
      "name": "getLotteryNumbers",
      "outputs": [
        {
          "internalType": "uint8[4]",
          "name": "",
          "type": "uint8[4]"
        }
      ],
      "stateMutability": "view",
      "type": "function",
      "constant": true
    },
    {
      "inputs": [
        {
          "internalType": "uint256",
          "name": "tokenId",
          "type": "uint256"
        }
      ],
      "name": "getLotteryAmount",
      "outputs": [
        {
          "internalType": "uint256",
          "name": "",
          "type": "uint256"
        }
      ],
      "stateMutability": "view",
      "type": "function",
      "constant": true
    },
    {
      "inputs": [
        {
          "internalType": "uint256",
          "name": "tokenId",
          "type": "uint256"
        }
      ],
      "name": "getLotteryIssueIndex",
      "outputs": [
        {
          "internalType": "uint256",
          "name": "",
          "type": "uint256"
        }
      ],
      "stateMutability": "view",
      "type": "function",
      "constant": true
    },
    {
      "inputs": [
        {
          "internalType": "uint256",
          "name": "tokenId",
          "type": "uint256"
        }
      ],
      "name": "claimReward",
      "outputs": [],
      "stateMutability": "nonpayable",
      "type": "function"
    },
    {
      "inputs": [
        {
          "internalType": "uint256[]",
          "name": "_tokenIds",
          "type": "uint256[]"
        }
      ],
      "name": "multiClaimReward",
      "outputs": [],
      "stateMutability": "nonpayable",
      "type": "function"
    },
    {
      "inputs": [
        {
          "internalType": "uint256",
          "name": "tokenId",
          "type": "uint256"
        }
      ],
      "name": "burn",
      "outputs": [],
      "stateMutability": "nonpayable",
      "type": "function"
    },
    {
      "inputs": [
        {
          "internalType": "uint256",
          "name": "tokenId",
          "type": "uint256"
        }
      ],
      "name": "getClaimStatus",
      "outputs": [
        {
          "internalType": "bool",
          "name": "",
          "type": "bool"
        }
      ],
      "stateMutability": "view",
      "type": "function",
      "constant": true
    }
  ],
  "bytecode": "0x60806040523480156200001157600080fd5b50604051620028bf380380620028bf8339810160408190526200003491620002b1565b8181620000486301ffc9a760e01b6200010f565b81516200005d9060069060208501906200016e565b508051620000739060079060208401906200016e565b50620000866380ac58cd60e01b6200010f565b62000098635b5e139f60e01b6200010f565b620000aa63780e9d6360e01b6200010f565b5060009050620000b96200016a565b600a80546001600160a01b0319166001600160a01b038316908117909155604051919250906000907f8be0079c531659141344cd1fd0a4f28419497f9722a3daafe3b4186f6b6457e0908290a35050506200034f565b6001600160e01b03198082161415620001455760405162461bcd60e51b81526004016200013c9062000318565b60405180910390fd5b6001600160e01b0319166000908152602081905260409020805460ff19166001179055565b3390565b828054600181600116156101000203166002900490600052602060002090601f016020900481019282601f10620001b157805160ff1916838001178555620001e1565b82800160010185558215620001e1579182015b82811115620001e1578251825591602001919060010190620001c4565b50620001ef929150620001f3565b5090565b5b80821115620001ef5760008155600101620001f4565b600082601f8301126200021b578081fd5b81516001600160401b038082111562000232578283fd5b6040516020601f8401601f191682018101838111838210171562000254578586fd5b806040525081945083825286818588010111156200027157600080fd5b600092505b8383101562000295578583018101518284018201529182019162000276565b83831115620002a75760008185840101525b5050505092915050565b60008060408385031215620002c4578182fd5b82516001600160401b0380821115620002db578384fd5b620002e9868387016200020a565b93506020850151915080821115620002ff578283fd5b506200030e858286016200020a565b9150509250929050565b6020808252601c908201527f4552433136353a20696e76616c696420696e7465726661636520696400000000604082015260600190565b612560806200035f6000396000f3fe608060405234801561001057600080fd5b50600436106101f05760003560e01c80636352211e1161010f578063a22cb465116100a2578063c87b56dd11610071578063c87b56dd14610420578063e985e9c514610433578063f2fde38b14610446578063f7a0c0ca14610459576101f0565b8063a22cb465146103d4578063ae169a50146103e7578063b88d4fde146103fa578063c13f690b1461040d576101f0565b8063715018a6116100de578063715018a6146103a957806374310355146103b15780638da5cb5b146103c457806395d89b41146103cc576101f0565b80636352211e1461035b5780636575243f1461036e5780636c0360eb1461038e57806370a0823114610396576101f0565b80632f745c591161018757806342966c681161015657806342966c68146103025780634f6ccce7146103155780635c362233146103285780635f8e26a71461033b576101f0565b80632f745c59146102b657806336dbd2f9146102c957806337391c00146102dc57806342842e0e146102ef576101f0565b8063095ea7b3116101c3578063095ea7b31461027357806318160ddd146102885780631bf1e00f1461029057806323b872dd146102a3576101f0565b806301ffc9a7146101f557806306fdde031461021e578063081812fc1461023357806308c7662514610253575b600080fd5b610208610203366004611d48565b61046c565b6040516102159190611f07565b60405180910390f35b61022661048f565b6040516102159190611f12565b610246610241366004611d80565b610525565b6040516102159190611e82565b610266610261366004611d80565b610571565b60405161021591906123fd565b610286610281366004611c8e565b610583565b005b61026661061b565b61026661029e366004611d80565b61062c565b6102866102b1366004611ac6565b61063e565b6102666102c4366004611c8e565b610676565b6102086102d7366004611d80565b6106a1565b6102666102ea366004611bbc565b6106b6565b6102866102fd366004611ac6565b610753565b610286610310366004611d80565b61076e565b610266610323366004611d80565b6107af565b610208610336366004611d80565b6107c5565b61034e610349366004611d80565b6107da565b6040516102159190611ed3565b610246610369366004611d80565b61083e565b61038161037c366004611d98565b610866565b6040516102159190612406565b61022661089c565b6102666103a4366004611a77565b6108fd565b610286610946565b6102866103bf366004611cb8565b6109c5565b610246610a4d565b610226610a5c565b6102866103e2366004611c53565b610abd565b6102866103f5366004611d80565b610b8b565b610286610408366004611b06565b610bdb565b61026661041b366004611d80565b610c1a565b61022661042e366004611d80565b610c2c565b610208610441366004611a92565b610d76565b610286610454366004611a77565b610da4565b610266610467366004611d80565b610e5b565b6001600160e01b0319811660009081526020819052604090205460ff165b919050565b60068054604080516020601f600260001961010060018816150201909516949094049384018190048102820181019092528281526060939092909183018282801561051b5780601f106104f05761010080835404028352916020019161051b565b820191906000526020600020905b8154815290600101906020018083116104fe57829003601f168201915b5050505050905090565b600061053082610e6d565b6105555760405162461bcd60e51b815260040161054c9061221b565b60405180910390fd5b506000908152600460205260409020546001600160a01b031690565b600e6020526000908152604090205481565b600061058e8261083e565b9050806001600160a01b0316836001600160a01b031614156105c25760405162461bcd60e51b815260040161054c90612334565b806001600160a01b03166105d4610e7a565b6001600160a01b031614806105f057506105f081610441610e7a565b61060c5760405162461bcd60e51b815260040161054c906120fd565b6106168383610e7e565b505050565b60006106276002610eec565b905090565b6000908152600e602052604090205490565b61064f610649610e7a565b82610ef7565b61066b5760405162461bcd60e51b815260040161054c90612375565b610616838383610f74565b6001600160a01b03821660009081526001602052604081206106989083611082565b90505b92915050565b6000908152600f602052604090205460ff1690565b60006106c0610e7a565b600a546001600160a01b039081169116146106ed5760405162461bcd60e51b815260040161054c90612267565b6106f7600b61108e565b6000610703600b611097565b905061070f868261109b565b6000818152600c602052604090206107299086600461192c565b506000818152600d60209081526040808320879055600e909152902083905590505b949350505050565b61061683838360405180602001604052806000815250610bdb565b610776610e7a565b600a546001600160a01b039081169116146107a35760405162461bcd60e51b815260040161054c90612267565b6107ac8161115f565b50565b6000806107bd60028461122c565b509392505050565b600f6020526000908152604090205460ff1681565b6107e26119bf565b6000828152600c6020526040808220815160808101928390529290916004918390855b825461010083900a900460ff16815260206001928301818104948501949093039092029101808411610805575094979650505050505050565b600061069b826040518060600160405280602981526020016125026029913960029190611248565b600c602052816000526040600020816004811061087f57fe5b602081049091015460ff601f9092166101000a9004169150829050565b60098054604080516020601f600260001961010060018816150201909516949094049384018190048102820181019092528281526060939092909183018282801561051b5780601f106104f05761010080835404028352916020019161051b565b60006001600160a01b0382166109255760405162461bcd60e51b815260040161054c9061215a565b6001600160a01b038216600090815260016020526040902061069b90610eec565b61094e610e7a565b600a546001600160a01b0390811691161461097b5760405162461bcd60e51b815260040161054c90612267565b600a546040516000916001600160a01b0316907f8be0079c531659141344cd1fd0a4f28419497f9722a3daafe3b4186f6b6457e0908390a3600a80546001600160a01b0319169055565b6109cd610e7a565b600a546001600160a01b039081169116146109fa5760405162461bcd60e51b815260040161054c90612267565b60005b8151811015610a49576001600f6000848481518110610a1857fe5b6020908102919091018101518252810191909152604001600020805460ff19169115159190911790556001016109fd565b5050565b600a546001600160a01b031690565b60078054604080516020601f600260001961010060018816150201909516949094049384018190048102820181019092528281526060939092909183018282801561051b5780601f106104f05761010080835404028352916020019161051b565b610ac5610e7a565b6001600160a01b0316826001600160a01b03161415610af65760405162461bcd60e51b815260040161054c9061207a565b8060056000610b03610e7a565b6001600160a01b03908116825260208083019390935260409182016000908120918716808252919093529120805460ff191692151592909217909155610b47610e7a565b6001600160a01b03167f17307eab39ab6107e8899845ad3d59bd9653f200f220920489ca2b5937696c3183604051610b7f9190611f07565b60405180910390a35050565b610b93610e7a565b600a546001600160a01b03908116911614610bc05760405162461bcd60e51b815260040161054c90612267565b6000908152600f60205260409020805460ff19166001179055565b610bec610be6610e7a565b83610ef7565b610c085760405162461bcd60e51b815260040161054c90612375565b610c148484848461125f565b50505050565b600d6020526000908152604090205481565b6060610c3782610e6d565b610c535760405162461bcd60e51b815260040161054c906122e5565b60008281526008602090815260409182902080548351601f6002600019610100600186161502019093169290920491820184900484028101840190945280845260609392830182828015610ce85780601f10610cbd57610100808354040283529160200191610ce8565b820191906000526020600020905b815481529060010190602001808311610ccb57829003601f168201915b505060095493945050505060026000196101006001841615020190911604610d1157905061048a565b805115610d4357600981604051602001610d2c929190611e01565b60405160208183030381529060405291505061048a565b6009610d4e84611292565b604051602001610d5f929190611e01565b604051602081830303815290604052915050919050565b6001600160a01b03918216600090815260056020908152604080832093909416825291909152205460ff1690565b610dac610e7a565b600a546001600160a01b03908116911614610dd95760405162461bcd60e51b815260040161054c90612267565b6001600160a01b038116610dff5760405162461bcd60e51b815260040161054c90611fb9565b600a546040516001600160a01b038084169216907f8be0079c531659141344cd1fd0a4f28419497f9722a3daafe3b4186f6b6457e090600090a3600a80546001600160a01b0319166001600160a01b0392909216919091179055565b6000908152600d602052604090205490565b600061069b60028361136d565b3390565b600081815260046020526040902080546001600160a01b0319166001600160a01b0384169081179091558190610eb38261083e565b6001600160a01b03167f8c5be1e5ebec7d5bd14f71427d1e84f3dd0314c0f7b2291e5b200ac8c7c3b92560405160405180910390a45050565b600061069b82611097565b6000610f0282610e6d565b610f1e5760405162461bcd60e51b815260040161054c906120b1565b6000610f298361083e565b9050806001600160a01b0316846001600160a01b03161480610f645750836001600160a01b0316610f5984610525565b6001600160a01b0316145b8061074b575061074b8185610d76565b826001600160a01b0316610f878261083e565b6001600160a01b031614610fad5760405162461bcd60e51b815260040161054c9061229c565b6001600160a01b038216610fd35760405162461bcd60e51b815260040161054c90612036565b610fde838383610616565b610fe9600082610e7e565b6001600160a01b038316600090815260016020526040902061100b9082611379565b506001600160a01b038216600090815260016020526040902061102e9082611385565b5061103b60028284611391565b5080826001600160a01b0316846001600160a01b03167fddf252ad1be2c89b69c2b068fc378daa952ba7f163c4a11628f55a4df523b3ef60405160405180910390a4505050565b600061069883836113a7565b80546001019055565b5490565b6001600160a01b0382166110c15760405162461bcd60e51b815260040161054c906121e6565b6110ca81610e6d565b156110e75760405162461bcd60e51b815260040161054c90611fff565b6110f360008383610616565b6001600160a01b03821660009081526001602052604090206111159082611385565b5061112260028284611391565b5060405181906001600160a01b038416906000907fddf252ad1be2c89b69c2b068fc378daa952ba7f163c4a11628f55a4df523b3ef908290a45050565b600061116a8261083e565b905061117881600084610616565b611183600083610e7e565b60008281526008602052604090205460026000196101006001841615020190911604156111c15760008281526008602052604081206111c1916119dd565b6001600160a01b03811660009081526001602052604090206111e39083611379565b506111ef6002836113ec565b5060405182906000906001600160a01b038416907fddf252ad1be2c89b69c2b068fc378daa952ba7f163c4a11628f55a4df523b3ef908390a45050565b600080808061123b86866113f8565b9097909650945050505050565b6000611255848484611454565b90505b9392505050565b61126a848484610f74565b611276848484846114b3565b610c145760405162461bcd60e51b815260040161054c90611f67565b6060816112b757506040805180820190915260018152600360fc1b602082015261048a565b8160005b81156112cf57600101600a820491506112bb565b60608167ffffffffffffffff811180156112e857600080fd5b506040519080825280601f01601f191660200182016040528015611313576020820181803683370190505b50859350905060001982015b831561136457600a840660300160f81b8282806001900393508151811061134257fe5b60200101906001600160f81b031916908160001a905350600a8404935061131f565b50949350505050565b60006106988383611592565b600061069883836115aa565b60006106988383611670565b600061125584846001600160a01b0385166116ba565b815460009082106113ca5760405162461bcd60e51b815260040161054c90611f25565b8260000182815481106113d957fe5b9060005260206000200154905092915050565b60006106988383611751565b81546000908190831061141d5760405162461bcd60e51b815260040161054c906121a4565b600084600001848154811061142e57fe5b906000526020600020906002020190508060000154816001015492509250509250929050565b600082815260018401602052604081205482816114845760405162461bcd60e51b815260040161054c9190611f12565b5084600001600182038154811061149757fe5b9060005260206000209060020201600101549150509392505050565b60006114c7846001600160a01b0316611825565b6114d35750600161074b565b606061155b630a85bd0160e11b6114e8610e7a565b8887876040516024016114fe9493929190611e96565b604051602081830303815290604052906001600160e01b0319166020820180516001600160e01b0383818316178352505050506040518060600160405280603281526020016124d0603291396001600160a01b038816919061185e565b90506000818060200190518101906115739190611d64565b6001600160e01b031916630a85bd0160e11b1492505050949350505050565b60009081526001919091016020526040902054151590565b6000818152600183016020526040812054801561166657835460001980830191908101906000908790839081106115dd57fe5b90600052602060002001549050808760000184815481106115fa57fe5b60009182526020808320909101929092558281526001898101909252604090209084019055865487908061162a57fe5b6001900381819060005260206000200160009055905586600101600087815260200190815260200160002060009055600194505050505061069b565b600091505061069b565b600061167c8383611592565b6116b25750815460018181018455600084815260208082209093018490558454848252828601909352604090209190915561069b565b50600061069b565b60008281526001840160205260408120548061171f575050604080518082018252838152602080820184815286546001818101895560008981528481209551600290930290950191825591519082015586548684528188019092529290912055611258565b8285600001600183038154811061173257fe5b9060005260206000209060020201600101819055506000915050611258565b60008181526001830160205260408120548015611666578354600019808301919081019060009087908390811061178457fe5b90600052602060002090600202019050808760000184815481106117a457fe5b6000918252602080832084546002909302019182556001938401549184019190915583548252898301905260409020908401905586548790806117e357fe5b600082815260208082206002600019909401938402018281556001908101839055929093558881528982019092526040822091909155945061069b9350505050565b6000813f7fc5d2460186f7233c927e7db2dcc703c0e500b653ca82273b7bfad8045d85a47081811480159061074b575050151592915050565b60606112558484600085606061187385611825565b61188f5760405162461bcd60e51b815260040161054c906123c6565b60006060866001600160a01b031685876040516118ac9190611de5565b60006040518083038185875af1925050503d80600081146118e9576040519150601f19603f3d011682016040523d82523d6000602084013e6118ee565b606091505b5091509150811561190257915061074b9050565b8051156119125780518082602001fd5b8360405162461bcd60e51b815260040161054c9190611f12565b6001830191839082156119af5791602002820160005b8382111561198057835183826101000a81548160ff021916908360ff1602179055509260200192600101602081600001049283019260010302611942565b80156119ad5782816101000a81549060ff0219169055600101602081600001049283019260010302611980565b505b506119bb929150611a21565b5090565b60405180608001604052806004906020820280368337509192915050565b50805460018160011615610100020316600290046000825580601f10611a0357506107ac565b601f0160209004906000526020600020908101906107ac9190611a3a565b5b808211156119bb57805460ff19168155600101611a22565b5b808211156119bb5760008155600101611a3b565b80356001600160a01b038116811461069b57600080fd5b803560ff8116811461069b57600080fd5b600060208284031215611a88578081fd5b6106988383611a4f565b60008060408385031215611aa4578081fd5b611aae8484611a4f565b9150611abd8460208501611a4f565b90509250929050565b600080600060608486031215611ada578081fd5b8335611ae5816124a4565b92506020840135611af5816124a4565b929592945050506040919091013590565b60008060008060808587031215611b1b578081fd5b611b258686611a4f565b93506020611b3587828801611a4f565b935060408601359250606086013567ffffffffffffffff80821115611b58578384fd5b818801915088601f830112611b6b578384fd5b813581811115611b79578485fd5b611b8b601f8201601f19168501612414565b91508082528984828501011115611ba0578485fd5b8084840185840137810190920192909252939692955090935050565b60008060008060e08587031215611bd1578384fd5b8435611bdc816124a4565b93506020603f86018713611bee578384fd5b6004611c01611bfc8261245b565b612414565b8083890160a08a018b811115611c15578889fd5b885b85811015611c3b57611c298d84611a66565b85529386019391860191600101611c17565b50989b919a505096359760c001359695505050505050565b60008060408385031215611c65578182fd5b611c6f8484611a4f565b915060208301358015158114611c83578182fd5b809150509250929050565b60008060408385031215611ca0578182fd5b611caa8484611a4f565b946020939093013593505050565b60006020808385031215611cca578182fd5b823567ffffffffffffffff811115611ce0578283fd5b8301601f81018513611cf0578283fd5b8035611cfe611bfc8261243b565b8181528381019083850185840285018601891015611d1a578687fd5b8694505b83851015611d3c578035835260019490940193918501918501611d1e565b50979650505050505050565b600060208284031215611d59578081fd5b8135611258816124b9565b600060208284031215611d75578081fd5b8151611258816124b9565b600060208284031215611d91578081fd5b5035919050565b60008060408385031215611daa578182fd5b50508035926020909101359150565b60008151808452611dd1816020860160208601612478565b601f01601f19169290920160200192915050565b60008251611df7818460208701612478565b9190910192915050565b6000808454600180821660008114611e205760018114611e3757611e66565b60ff198316865260028304607f1686019350611e66565b600283048886526020808720875b83811015611e5e5781548a820152908501908201611e45565b505050860193505b5050508351611e79818360208801612478565b01949350505050565b6001600160a01b0391909116815260200190565b6001600160a01b0385811682528416602082015260408101839052608060608201819052600090611ec990830184611db9565b9695505050505050565b60808101818360005b6004811015611efe57815160ff16835260209283019290910190600101611edc565b50505092915050565b901515815260200190565b6000602082526106986020830184611db9565b60208082526022908201527f456e756d657261626c655365743a20696e646578206f7574206f6620626f756e604082015261647360f01b606082015260800190565b60208082526032908201527f4552433732313a207472616e7366657220746f206e6f6e20455243373231526560408201527131b2b4bb32b91034b6b83632b6b2b73a32b960711b606082015260800190565b60208082526026908201527f4f776e61626c653a206e6577206f776e657220697320746865207a65726f206160408201526564647265737360d01b606082015260800190565b6020808252601c908201527f4552433732313a20746f6b656e20616c7265616479206d696e74656400000000604082015260600190565b60208082526024908201527f4552433732313a207472616e7366657220746f20746865207a65726f206164646040820152637265737360e01b606082015260800190565b60208082526019908201527f4552433732313a20617070726f766520746f2063616c6c657200000000000000604082015260600190565b6020808252602c908201527f4552433732313a206f70657261746f7220717565727920666f72206e6f6e657860408201526b34b9ba32b73a103a37b5b2b760a11b606082015260800190565b60208082526038908201527f4552433732313a20617070726f76652063616c6c6572206973206e6f74206f7760408201527f6e6572206e6f7220617070726f76656420666f7220616c6c0000000000000000606082015260800190565b6020808252602a908201527f4552433732313a2062616c616e636520717565727920666f7220746865207a65604082015269726f206164647265737360b01b606082015260800190565b60208082526022908201527f456e756d657261626c654d61703a20696e646578206f7574206f6620626f756e604082015261647360f01b606082015260800190565b6020808252818101527f4552433732313a206d696e7420746f20746865207a65726f2061646472657373604082015260600190565b6020808252602c908201527f4552433732313a20617070726f76656420717565727920666f72206e6f6e657860408201526b34b9ba32b73a103a37b5b2b760a11b606082015260800190565b6020808252818101527f4f776e61626c653a2063616c6c6572206973206e6f7420746865206f776e6572604082015260600190565b60208082526029908201527f4552433732313a207472616e73666572206f6620746f6b656e2074686174206960408201526839903737ba1037bbb760b91b606082015260800190565b6020808252602f908201527f4552433732314d657461646174613a2055524920717565727920666f72206e6f60408201526e3732bc34b9ba32b73a103a37b5b2b760891b606082015260800190565b60208082526021908201527f4552433732313a20617070726f76616c20746f2063757272656e74206f776e656040820152603960f91b606082015260800190565b60208082526031908201527f4552433732313a207472616e736665722063616c6c6572206973206e6f74206f6040820152701ddb995c881b9bdc88185c1c1c9bdd9959607a1b606082015260800190565b6020808252601d908201527f416464726573733a2063616c6c20746f206e6f6e2d636f6e7472616374000000604082015260600190565b90815260200190565b60ff91909116815260200190565b60405181810167ffffffffffffffff8111828210171561243357600080fd5b604052919050565b600067ffffffffffffffff821115612451578081fd5b5060209081020190565b600067ffffffffffffffff821115612471578081fd5b5060200290565b60005b8381101561249357818101518382015260200161247b565b83811115610c145750506000910152565b6001600160a01b03811681146107ac57600080fd5b6001600160e01b0319811681146107ac57600080fdfe4552433732313a207472616e7366657220746f206e6f6e20455243373231526563656976657220696d706c656d656e7465724552433732313a206f776e657220717565727920666f72206e6f6e6578697374656e7420746f6b656ea2646970667358221220564e3ad87b5c9234eac02fe73479a76c8bd3fac6aa02fe9aef6b370b67fa2d8764736f6c634300060c0033",
  "immutableReferences": {},
  "source": "// SPDX-License-Identifier: MIT\n\npragma solidity 0.6.12;\npragma experimental ABIEncoderV2;\n\nimport \"./token/ERC721/ERC721.sol\";\nimport \"./utils/Counters.sol\";\nimport \"./access/Ownable.sol\";\n\ncontract LotteryNFT is ERC721, Ownable {\n    using Counters for Counters.Counter;\n    Counters.Counter private _tokenIds;\n\n    mapping(uint256 => uint8[4]) public lotteryInfo;\n    mapping(uint256 => uint256) public lotteryAmount;\n    mapping(uint256 => uint256) public issueIndex;\n    mapping(uint256 => bool) public claimInfo;\n\n    constructor(string memory _name, string memory _symbol)\n        public\n        ERC721(_name, _symbol)\n    {}\n\n    function newLotteryItem(\n        address player,\n        uint8[4] memory _lotteryNumbers,\n        uint256 _amount,\n        uint256 _issueIndex\n    ) public onlyOwner returns (uint256) {\n        _tokenIds.increment();\n\n        uint256 newItemId = _tokenIds.current();\n        _mint(player, newItemId);\n        lotteryInfo[newItemId] = _lotteryNumbers;\n        lotteryAmount[newItemId] = _amount;\n        issueIndex[newItemId] = _issueIndex;\n        // claimInfo[newItemId] = false; default is false here\n        // _setTokenURI(newItemId, tokenURI);\n\n        return newItemId;\n    }\n\n    function getLotteryNumbers(uint256 tokenId)\n        external\n        view\n        returns (uint8[4] memory)\n    {\n        return lotteryInfo[tokenId];\n    }\n\n    function getLotteryAmount(uint256 tokenId) external view returns (uint256) {\n        return lotteryAmount[tokenId];\n    }\n\n    function getLotteryIssueIndex(uint256 tokenId)\n        external\n        view\n        returns (uint256)\n    {\n        return issueIndex[tokenId];\n    }\n\n    function claimReward(uint256 tokenId) external onlyOwner {\n        claimInfo[tokenId] = true;\n    }\n\n    function multiClaimReward(uint256[] memory _tokenIds) external onlyOwner {\n        for (uint256 i = 0; i < _tokenIds.length; i++) {\n            claimInfo[_tokenIds[i]] = true;\n        }\n    }\n\n    function burn(uint256 tokenId) external onlyOwner {\n        _burn(tokenId);\n    }\n\n    function getClaimStatus(uint256 tokenId) external view returns (bool) {\n        return claimInfo[tokenId];\n    }\n}\n",
  "sourcePath": "/Users/aq1/Desktop/r.cat/lottery-token-busd/contracts/LotteryNFT.sol",
  "compiler": {
    "name": "solc",
    "version": "0.6.12+commit.27d51765.Emscripten.clang"
  },
  "schemaVersion": "3.4.1",
  "updatedAt": "2021-06-17T04:37:19.105Z",
  "networkType": "ethereum",
  "devdoc": {
    "kind": "dev",
    "methods": {
      "approve(address,uint256)": {
        "details": "See {IERC721-approve}."
      },
      "balanceOf(address)": {
        "details": "See {IERC721-balanceOf}."
      },
      "baseURI()": {
        "details": "Returns the base URI set via {_setBaseURI}. This will be automatically added as a prefix in {tokenURI} to each token's URI, or to the token ID if no specific URI is set for that token ID."
      },
      "getApproved(uint256)": {
        "details": "See {IERC721-getApproved}."
      },
      "isApprovedForAll(address,address)": {
        "details": "See {IERC721-isApprovedForAll}."
      },
      "name()": {
        "details": "See {IERC721Metadata-name}."
      },
      "owner()": {
        "details": "Returns the address of the current owner."
      },
      "ownerOf(uint256)": {
        "details": "See {IERC721-ownerOf}."
      },
      "renounceOwnership()": {
        "details": "Leaves the contract without owner. It will not be possible to call `onlyOwner` functions anymore. Can only be called by the current owner. NOTE: Renouncing ownership will leave the contract without an owner, thereby removing any functionality that is only available to the owner."
      },
      "safeTransferFrom(address,address,uint256)": {
        "details": "See {IERC721-safeTransferFrom}."
      },
      "safeTransferFrom(address,address,uint256,bytes)": {
        "details": "See {IERC721-safeTransferFrom}."
      },
      "setApprovalForAll(address,bool)": {
        "details": "See {IERC721-setApprovalForAll}."
      },
      "supportsInterface(bytes4)": {
        "details": "See {IERC165-supportsInterface}. Time complexity O(1), guaranteed to always use less than 30 000 gas."
      },
      "symbol()": {
        "details": "See {IERC721Metadata-symbol}."
      },
      "tokenByIndex(uint256)": {
        "details": "See {IERC721Enumerable-tokenByIndex}."
      },
      "tokenOfOwnerByIndex(address,uint256)": {
        "details": "See {IERC721Enumerable-tokenOfOwnerByIndex}."
      },
      "tokenURI(uint256)": {
        "details": "See {IERC721Metadata-tokenURI}."
      },
      "totalSupply()": {
        "details": "See {IERC721Enumerable-totalSupply}."
      },
      "transferFrom(address,address,uint256)": {
        "details": "See {IERC721-transferFrom}."
      },
      "transferOwnership(address)": {
        "details": "Transfers ownership of the contract to a new account (`newOwner`). Can only be called by the current owner."
      }
    },
    "version": 1
  },
  "userdoc": {
    "kind": "user",
    "methods": {},
    "version": 1
  }
}