{
  "contractName": "Lottery",
  "abi": [
    {
      "inputs": [],
      "stateMutability": "nonpayable",
      "type": "constructor"
    },
    {
      "anonymous": false,
      "inputs": [
        {
          "indexed": true,
          "internalType": "address",
          "name": "user",
          "type": "address"
        },
        {
          "indexed": false,
          "internalType": "uint256",
          "name": "tokenId",
          "type": "uint256"
        }
      ],
      "name": "Buy",
      "type": "event"
    },
    {
      "anonymous": false,
      "inputs": [
        {
          "indexed": true,
          "internalType": "address",
          "name": "user",
          "type": "address"
        },
        {
          "indexed": false,
          "internalType": "uint256",
          "name": "tokenid",
          "type": "uint256"
        },
        {
          "indexed": false,
          "internalType": "uint256",
          "name": "amount",
          "type": "uint256"
        }
      ],
      "name": "Claim",
      "type": "event"
    },
    {
      "anonymous": false,
      "inputs": [
        {
          "indexed": true,
          "internalType": "address",
          "name": "user",
          "type": "address"
        },
        {
          "indexed": false,
          "internalType": "uint256",
          "name": "amount",
          "type": "uint256"
        }
      ],
      "name": "DevWithdraw",
      "type": "event"
    },
    {
      "anonymous": false,
      "inputs": [
        {
          "indexed": true,
          "internalType": "uint256",
          "name": "issueIndex",
          "type": "uint256"
        },
        {
          "indexed": false,
          "internalType": "uint8[4]",
          "name": "winningNumbers",
          "type": "uint8[4]"
        }
      ],
      "name": "Drawing",
      "type": "event"
    },
    {
      "anonymous": false,
      "inputs": [
        {
          "indexed": true,
          "internalType": "address",
          "name": "user",
          "type": "address"
        },
        {
          "indexed": false,
          "internalType": "uint256",
          "name": "amount",
          "type": "uint256"
        }
      ],
      "name": "MultiBuy",
      "type": "event"
    },
    {
      "anonymous": false,
      "inputs": [
        {
          "indexed": true,
          "internalType": "address",
          "name": "user",
          "type": "address"
        },
        {
          "indexed": false,
          "internalType": "uint256",
          "name": "amount",
          "type": "uint256"
        }
      ],
      "name": "MultiClaim",
      "type": "event"
    },
    {
      "anonymous": false,
      "inputs": [
        {
          "indexed": true,
          "internalType": "address",
          "name": "previousOwner",
          "type": "address"
        },
        {
          "indexed": true,
          "internalType": "address",
          "name": "newOwner",
          "type": "address"
        }
      ],
      "name": "OwnershipTransferred",
      "type": "event"
    },
    {
      "anonymous": false,
      "inputs": [
        {
          "indexed": true,
          "internalType": "uint256",
          "name": "issueIndex",
          "type": "uint256"
        }
      ],
      "name": "Reset",
      "type": "event"
    },
    {
      "inputs": [],
      "name": "adminAddress",
      "outputs": [
        {
          "internalType": "address",
          "name": "",
          "type": "address"
        }
      ],
      "stateMutability": "view",
      "type": "function",
      "constant": true
    },
    {
      "inputs": [
        {
          "internalType": "uint256",
          "name": "",
          "type": "uint256"
        }
      ],
      "name": "allocation",
      "outputs": [
        {
          "internalType": "uint8",
          "name": "",
          "type": "uint8"
        }
      ],
      "stateMutability": "view",
      "type": "function",
      "constant": true
    },
    {
      "inputs": [],
      "name": "busd",
      "outputs": [
        {
          "internalType": "contract IERC20",
          "name": "",
          "type": "address"
        }
      ],
      "stateMutability": "view",
      "type": "function",
      "constant": true
    },
    {
      "inputs": [],
      "name": "drawingPhase",
      "outputs": [
        {
          "internalType": "bool",
          "name": "",
          "type": "bool"
        }
      ],
      "stateMutability": "view",
      "type": "function",
      "constant": true
    },
    {
      "inputs": [
        {
          "internalType": "uint256",
          "name": "",
          "type": "uint256"
        },
        {
          "internalType": "uint256",
          "name": "",
          "type": "uint256"
        }
      ],
      "name": "historyAmount",
      "outputs": [
        {
          "internalType": "uint256",
          "name": "",
          "type": "uint256"
        }
      ],
      "stateMutability": "view",
      "type": "function",
      "constant": true
    },
    {
      "inputs": [
        {
          "internalType": "uint256",
          "name": "",
          "type": "uint256"
        },
        {
          "internalType": "uint256",
          "name": "",
          "type": "uint256"
        }
      ],
      "name": "historyNumbers",
      "outputs": [
        {
          "internalType": "uint8",
          "name": "",
          "type": "uint8"
        }
      ],
      "stateMutability": "view",
      "type": "function",
      "constant": true
    },
    {
      "inputs": [],
      "name": "issueIndex",
      "outputs": [
        {
          "internalType": "uint256",
          "name": "",
          "type": "uint256"
        }
      ],
      "stateMutability": "view",
      "type": "function",
      "constant": true
    },
    {
      "inputs": [],
      "name": "lastTimestamp",
      "outputs": [
        {
          "internalType": "uint256",
          "name": "",
          "type": "uint256"
        }
      ],
      "stateMutability": "view",
      "type": "function",
      "constant": true
    },
    {
      "inputs": [
        {
          "internalType": "uint256",
          "name": "",
          "type": "uint256"
        },
        {
          "internalType": "uint256",
          "name": "",
          "type": "uint256"
        }
      ],
      "name": "lotteryInfo",
      "outputs": [
        {
          "internalType": "uint256",
          "name": "",
          "type": "uint256"
        }
      ],
      "stateMutability": "view",
      "type": "function",
      "constant": true
    },
    {
      "inputs": [],
      "name": "lotteryNFT",
      "outputs": [
        {
          "internalType": "contract LotteryNFT",
          "name": "",
          "type": "address"
        }
      ],
      "stateMutability": "view",
      "type": "function",
      "constant": true
    },
    {
      "inputs": [],
      "name": "maxNumber",
      "outputs": [
        {
          "internalType": "uint8",
          "name": "",
          "type": "uint8"
        }
      ],
      "stateMutability": "view",
      "type": "function",
      "constant": true
    },
    {
      "inputs": [],
      "name": "minPrice",
      "outputs": [
        {
          "internalType": "uint256",
          "name": "",
          "type": "uint256"
        }
      ],
      "stateMutability": "view",
      "type": "function",
      "constant": true
    },
    {
      "inputs": [],
      "name": "owner",
      "outputs": [
        {
          "internalType": "address",
          "name": "",
          "type": "address"
        }
      ],
      "stateMutability": "view",
      "type": "function",
      "constant": true
    },
    {
      "inputs": [],
      "name": "renounceOwnership",
      "outputs": [],
      "stateMutability": "nonpayable",
      "type": "function"
    },
    {
      "inputs": [],
      "name": "totalAddresses",
      "outputs": [
        {
          "internalType": "uint256",
          "name": "",
          "type": "uint256"
        }
      ],
      "stateMutability": "view",
      "type": "function",
      "constant": true
    },
    {
      "inputs": [],
      "name": "totalAmount",
      "outputs": [
        {
          "internalType": "uint256",
          "name": "",
          "type": "uint256"
        }
      ],
      "stateMutability": "view",
      "type": "function",
      "constant": true
    },
    {
      "inputs": [
        {
          "internalType": "address",
          "name": "newOwner",
          "type": "address"
        }
      ],
      "name": "transferOwnership",
      "outputs": [],
      "stateMutability": "nonpayable",
      "type": "function"
    },
    {
      "inputs": [
        {
          "internalType": "uint256",
          "name": "",
          "type": "uint256"
        },
        {
          "internalType": "uint64",
          "name": "",
          "type": "uint64"
        }
      ],
      "name": "userBuyAmountSum",
      "outputs": [
        {
          "internalType": "uint256",
          "name": "",
          "type": "uint256"
        }
      ],
      "stateMutability": "view",
      "type": "function",
      "constant": true
    },
    {
      "inputs": [
        {
          "internalType": "address",
          "name": "",
          "type": "address"
        },
        {
          "internalType": "uint256",
          "name": "",
          "type": "uint256"
        }
      ],
      "name": "userInfo",
      "outputs": [
        {
          "internalType": "uint256",
          "name": "",
          "type": "uint256"
        }
      ],
      "stateMutability": "view",
      "type": "function",
      "constant": true
    },
    {
      "inputs": [
        {
          "internalType": "uint256",
          "name": "",
          "type": "uint256"
        }
      ],
      "name": "winningNumbers",
      "outputs": [
        {
          "internalType": "uint8",
          "name": "",
          "type": "uint8"
        }
      ],
      "stateMutability": "view",
      "type": "function",
      "constant": true
    },
    {
      "inputs": [
        {
          "internalType": "contract IERC20",
          "name": "_busd",
          "type": "address"
        },
        {
          "internalType": "contract LotteryNFT",
          "name": "_lottery",
          "type": "address"
        },
        {
          "internalType": "uint256",
          "name": "_minPrice",
          "type": "uint256"
        },
        {
          "internalType": "uint8",
          "name": "_maxNumber",
          "type": "uint8"
        },
        {
          "internalType": "address",
          "name": "_owner",
          "type": "address"
        },
        {
          "internalType": "address",
          "name": "_adminAddress",
          "type": "address"
        }
      ],
      "name": "initialize",
      "outputs": [],
      "stateMutability": "nonpayable",
      "type": "function"
    },
    {
      "inputs": [],
      "name": "drawed",
      "outputs": [
        {
          "internalType": "bool",
          "name": "",
          "type": "bool"
        }
      ],
      "stateMutability": "view",
      "type": "function",
      "constant": true
    },
    {
      "inputs": [],
      "name": "reset",
      "outputs": [],
      "stateMutability": "nonpayable",
      "type": "function"
    },
    {
      "inputs": [],
      "name": "enterDrawingPhase",
      "outputs": [],
      "stateMutability": "nonpayable",
      "type": "function"
    },
    {
      "inputs": [
        {
          "internalType": "uint256",
          "name": "_externalRandomNumber",
          "type": "uint256"
        }
      ],
      "name": "drawing",
      "outputs": [],
      "stateMutability": "nonpayable",
      "type": "function"
    },
    {
      "inputs": [
        {
          "internalType": "uint256",
          "name": "_price",
          "type": "uint256"
        },
        {
          "internalType": "uint8[4]",
          "name": "_numbers",
          "type": "uint8[4]"
        }
      ],
      "name": "internalBuy",
      "outputs": [],
      "stateMutability": "nonpayable",
      "type": "function"
    },
    {
      "inputs": [
        {
          "internalType": "uint256",
          "name": "_price",
          "type": "uint256"
        },
        {
          "internalType": "uint8[4]",
          "name": "_numbers",
          "type": "uint8[4]"
        }
      ],
      "name": "buy",
      "outputs": [],
      "stateMutability": "nonpayable",
      "type": "function"
    },
    {
      "inputs": [
        {
          "internalType": "uint256",
          "name": "_price",
          "type": "uint256"
        },
        {
          "internalType": "uint8[4][]",
          "name": "_numbers",
          "type": "uint8[4][]"
        }
      ],
      "name": "multiBuy",
      "outputs": [],
      "stateMutability": "nonpayable",
      "type": "function"
    },
    {
      "inputs": [
        {
          "internalType": "uint256",
          "name": "_tokenId",
          "type": "uint256"
        }
      ],
      "name": "claimReward",
      "outputs": [],
      "stateMutability": "nonpayable",
      "type": "function"
    },
    {
      "inputs": [
        {
          "internalType": "uint256[]",
          "name": "_tickets",
          "type": "uint256[]"
        }
      ],
      "name": "multiClaim",
      "outputs": [],
      "stateMutability": "nonpayable",
      "type": "function"
    },
    {
      "inputs": [
        {
          "internalType": "uint8[4]",
          "name": "number",
          "type": "uint8[4]"
        }
      ],
      "name": "generateNumberIndexKey",
      "outputs": [
        {
          "internalType": "uint64[11]",
          "name": "",
          "type": "uint64[11]"
        }
      ],
      "stateMutability": "pure",
      "type": "function",
      "constant": true
    },
    {
      "inputs": [
        {
          "internalType": "uint256",
          "name": "_issueIndex",
          "type": "uint256"
        },
        {
          "internalType": "uint256",
          "name": "_matchingNumber",
          "type": "uint256"
        }
      ],
      "name": "getMatchingRewardAmount",
      "outputs": [
        {
          "internalType": "uint256",
          "name": "",
          "type": "uint256"
        }
      ],
      "stateMutability": "view",
      "type": "function",
      "constant": true
    },
    {
      "inputs": [
        {
          "internalType": "uint256",
          "name": "_issueIndex",
          "type": "uint256"
        }
      ],
      "name": "getTotalRewards",
      "outputs": [
        {
          "internalType": "uint256",
          "name": "",
          "type": "uint256"
        }
      ],
      "stateMutability": "view",
      "type": "function",
      "constant": true
    },
    {
      "inputs": [
        {
          "internalType": "uint256",
          "name": "_tokenId",
          "type": "uint256"
        }
      ],
      "name": "getRewardView",
      "outputs": [
        {
          "internalType": "uint256",
          "name": "",
          "type": "uint256"
        }
      ],
      "stateMutability": "view",
      "type": "function",
      "constant": true
    },
    {
      "inputs": [
        {
          "internalType": "address",
          "name": "_adminAddress",
          "type": "address"
        }
      ],
      "name": "setAdmin",
      "outputs": [],
      "stateMutability": "nonpayable",
      "type": "function"
    },
    {
      "inputs": [
        {
          "internalType": "uint256",
          "name": "_amount",
          "type": "uint256"
        }
      ],
      "name": "adminWithdraw",
      "outputs": [],
      "stateMutability": "nonpayable",
      "type": "function"
    },
    {
      "inputs": [
        {
          "internalType": "uint256",
          "name": "_price",
          "type": "uint256"
        }
      ],
      "name": "setMinPrice",
      "outputs": [],
      "stateMutability": "nonpayable",
      "type": "function"
    },
    {
      "inputs": [
        {
          "internalType": "uint8",
          "name": "_maxNumber",
          "type": "uint8"
        }
      ],
      "name": "setMaxNumber",
      "outputs": [],
      "stateMutability": "nonpayable",
      "type": "function"
    },
    {
      "inputs": [
        {
          "internalType": "uint8",
          "name": "_allcation1",
          "type": "uint8"
        },
        {
          "internalType": "uint8",
          "name": "_allcation2",
          "type": "uint8"
        },
        {
          "internalType": "uint8",
          "name": "_allcation3",
          "type": "uint8"
        }
      ],
      "name": "setAllocation",
      "outputs": [],
      "stateMutability": "nonpayable",
      "type": "function"
    }
  ],
  "bytecode": "0x6000600b819055600c819055600d819055610100604052608081815260a082905260c082905260e0919091526200003b90601190600462000050565b503480156200004957600080fd5b5062000105565b600183019183908215620000d85791602002820160005b83821115620000a757835183826101000a81548160ff021916908360ff160217905550926020019260010160208160000104928301926001030262000067565b8015620000d65782816101000a81549060ff0219169055600101602081600001049283019260010302620000a7565b505b50620000e6929150620000ea565b5090565b5b80821115620000e657805460ff19168155600101620000eb565b61330180620001156000396000f3fe608060405234801561001057600080fd5b506004361061023d5760003560e01c80636a28f8281161013b578063cfad5277116100b8578063e45be8eb1161007c578063e45be8eb14610490578063e8adfbc714610498578063ed2caa1d146104a0578063f2fde38b146104b3578063fc6f9468146104c65761023d565b8063cfad527714610452578063d1f7dbcf1461045a578063d411b0fa1461046d578063d826f88f14610480578063e1345416146104885761023d565b806385dcdf1b116100ff57806385dcdf1b146103f15780638da5cb5b14610411578063a42206c914610419578063ae169a501461042c578063c39f49c01461043f5761023d565b80636a28f828146103a8578063704b6c02146103b0578063715018a6146103c35780637c5b4a37146103cb578063850bad94146103de5761023d565b80633a4f6999116101c9578063552164ee1161018d578063552164ee1461034957806359bcbd681461035c5780635c17623a1461036f5780635ea8cd12146103825780636575243f146103955761023d565b80633a4f6999146102e45780633ca5b234146102f9578063438209f51461030e5780634e45f095146103235780634ed73d28146103365761023d565b80631ff68866116102105780631ff688661461029057806321ce919d146102985780632bdff851146102ab5780632f506b20146102be578063324a5562146102d15761023d565b806311e420651461024257806314c20d571461025757806319d8ac611461026a5780631a39d8ef14610288575b600080fd5b6102556102503660046129b3565b6104ce565b005b610255610265366004612b02565b610605565b6102726108e9565b60405161027f919061320e565b60405180910390f35b6102726108ef565b6102556108f5565b6102726102a6366004612849565b610953565b6102556102b9366004612a5b565b610981565b6102726102cc366004612b4f565b610cca565b6102556102df366004612b89565b610ce7565b6102ec610d31565b60405161027f9190613225565b610301610d41565b60405161027f9190612c31565b610316610d50565b60405161027f9190612d5a565b6102ec610331366004612a2b565b610d59565b610255610344366004612874565b610d80565b610272610357366004612a2b565b61100c565b6102ec61036a366004612b2e565b611080565b61025561037d366004612ba5565b6110b6565b610255610390366004612a2b565b61113d565b6102726103a3366004612b2e565b61116c565b610272611185565b6102556103be366004612811565b61118b565b6102556111d7565b6102556103d9366004612a2b565b61124b565b6102ec6103ec366004612a2b565b6112d0565b6104046103ff366004612908565b6112dd565b60405161027f9190612cf5565b610301611464565b610255610427366004612a2b565b611473565b61025561043a366004612a2b565b6116fb565b61027261044d366004612b2e565b611911565b61027261192a565b610272610468366004612b2e565b611930565b61027261047b366004612a2b565b611962565b610255611c63565b610316611d9f565b610272611daa565b610301611db0565b6102556104ae366004612b02565b611dbf565b6102556104c1366004612811565b611f5a565b610301612005565b600054600160a81b900460ff16806104e957506104e9612014565b806104fe5750600054600160a01b900460ff16155b6105235760405162461bcd60e51b815260040161051a90612fd1565b60405180910390fd5b600054600160a81b900460ff1615801561055a576000805460ff60a01b1960ff60a81b19909116600160a81b1716600160a01b1790555b600280546001600160a01b03199081166001600160a01b038a81169190911790925560038054821689841617815560058890556004805460ff60a01b1916600160a01b60ff8a16021790921692851692909217905542600e5560408051606081018252603c815260146020820152600a918101919091526105de9160019190612636565b506105e88361201a565b80156105fc576000805460ff60a81b191690555b50505050505050565b61060d611d9f565b1561062a5760405162461bcd60e51b815260040161051a90613097565b60105460ff161561064d5760405162461bcd60e51b815260040161051a90612f9a565b60055482101561066f5760405162461bcd60e51b815260040161051a9061301f565b60005b60048110156106c45760048054600160a01b900460ff169083908390811061069657fe5b602002015160ff1611156106bc5760405162461bcd60e51b815260040161051a90612e0d565b600101610672565b50600354600b54604051620dce4760ea1b81526000926001600160a01b0316916337391c00916106fc91339187918991600401612c45565b602060405180830381600087803b15801561071657600080fd5b505af115801561072a573d6000803e3d6000fd5b505050506040513d601f19601f8201168201806040525081019061074e9190612a43565b600b546000908152600760209081526040808320805460018101825590845282842001849055338352600a90915290205490915061079057600c805460010190555b336000908152600a6020908152604082208054600181018255908352912001819055600d546107bf9084612065565b600d5542600e556107ce6126c9565b6107d7836112dd565b905060005b600b811015610889576108408560096000600b54815260200190815260200160002060008585600b811061080c57fe5b60200201516001600160401b03166001600160401b031681526020019081526020016000205461206590919063ffffffff16565b600b805460009081526009602052604081209185908590811061085f57fe5b602090810291909101516001600160401b03168252810191909152604001600020556001016107dc565b506002546108a2906001600160a01b0316333087612091565b336001600160a01b03167fe3d4187f6ca4248660cc0ac8b8056515bac4a8132be2eca31d6d0cc170722a7e836040516108db919061320e565b60405180910390a250505050565b600e5481565b600d5481565b6004546001600160a01b0316331461091f5760405162461bcd60e51b815260040161051a90613103565b610927611d9f565b156109445760405162461bcd60e51b815260040161051a906131ee565b6010805460ff19166001179055565b600a602052816000526040600020818154811061096c57fe5b90600052602060002001600091509150505481565b610989611d9f565b156109a65760405162461bcd60e51b815260040161051a90613097565b60105460ff16156109c95760405162461bcd60e51b815260040161051a90612f9a565b6005548210156109eb5760405162461bcd60e51b815260040161051a9061301f565b6000805b8251811015610c6b5760005b6004811015610a9657600460149054906101000a900460ff1660ff16848381518110610a2357fe5b60200260200101518260048110610a3657fe5b602002015160ff1611158015610a7257506000848381518110610a5557fe5b60200260200101518260048110610a6857fe5b602002015160ff16115b610a8e5760405162461bcd60e51b815260040161051a90612e0d565b6001016109fb565b5060035483516000916001600160a01b0316906337391c00903390879086908110610abd57fe5b602002602001015188600b546040518563ffffffff1660e01b8152600401610ae89493929190612c45565b602060405180830381600087803b158015610b0257600080fd5b505af1158015610b16573d6000803e3d6000fd5b505050506040513d601f19601f82011682018060405250810190610b3a9190612a43565b600b546000908152600760209081526040808320805460018101825590845282842001849055338352600a909152902054909150610b7c57600c805460010190555b336000908152600a6020908152604082208054600181018255908352912001819055600d54610bab9086612065565b600d5542600e55610bbc8386612065565b9250610bc66126c9565b610be2858481518110610bd557fe5b60200260200101516112dd565b905060005b600b811015610c6057610c178760096000600b54815260200190815260200160002060008585600b811061080c57fe5b600b8054600090815260096020526040812091859085908110610c3657fe5b602090810291909101516001600160401b0316825281019190915260400160002055600101610be7565b5050506001016109ef565b50600254610c84906001600160a01b0316333084612091565b336001600160a01b03167f96c35ad1cc1743f26cb87980c38042de8082358ec6d171a7986d6e11dddfe85782604051610cbd919061320e565b60405180910390a2505050565b600960209081526000928352604080842090915290825290205481565b6004546001600160a01b03163314610d115760405162461bcd60e51b815260040161051a90613103565b6004805460ff909216600160a01b0260ff60a01b19909216919091179055565b600454600160a01b900460ff1681565b6002546001600160a01b031681565b60105460ff1681565b600f8160048110610d6657fe5b60209182820401919006915054906101000a900460ff1681565b6000805b8251811015610f445760035483516001600160a01b0390911690636352211e90859084908110610db057fe5b60200260200101516040518263ffffffff1660e01b8152600401610dd4919061320e565b60206040518083038186803b158015610dec57600080fd5b505afa158015610e00573d6000803e3d6000fd5b505050506040513d601f19601f82011682018060405250810190610e24919061282d565b6001600160a01b0316336001600160a01b031614610e545760405162461bcd60e51b815260040161051a90612f1a565b60035483516001600160a01b03909116906336dbd2f990859084908110610e7757fe5b60200260200101516040518263ffffffff1660e01b8152600401610e9b919061320e565b60206040518083038186803b158015610eb357600080fd5b505afa158015610ec7573d6000803e3d6000fd5b505050506040513d601f19601f82011682018060405250810190610eeb9190612993565b15610f085760405162461bcd60e51b815260040161051a90612f79565b6000610f26848381518110610f1957fe5b6020026020010151611962565b90508015610f3b57610f388184612065565b92505b50600101610d84565b50600354604051637431035560e01b81526001600160a01b0390911690637431035590610f75908590600401612cb1565b600060405180830381600087803b158015610f8f57600080fd5b505af1158015610fa3573d6000803e3d6000fd5b505050506000811115610fc757600254610fc7906001600160a01b031633836120e9565b336001600160a01b03167f6606374655494f5c0e2d6f392656e9777afd9ac5f61527d1bcad50b7e918a03e82604051611000919061320e565b60405180910390a25050565b6000600b548211156110305760405162461bcd60e51b815260040161051a90612e3a565b611038611d9f565b1580156110465750600b5482145b156110545750600d5461107b565b6000828152600860205260408120805490919061106d57fe5b906000526020600020015490505b919050565b6006602052816000526040600020816004811061109957fe5b602081049091015460ff601f9092166101000a9004169150829050565b6004546001600160a01b031633146110e05760405162461bcd60e51b815260040161051a90613103565b6064818385010160ff16106111075760405162461bcd60e51b815260040161051a90613128565b6040805160608101825260ff80861682528481166020830152831691810191909152611137906001906003612636565b50505050565b6004546001600160a01b031633146111675760405162461bcd60e51b815260040161051a90613103565b600555565b6007602052816000526040600020818154811061096c57fe5b600b5481565b6000546001600160a01b031633146111b55760405162461bcd60e51b815260040161051a906130ce565b600480546001600160a01b0319166001600160a01b0392909216919091179055565b6000546001600160a01b031633146112015760405162461bcd60e51b815260040161051a906130ce565b600080546040516001600160a01b03909116907f8be0079c531659141344cd1fd0a4f28419497f9722a3daafe3b4186f6b6457e0908390a3600080546001600160a01b0319169055565b6004546001600160a01b031633146112755760405162461bcd60e51b815260040161051a90613103565b60025461128c906001600160a01b031633836120e9565b336001600160a01b03167f050d1c64cc22ce461b9bc14f6b73852566da02b03c155242bc63169d1fec42aa826040516112c5919061320e565b60405180910390a250565b60018160038110610d6657fe5b6112e56126c9565b6112ed6126e8565b825160ff9081168252602080850151821690830152604080850151821690830152606080850151909116908201526113236126c9565b6060828101805160408086018051602080890180518a516201000094850264010000000092830266010000000000009092029190910101909601650100020003009081016001600160401b039081168b52855183518d51908702908a02010163010002009081018216948c0194909452885183518d51908702908a02010163010003009081018216978c0197909752885186518d51908702908a020101630200030090810182169a8c019a909a5288518651845190870299029890980190970101861660808a015280518a51840201610100908101871660a08b015284518b5185020161020001871660c08b015287519a518402909a0161030001861660e08a015283518151840201909101851698880198909852845197518102909701909101821661012086015291519151909402010190911661014082015292915050565b6000546001600160a01b031690565b6004546001600160a01b0316331461149d5760405162461bcd60e51b815260040161051a90613103565b6114a5611d9f565b156114c25760405162461bcd60e51b815260040161051a90612dc9565b60105460ff166114e45760405162461bcd60e51b815260040161051a90612f42565b6004546000908190600160a01b900460ff16436000190140825b600a81101561151b57611512600b5461100c565b506001016114fe565b5060005a905081600c54828860405160200161153a9493929190612d7b565b60408051601f19818403018152908290528051602091820120600f805460ff191687830660010160ff811691909117909155600d549198509650611586929091859185918b9101612d7b565b60408051601f19818403018152908290528051602091820120600f805460ff8884066001019081166101000261ff001990921691909117909155600e5491985096506115d892859285918b9101612d7b565b60408051808303601f19018152908290528051602091820120600f805460ff600189850601908116620100000262ff00001990921691909117909155909750955061162991849184918a9101612d65565b60408051808303601f190181529181528151602092830120600f805460ff60018985060190811663010000000263ff00000019909216919091178255600b546000908152600690955292909320909750909550611687916004612706565b5061169061210d565b600b5460009081526008602052604090206116ac916004612739565b506010805460ff19169055600b546040517fa13e935b188993737b3009d62bd916dcbe9e82d8236d75981eeadf26a1460d3d906116eb90600f90612d27565b60405180910390a2505050505050565b6003546040516331a9108f60e11b81526001600160a01b0390911690636352211e9061172b90849060040161320e565b60206040518083038186803b15801561174357600080fd5b505afa158015611757573d6000803e3d6000fd5b505050506040513d601f19601f8201168201806040525081019061177b919061282d565b6001600160a01b0316336001600160a01b0316146117ab5760405162461bcd60e51b815260040161051a90612f1a565b6003546040516336dbd2f960e01b81526001600160a01b03909116906336dbd2f9906117db90849060040161320e565b60206040518083038186803b1580156117f357600080fd5b505afa158015611807573d6000803e3d6000fd5b505050506040513d601f19601f8201168201806040525081019061182b9190612993565b156118485760405162461bcd60e51b815260040161051a90612f79565b600061185382611962565b600354604051630ae169a560e41b81529192506001600160a01b03169063ae169a509061188490859060040161320e565b600060405180830381600087803b15801561189e57600080fd5b505af11580156118b2573d6000803e3d6000fd5b5050505060008111156118d6576002546118d6906001600160a01b031633836120e9565b336001600160a01b03167f34fcbac0073d7c3d388e51312faf357774904998eeb8fca628b9e6f65ee1cbf78383604051611000929190613217565b6008602052816000526040600020818154811061096c57fe5b600c5481565b60008281526008602052604081208054600584900390811061194e57fe5b906000526020600020015490505b92915050565b600354604051631bf1e00f60e01b815260009182916001600160a01b0390911690631bf1e00f9061199790869060040161320e565b60206040518083038186803b1580156119af57600080fd5b505afa1580156119c3573d6000803e3d6000fd5b505050506040513d601f19601f820116820180604052508101906119e79190612a43565b90506119f16126e8565b600354604051635f8e26a760e01b81526001600160a01b0390911690635f8e26a790611a2190879060040161320e565b60806040518083038186803b158015611a3957600080fd5b505afa158015611a4d573d6000803e3d6000fd5b505050506040513d601f19601f82011682018060405250810190611a719190612923565b9050611a7b6126e8565b600083815260066020526040808220815160808101928390529290916004918390855b825461010083900a900460ff16815260206001928301818104948501949093039092029101808411611a9e5790505050505050905080600060048110611ae057fe5b602002015160ff16611b045760405162461bcd60e51b815260040161051a90612de9565b6000805b6004811015611b4e57838160048110611b1d57fe5b602002015160ff16838260048110611b3157fe5b602002015160ff161415611b46578160010191505b600101611b08565b5060006001821115611c4957600354604051637bd0606560e11b81526000916001600160a01b03169063f7a0c0ca90611b8b908b9060040161320e565b60206040518083038186803b158015611ba357600080fd5b505afa158015611bb7573d6000803e3d6000fd5b505050506040513d601f19601f82011682018060405250810190611bdb9190612a43565b90506000611c226064611c1c60018760040360038110611bf757fe5b602081049091015460ff601f9092166101000a900416611c168b61100c565b90612372565b906123ac565b9050611c4481611c16611c358a88611930565b611c1c8664e8d4a51000612372565b925050505b611c588164e8d4a510006123ac565b979650505050505050565b6004546001600160a01b03163314611c8d5760405162461bcd60e51b815260040161051a90613103565b611c95611d9f565b611cb15760405162461bcd60e51b815260040161051a90613183565b42600e556000600c819055600d55600f805463ffffffff191690556010805460ff19169055600b805460018101909155611cec906004611930565b611d7157600154600b54600091611d1791606491611c1c9160ff90911690611c16906000190161100c565b604080516080810191829052919250611d6f918391601190600490826000855b825461010083900a900460ff16815260206001928301818104948501949093039092029101808411611d375790505050505050611dbf565b505b600b546040517f01c3cbb0d62726ab09d163873ebf9aed99dd8dc08e57bc938f458132fd178cf690600090a2565b600f5460ff16151590565b60055481565b6003546001600160a01b031681565b6004546001600160a01b03163314611de95760405162461bcd60e51b815260040161051a90613103565b611df1611d9f565b15611e0e5760405162461bcd60e51b815260040161051a90613097565b60005b6004811015611e635760048054600160a01b900460ff1690839083908110611e3557fe5b602002015160ff161115611e5b5760405162461bcd60e51b815260040161051a90612eee565b600101611e11565b50600354600b54604051620dce4760ea1b81526000926001600160a01b0316916337391c0091611e9b91309187918991600401612c45565b602060405180830381600087803b158015611eb557600080fd5b505af1158015611ec9573d6000803e3d6000fd5b505050506040513d601f19601f82011682018060405250810190611eed9190612a43565b600b54600090815260076020908152604082208054600181018255908352912001819055600d54909150611f219084612065565b600d5542600e5560405130907fe3d4187f6ca4248660cc0ac8b8056515bac4a8132be2eca31d6d0cc170722a7e90610cbd90849061320e565b6000546001600160a01b03163314611f845760405162461bcd60e51b815260040161051a906130ce565b6001600160a01b038116611faa5760405162461bcd60e51b815260040161051a90612e71565b600080546040516001600160a01b03808516939216917f8be0079c531659141344cd1fd0a4f28419497f9722a3daafe3b4186f6b6457e091a3600080546001600160a01b0319166001600160a01b0392909216919091179055565b6004546001600160a01b031681565b303b1590565b600080546001600160a01b0319166001600160a01b03831690811782556040519091907f8be0079c531659141344cd1fd0a4f28419497f9722a3daafe3b4186f6b6457e0908290a350565b60008282018381101561208a5760405162461bcd60e51b815260040161051a90612eb7565b9392505050565b611137846323b872dd60e01b8585856040516024016120b293929190612c74565b60408051601f198184030181529190526020810180516001600160e01b03166001600160e01b0319909316929092179091526123ee565b6121088363a9059cbb60e01b84846040516024016120b2929190612c98565b505050565b6121156126e8565b61211d6126c9565b60408051608081019182905261217091600f90600490826000855b825461010083900a900460ff1681526020600192830181810494850194909303909202910180841161213857905050505050506112dd565b600b54600081815260096020818152604080842086516001600160401b0390811686528184528286205487875285855288850151909116865281845291852054958552929091529394506121f7918560025b60200201516001600160401b03166001600160401b03168152602001908152602001600020548261206590919063ffffffff16565b600b54600090815260096020526040812091925061221891908560036121c2565b600b54600090815260096020526040812091925061223991908560046121c2565b9050600061225261224b846004612372565b839061247d565b600b54600081815260096020818152604080842060a08b01516001600160401b03168552808352908420549484529190529293509091612294918760066121c2565b600b5460009081526009602052604081209192506122b591908760076121c2565b600b5460009081526009602052604081209192506122d691908760086121c2565b600b54600090815260096020819052604082209293506122f992919088906121c2565b600b54600090815260096020526040812091925061231a919087600a6121c2565b9050600061234761232c856003612372565b61234161233a886006612372565b8590612065565b9061247d565b60408051608081018252600d5481526020810197909752860193909352505060608301525091505090565b6000826123815750600061195c565b8282028284828161238e57fe5b041461208a5760405162461bcd60e51b815260040161051a90613056565b600061208a83836040518060400160405280601a81526020017f536166654d6174683a206469766973696f6e206279207a65726f0000000000008152506124bf565b6060612443826040518060400160405280602081526020017f5361666545524332303a206c6f772d6c6576656c2063616c6c206661696c6564815250856001600160a01b03166124f69092919063ffffffff16565b80519091501561210857808060200190518101906124619190612993565b6121085760405162461bcd60e51b815260040161051a906131a4565b600061208a83836040518060400160405280601e81526020017f536166654d6174683a207375627472616374696f6e206f766572666c6f77000081525061250d565b600081836124e05760405162461bcd60e51b815260040161051a9190612d96565b5060008385816124ec57fe5b0495945050505050565b60606125058484600085612539565b949350505050565b600081848411156125315760405162461bcd60e51b815260040161051a9190612d96565b505050900390565b6060612544856125fd565b6125605760405162461bcd60e51b815260040161051a9061314c565b60006060866001600160a01b0316858760405161257d9190612c15565b60006040518083038185875af1925050503d80600081146125ba576040519150601f19603f3d011682016040523d82523d6000602084013e6125bf565b606091505b509150915081156125d35791506125059050565b8051156125e35780518082602001fd5b8360405162461bcd60e51b815260040161051a9190612d96565b6000813f7fc5d2460186f7233c927e7db2dcc703c0e500b653ca82273b7bfad8045d85a470818114801590612505575050151592915050565b6001830191839082156126b95791602002820160005b8382111561268a57835183826101000a81548160ff021916908360ff160217905550926020019260010160208160000104928301926001030261264c565b80156126b75782816101000a81549060ff021916905560010160208160000104928301926001030261268a565b505b506126c5929150612780565b5090565b604051806101600160405280600b906020820280368337509192915050565b60405180608001604052806004906020820280368337509192915050565b6001830191839082156126b95791601f016020900482015b828111156126b957825482559160010191906001019061271e565b828054828255906000526020600020908101928215612774579160200282015b82811115612774578251825591602001919060010190612759565b506126c5929150612799565b5b808211156126c557805460ff19168155600101612781565b5b808211156126c5576000815560010161279a565b600082601f8301126127be578081fd5b6127c86080613233565b90508082846080850111156127dc57600080fd5b60005b60048110156128085781356127f3816132bc565b835260209283019291909101906001016127df565b50505092915050565b600060208284031215612822578081fd5b813561208a816132a4565b60006020828403121561283e578081fd5b815161208a816132a4565b6000806040838503121561285b578081fd5b8235612866816132a4565b946020939093013593505050565b60006020808385031215612886578182fd5b82356001600160401b0381111561289b578283fd5b8301601f810185136128ab578283fd5b80356128be6128b982613259565b613233565b81815283810190838501858402850186018910156128da578687fd5b8694505b838510156128fc5780358352600194909401939185019185016128de565b50979650505050505050565b600060808284031215612919578081fd5b61208a83836127ae565b600060808284031215612934578081fd5b82601f830112612942578081fd5b61294c6080613233565b80838560808601111561295d578384fd5b835b6004811015612988578151612973816132bc565b8452602093840193919091019060010161295f565b509095945050505050565b6000602082840312156129a4578081fd5b8151801515811461208a578182fd5b60008060008060008060c087890312156129cb578182fd5b86356129d6816132a4565b955060208701356129e6816132a4565b94506040870135935060608701356129fd816132bc565b92506080870135612a0d816132a4565b915060a0870135612a1d816132a4565b809150509295509295509295565b600060208284031215612a3c578081fd5b5035919050565b600060208284031215612a54578081fd5b5051919050565b60008060408385031215612a6d578182fd5b823591506020808401356001600160401b03811115612a8a578283fd5b8401601f81018613612a9a578283fd5b8035612aa86128b982613259565b818152838101908385016080808502860187018b1015612ac6578788fd5b8795505b84861015612af257612adc8b836127ae565b8452600195909501949286019290810190612aca565b5096999098509650505050505050565b60008060a08385031215612b14578182fd5b82359150612b2584602085016127ae565b90509250929050565b60008060408385031215612b40578182fd5b50508035926020909101359150565b60008060408385031215612b61578182fd5b8235915060208301356001600160401b0381168114612b7e578182fd5b809150509250929050565b600060208284031215612b9a578081fd5b813561208a816132bc565b600080600060608486031215612bb9578081fd5b8335612bc4816132bc565b92506020840135612bd4816132bc565b91506040840135612be4816132bc565b809150509250925092565b8060005b600481101561113757815160ff16845260209384019390910190600101612bf3565b60008251612c27818460208701613278565b9190910192915050565b6001600160a01b0391909116815260200190565b6001600160a01b038516815260e08101612c626020830186612bef565b60a082019390935260c0015292915050565b6001600160a01b039384168152919092166020820152604081019190915260600190565b6001600160a01b03929092168252602082015260400190565b6020808252825182820181905260009190848201906040850190845b81811015612ce957835183529284019291840191600101612ccd565b50909695505050505050565b6101608101818360005b600b8110156128085781516001600160401b0316835260209283019290910190600101612cff565b905460ff8082168352600882901c81166020840152601082901c8116604084015260189190911c16606082015260800190565b901515815260200190565b9283526020830191909152604082015260600190565b93845260208401929092526040830152606082015260800190565b6000602082528251806020840152612db5816040850160208701613278565b601f01601f19169190910160400192915050565b60208082526006908201526572657365743f60d01b604082015260600190565b6020808252600a90820152691b9bdd08191c985dd95960b21b604082015260600190565b602080825260139082015272657863656564206e756d6265722073636f706560681b604082015260600190565b60208082526019908201527f5f6973737565496e646578203c3d206973737565496e64657800000000000000604082015260600190565b60208082526026908201527f4f776e61626c653a206e6577206f776e657220697320746865207a65726f206160408201526564647265737360d01b606082015260800190565b6020808252601b908201527f536166654d6174683a206164646974696f6e206f766572666c6f770000000000604082015260600190565b60208082526012908201527165786365656420746865206d6178696d756d60701b604082015260600190565b6020808252600e908201526d3737ba10333937b69037bbb732b960911b604082015260600190565b60208082526019908201527f656e7465722064726177696e6720706861736520666972737400000000000000604082015260600190565b60208082526007908201526618db185a5b595960ca1b604082015260600190565b60208082526018908201527f64726177696e672c2063616e206e6f7420627579206e6f770000000000000000604082015260600190565b6020808252602e908201527f496e697469616c697a61626c653a20636f6e747261637420697320616c72656160408201526d191e481a5b9a5d1a585b1a5e995960921b606082015260800190565b60208082526019908201527f7072696365206d7573742061626f7665206d696e507269636500000000000000604082015260600190565b60208082526021908201527f536166654d6174683a206d756c7469706c69636174696f6e206f766572666c6f6040820152607760f81b606082015260800190565b60208082526017908201527f6472617765642c2063616e206e6f7420627579206e6f77000000000000000000604082015260600190565b6020808252818101527f4f776e61626c653a2063616c6c6572206973206e6f7420746865206f776e6572604082015260600190565b6020808252600b908201526a61646d696e3a207775743f60a81b604082015260600190565b6020808252600a90820152690657863656564203130360b41b604082015260600190565b6020808252601d908201527f416464726573733a2063616c6c20746f206e6f6e2d636f6e7472616374000000604082015260600190565b6020808252600790820152666472617765643f60c81b604082015260600190565b6020808252602a908201527f5361666545524332303a204552433230206f7065726174696f6e20646964206e6040820152691bdd081cdd58d8d9595960b21b606082015260800190565b602080825260069082015265191c985dd95960d21b604082015260600190565b90815260200190565b918252602082015260400190565b60ff91909116815260200190565b6040518181016001600160401b038111828210171561325157600080fd5b604052919050565b60006001600160401b0382111561326e578081fd5b5060209081020190565b60005b8381101561329357818101518382015260200161327b565b838111156111375750506000910152565b6001600160a01b03811681146132b957600080fd5b50565b60ff811681146132b957600080fdfea2646970667358221220b6eb9212a884bd41d419eed954cc925eb806e19b7139f75471fdd02032b94b1464736f6c634300060c0033",
  "immutableReferences": {},
  "source": "// SPDX-License-Identifier: MIT\n\npragma solidity 0.6.12;\npragma experimental ABIEncoderV2;\n\nimport \"./LotteryNFT.sol\";\nimport \"./token/ERC20/IERC20.sol\";\nimport \"./token/ERC20/SafeERC20.sol\";\nimport \"./LotteryOwnable.sol\";\nimport \"./math/SafeMath.sol\";\nimport \"./proxy/Initializable.sol\";\n\n// 4 numbers\ncontract Lottery is LotteryOwnable, Initializable {\n    using SafeMath for uint256;\n    using SafeMath for uint8;\n    using SafeERC20 for IERC20;\n\n    uint8 constant keyLengthForEachBuy = 11;\n    // Allocation for first/sencond/third reward\n    uint8[3] public allocation;\n    // The TOKEN to buy lottery\n    IERC20 public busd;\n    // The Lottery NFT for tickets\n    LotteryNFT public lotteryNFT;\n    // adminAddress\n    address public adminAddress;\n    // maxNumber\n    uint8 public maxNumber;\n    // minPrice, if decimal is not 18, please reset it\n    uint256 public minPrice;\n\n    // =================================\n\n    // issueId => winningNumbers[numbers]\n    mapping(uint256 => uint8[4]) public historyNumbers;\n    // issueId => [tokenId]\n    mapping(uint256 => uint256[]) public lotteryInfo;\n    // issueId => [totalAmount, firstMatchAmount, secondMatchingAmount, thirdMatchingAmount]\n    mapping(uint256 => uint256[]) public historyAmount;\n    // issueId => trickyNumber => buyAmountSum\n    mapping(uint256 => mapping(uint64 => uint256)) public userBuyAmountSum;\n    // address => [tokenId]\n    mapping(address => uint256[]) public userInfo;\n\n    uint256 public issueIndex = 0;\n    uint256 public totalAddresses = 0;\n    uint256 public totalAmount = 0;\n    uint256 public lastTimestamp;\n\n    uint8[4] public winningNumbers;\n\n    // default false\n    bool public drawingPhase;\n\n    // =================================\n\n    event Buy(address indexed user, uint256 tokenId);\n    event Drawing(uint256 indexed issueIndex, uint8[4] winningNumbers);\n    event Claim(address indexed user, uint256 tokenid, uint256 amount);\n    event DevWithdraw(address indexed user, uint256 amount);\n    event Reset(uint256 indexed issueIndex);\n    event MultiClaim(address indexed user, uint256 amount);\n    event MultiBuy(address indexed user, uint256 amount);\n\n    constructor() public {}\n\n    function initialize(\n        IERC20 _busd,\n        LotteryNFT _lottery,\n        uint256 _minPrice,\n        uint8 _maxNumber,\n        address _owner,\n        address _adminAddress\n    ) public initializer {\n        busd = _busd;\n        lotteryNFT = _lottery;\n        minPrice = _minPrice;\n        maxNumber = _maxNumber;\n        adminAddress = _adminAddress;\n        lastTimestamp = block.timestamp;\n        allocation = [60, 20, 10];\n        initOwner(_owner);\n    }\n\n    uint8[4] private nullTicket = [0, 0, 0, 0];\n\n    modifier onlyAdmin() {\n        require(msg.sender == adminAddress, \"admin: wut?\");\n        _;\n    }\n\n    modifier inDrawingPhase() {\n        require(!drawed(), \"drawed, can not buy now\");\n        require(!drawingPhase, \"drawing, can not buy now\");\n        _;\n    }\n\n    function drawed() public view returns (bool) {\n        return winningNumbers[0] != 0;\n    }\n\n    function reset() external onlyAdmin {\n        require(drawed(), \"drawed?\");\n        lastTimestamp = block.timestamp;\n        totalAddresses = 0;\n        totalAmount = 0;\n        winningNumbers[0] = 0;\n        winningNumbers[1] = 0;\n        winningNumbers[2] = 0;\n        winningNumbers[3] = 0;\n        drawingPhase = false;\n        issueIndex = issueIndex + 1;\n        if (getMatchingRewardAmount(issueIndex - 1, 4) == 0) {\n            uint256 amount =\n                getTotalRewards(issueIndex - 1).mul(allocation[0]).div(100);\n            internalBuy(amount, nullTicket);\n        }\n        emit Reset(issueIndex);\n    }\n\n    function enterDrawingPhase() external onlyAdmin {\n        require(!drawed(), \"drawed\");\n        drawingPhase = true;\n    }\n\n    // add externalRandomNumber to prevent node validators exploiting\n    function drawing(uint256 _externalRandomNumber) external onlyAdmin {\n        require(!drawed(), \"reset?\");\n        require(drawingPhase, \"enter drawing phase first\");\n        bytes32 _structHash;\n        uint256 _randomNumber;\n        uint8 _maxNumber = maxNumber;\n        bytes32 _blockhash = blockhash(block.number - 1);\n\n        // waste some gas fee here\n        for (uint256 i = 0; i < 10; i++) {\n            getTotalRewards(issueIndex);\n        }\n        uint256 gasLeft = gasleft();\n\n        // 1\n        _structHash = keccak256(\n            abi.encode(\n                _blockhash,\n                totalAddresses,\n                gasLeft,\n                _externalRandomNumber\n            )\n        );\n        _randomNumber = uint256(_structHash);\n        assembly {\n            _randomNumber := add(mod(_randomNumber, _maxNumber), 1)\n        }\n        winningNumbers[0] = uint8(_randomNumber);\n\n        // 2\n        _structHash = keccak256(\n            abi.encode(totalAmount, _blockhash, gasLeft, _externalRandomNumber)\n        );\n        _randomNumber = uint256(_structHash);\n        assembly {\n            _randomNumber := add(mod(_randomNumber, _maxNumber), 1)\n        }\n        winningNumbers[1] = uint8(_randomNumber);\n\n        // 3\n        _structHash = keccak256(\n            abi.encode(\n                _blockhash,\n                lastTimestamp,\n                gasLeft,\n                _externalRandomNumber\n            )\n        );\n        _randomNumber = uint256(_structHash);\n        assembly {\n            _randomNumber := add(mod(_randomNumber, _maxNumber), 1)\n        }\n        winningNumbers[2] = uint8(_randomNumber);\n\n        // 4\n        _structHash = keccak256(\n            abi.encode(_blockhash, gasLeft, _externalRandomNumber)\n        );\n        _randomNumber = uint256(_structHash);\n        assembly {\n            _randomNumber := add(mod(_randomNumber, _maxNumber), 1)\n        }\n        winningNumbers[3] = uint8(_randomNumber);\n\n        historyNumbers[issueIndex] = winningNumbers;\n        historyAmount[issueIndex] = calculateMatchingRewardAmount();\n        drawingPhase = false;\n        emit Drawing(issueIndex, winningNumbers);\n    }\n\n    function internalBuy(uint256 _price, uint8[4] memory _numbers)\n        public\n        onlyAdmin\n    {\n        require(!drawed(), \"drawed, can not buy now\");\n        for (uint256 i = 0; i < 4; i++) {\n            require(_numbers[i] <= maxNumber, \"exceed the maximum\");\n        }\n        uint256 tokenId =\n            lotteryNFT.newLotteryItem(\n                address(this),\n                _numbers,\n                _price,\n                issueIndex\n            );\n        lotteryInfo[issueIndex].push(tokenId);\n        totalAmount = totalAmount.add(_price);\n        lastTimestamp = block.timestamp;\n        emit Buy(address(this), tokenId);\n    }\n\n    function buy(uint256 _price, uint8[4] memory _numbers)\n        external\n        inDrawingPhase\n    {\n        require(_price >= minPrice, \"price must above minPrice\");\n        for (uint256 i = 0; i < 4; i++) {\n            require(_numbers[i] <= maxNumber, \"exceed number scope\");\n        }\n        uint256 tokenId =\n            lotteryNFT.newLotteryItem(msg.sender, _numbers, _price, issueIndex);\n        lotteryInfo[issueIndex].push(tokenId);\n        if (userInfo[msg.sender].length == 0) {\n            totalAddresses = totalAddresses + 1;\n        }\n        userInfo[msg.sender].push(tokenId);\n        totalAmount = totalAmount.add(_price);\n        lastTimestamp = block.timestamp;\n        uint64[keyLengthForEachBuy] memory userNumberIndex =\n            generateNumberIndexKey(_numbers);\n        for (uint256 i = 0; i < keyLengthForEachBuy; i++) {\n            userBuyAmountSum[issueIndex][userNumberIndex[i]] = userBuyAmountSum[\n                issueIndex\n            ][userNumberIndex[i]]\n                .add(_price);\n        }\n        busd.safeTransferFrom(address(msg.sender), address(this), _price);\n        emit Buy(msg.sender, tokenId);\n    }\n\n    function multiBuy(uint256 _price, uint8[4][] memory _numbers)\n        external\n        inDrawingPhase\n    {\n        require(_price >= minPrice, \"price must above minPrice\");\n        uint256 totalPrice = 0;\n        for (uint256 i = 0; i < _numbers.length; i++) {\n            for (uint256 j = 0; j < 4; j++) {\n                require(\n                    _numbers[i][j] <= maxNumber && _numbers[i][j] > 0,\n                    \"exceed number scope\"\n                );\n            }\n            uint256 tokenId =\n                lotteryNFT.newLotteryItem(\n                    msg.sender,\n                    _numbers[i],\n                    _price,\n                    issueIndex\n                );\n            lotteryInfo[issueIndex].push(tokenId);\n            if (userInfo[msg.sender].length == 0) {\n                totalAddresses = totalAddresses + 1;\n            }\n            userInfo[msg.sender].push(tokenId);\n            totalAmount = totalAmount.add(_price);\n            lastTimestamp = block.timestamp;\n            totalPrice = totalPrice.add(_price);\n            uint64[keyLengthForEachBuy] memory numberIndexKey =\n                generateNumberIndexKey(_numbers[i]);\n            for (uint256 k = 0; k < keyLengthForEachBuy; k++) {\n                userBuyAmountSum[issueIndex][\n                    numberIndexKey[k]\n                ] = userBuyAmountSum[issueIndex][numberIndexKey[k]].add(_price);\n            }\n        }\n        busd.safeTransferFrom(address(msg.sender), address(this), totalPrice);\n        emit MultiBuy(msg.sender, totalPrice);\n    }\n\n    function claimReward(uint256 _tokenId) external {\n        require(msg.sender == lotteryNFT.ownerOf(_tokenId), \"not from owner\");\n        require(!lotteryNFT.getClaimStatus(_tokenId), \"claimed\");\n        uint256 reward = getRewardView(_tokenId);\n        lotteryNFT.claimReward(_tokenId);\n        if (reward > 0) {\n            busd.safeTransfer(address(msg.sender), reward);\n        }\n        emit Claim(msg.sender, _tokenId, reward);\n    }\n\n    function multiClaim(uint256[] memory _tickets) external {\n        uint256 totalReward = 0;\n        for (uint256 i = 0; i < _tickets.length; i++) {\n            require(\n                msg.sender == lotteryNFT.ownerOf(_tickets[i]),\n                \"not from owner\"\n            );\n            require(!lotteryNFT.getClaimStatus(_tickets[i]), \"claimed\");\n            uint256 reward = getRewardView(_tickets[i]);\n            if (reward > 0) {\n                totalReward = reward.add(totalReward);\n            }\n        }\n        lotteryNFT.multiClaimReward(_tickets);\n        if (totalReward > 0) {\n            busd.safeTransfer(address(msg.sender), totalReward);\n        }\n        emit MultiClaim(msg.sender, totalReward);\n    }\n\n    function generateNumberIndexKey(uint8[4] memory number)\n        public\n        pure\n        returns (uint64[keyLengthForEachBuy] memory)\n    {\n        uint64[4] memory tempNumber;\n        tempNumber[0] = uint64(number[0]);\n        tempNumber[1] = uint64(number[1]);\n        tempNumber[2] = uint64(number[2]);\n        tempNumber[3] = uint64(number[3]);\n\n        uint64[keyLengthForEachBuy] memory result;\n        result[0] =\n            tempNumber[0] *\n            256 *\n            256 *\n            256 *\n            256 *\n            256 *\n            256 +\n            1 *\n            256 *\n            256 *\n            256 *\n            256 *\n            256 +\n            tempNumber[1] *\n            256 *\n            256 *\n            256 *\n            256 +\n            2 *\n            256 *\n            256 *\n            256 +\n            tempNumber[2] *\n            256 *\n            256 +\n            3 *\n            256 +\n            tempNumber[3];\n\n        result[1] =\n            tempNumber[0] *\n            256 *\n            256 *\n            256 *\n            256 +\n            1 *\n            256 *\n            256 *\n            256 +\n            tempNumber[1] *\n            256 *\n            256 +\n            2 *\n            256 +\n            tempNumber[2];\n        result[2] =\n            tempNumber[0] *\n            256 *\n            256 *\n            256 *\n            256 +\n            1 *\n            256 *\n            256 *\n            256 +\n            tempNumber[1] *\n            256 *\n            256 +\n            3 *\n            256 +\n            tempNumber[3];\n        result[3] =\n            tempNumber[0] *\n            256 *\n            256 *\n            256 *\n            256 +\n            2 *\n            256 *\n            256 *\n            256 +\n            tempNumber[2] *\n            256 *\n            256 +\n            3 *\n            256 +\n            tempNumber[3];\n        result[4] =\n            1 *\n            256 *\n            256 *\n            256 *\n            256 *\n            256 +\n            tempNumber[1] *\n            256 *\n            256 *\n            256 *\n            256 +\n            2 *\n            256 *\n            256 *\n            256 +\n            tempNumber[2] *\n            256 *\n            256 +\n            3 *\n            256 +\n            tempNumber[3];\n\n        result[5] = tempNumber[0] * 256 * 256 + 1 * 256 + tempNumber[1];\n        result[6] = tempNumber[0] * 256 * 256 + 2 * 256 + tempNumber[2];\n        result[7] = tempNumber[0] * 256 * 256 + 3 * 256 + tempNumber[3];\n        result[8] =\n            1 *\n            256 *\n            256 *\n            256 +\n            tempNumber[1] *\n            256 *\n            256 +\n            2 *\n            256 +\n            tempNumber[2];\n        result[9] =\n            1 *\n            256 *\n            256 *\n            256 +\n            tempNumber[1] *\n            256 *\n            256 +\n            3 *\n            256 +\n            tempNumber[3];\n        result[10] =\n            2 *\n            256 *\n            256 *\n            256 +\n            tempNumber[2] *\n            256 *\n            256 +\n            3 *\n            256 +\n            tempNumber[3];\n\n        return result;\n    }\n\n    function calculateMatchingRewardAmount()\n        internal\n        view\n        returns (uint256[4] memory)\n    {\n        uint64[keyLengthForEachBuy] memory numberIndexKey =\n            generateNumberIndexKey(winningNumbers);\n\n        uint256 totalAmout1 = userBuyAmountSum[issueIndex][numberIndexKey[0]];\n\n        uint256 sumForTotalAmout2 =\n            userBuyAmountSum[issueIndex][numberIndexKey[1]];\n        sumForTotalAmout2 = sumForTotalAmout2.add(\n            userBuyAmountSum[issueIndex][numberIndexKey[2]]\n        );\n        sumForTotalAmout2 = sumForTotalAmout2.add(\n            userBuyAmountSum[issueIndex][numberIndexKey[3]]\n        );\n        sumForTotalAmout2 = sumForTotalAmout2.add(\n            userBuyAmountSum[issueIndex][numberIndexKey[4]]\n        );\n\n        uint256 totalAmout2 = sumForTotalAmout2.sub(totalAmout1.mul(4));\n\n        uint256 sumForTotalAmout3 =\n            userBuyAmountSum[issueIndex][numberIndexKey[5]];\n        sumForTotalAmout3 = sumForTotalAmout3.add(\n            userBuyAmountSum[issueIndex][numberIndexKey[6]]\n        );\n        sumForTotalAmout3 = sumForTotalAmout3.add(\n            userBuyAmountSum[issueIndex][numberIndexKey[7]]\n        );\n        sumForTotalAmout3 = sumForTotalAmout3.add(\n            userBuyAmountSum[issueIndex][numberIndexKey[8]]\n        );\n        sumForTotalAmout3 = sumForTotalAmout3.add(\n            userBuyAmountSum[issueIndex][numberIndexKey[9]]\n        );\n        sumForTotalAmout3 = sumForTotalAmout3.add(\n            userBuyAmountSum[issueIndex][numberIndexKey[10]]\n        );\n\n        uint256 totalAmout3 =\n            sumForTotalAmout3.add(totalAmout1.mul(6)).sub(\n                sumForTotalAmout2.mul(3)\n            );\n\n        return [totalAmount, totalAmout1, totalAmout2, totalAmout3];\n    }\n\n    function getMatchingRewardAmount(\n        uint256 _issueIndex,\n        uint256 _matchingNumber\n    ) public view returns (uint256) {\n        return historyAmount[_issueIndex][5 - _matchingNumber];\n    }\n\n    function getTotalRewards(uint256 _issueIndex)\n        public\n        view\n        returns (uint256)\n    {\n        require(_issueIndex <= issueIndex, \"_issueIndex <= issueIndex\");\n\n        if (!drawed() && _issueIndex == issueIndex) {\n            return totalAmount;\n        }\n        return historyAmount[_issueIndex][0];\n    }\n\n    function getRewardView(uint256 _tokenId) public view returns (uint256) {\n        uint256 _issueIndex = lotteryNFT.getLotteryIssueIndex(_tokenId);\n        uint8[4] memory lotteryNumbers = lotteryNFT.getLotteryNumbers(_tokenId);\n        uint8[4] memory _winningNumbers = historyNumbers[_issueIndex];\n        require(_winningNumbers[0] != 0, \"not drawed\");\n\n        uint256 matchingNumber = 0;\n        for (uint256 i = 0; i < lotteryNumbers.length; i++) {\n            if (_winningNumbers[i] == lotteryNumbers[i]) {\n                matchingNumber = matchingNumber + 1;\n            }\n        }\n        uint256 reward = 0;\n        if (matchingNumber > 1) {\n            uint256 amount = lotteryNFT.getLotteryAmount(_tokenId);\n            uint256 poolAmount =\n                getTotalRewards(_issueIndex)\n                    .mul(allocation[4 - matchingNumber])\n                    .div(100);\n            reward = amount\n                .mul(1e12)\n                .div(getMatchingRewardAmount(_issueIndex, matchingNumber))\n                .mul(poolAmount);\n        }\n        return reward.div(1e12);\n    }\n\n    // Update admin address by the previous dev.\n    function setAdmin(address _adminAddress) public onlyOwner {\n        adminAddress = _adminAddress;\n    }\n\n    // Withdraw without caring about rewards. EMERGENCY ONLY.\n    function adminWithdraw(uint256 _amount) public onlyAdmin {\n        busd.safeTransfer(address(msg.sender), _amount);\n        emit DevWithdraw(msg.sender, _amount);\n    }\n\n    // Set the minimum price for one ticket\n    function setMinPrice(uint256 _price) external onlyAdmin {\n        minPrice = _price;\n    }\n\n    // Set the minimum price for one ticket\n    function setMaxNumber(uint8 _maxNumber) external onlyAdmin {\n        maxNumber = _maxNumber;\n    }\n\n    // Set the allocation for one reward\n    function setAllocation(\n        uint8 _allcation1,\n        uint8 _allcation2,\n        uint8 _allcation3\n    ) external onlyAdmin {\n        require(_allcation1 + _allcation2 + _allcation3 < 100, \"exceed 100\");\n        allocation = [_allcation1, _allcation2, _allcation3];\n    }\n}\n",
  "sourcePath": "/Users/thanwa/git/token-lottery/contracts/Lottery.sol",
  "compiler": {
    "name": "solc",
    "version": "0.6.12+commit.27d51765.Emscripten.clang"
  },
  "schemaVersion": "3.3.4",
  "updatedAt": "2021-04-11T14:54:13.582Z",
  "networkType": "ethereum",
  "devdoc": {
    "kind": "dev",
    "methods": {
      "owner()": {
        "details": "Returns the address of the current owner."
      },
      "renounceOwnership()": {
        "details": "Leaves the contract without owner. It will not be possible to call `onlyOwner` functions anymore. Can only be called by the current owner. NOTE: Renouncing ownership will leave the contract without an owner, thereby removing any functionality that is only available to the owner."
      },
      "transferOwnership(address)": {
        "details": "Transfers ownership of the contract to a new account (`newOwner`). Can only be called by the current owner."
      }
    },
    "version": 1
  },
  "userdoc": {
    "kind": "user",
    "methods": {},
    "version": 1
  }
}